{"contracts/Trash2Gem.sol":{"Trash2Gem":{"abi":[{"inputs":[],"stateMutability":"payable","type":"constructor"},{"anonymous":false,"inputs":[{"indexed":true,"internalType":"address","name":"owner","type":"address"},{"indexed":true,"internalType":"address","name":"approved","type":"address"},{"indexed":true,"internalType":"uint256","name":"tokenId","type":"uint256"}],"name":"Approval","type":"event"},{"anonymous":false,"inputs":[{"indexed":true,"internalType":"address","name":"owner","type":"address"},{"indexed":true,"internalType":"address","name":"operator","type":"address"},{"indexed":false,"internalType":"bool","name":"approved","type":"bool"}],"name":"ApprovalForAll","type":"event"},{"anonymous":false,"inputs":[{"indexed":false,"internalType":"uint256","name":"_fromTokenId","type":"uint256"},{"indexed":false,"internalType":"uint256","name":"_toTokenId","type":"uint256"}],"name":"BatchMetadataUpdate","type":"event"},{"anonymous":false,"inputs":[{"indexed":false,"internalType":"uint8","name":"totalCreatedNfts","type":"uint8"},{"indexed":false,"internalType":"string","name":"ipfs","type":"string"},{"indexed":false,"internalType":"string","name":"awardedFor","type":"string"}],"name":"CreateNFT","type":"event"},{"anonymous":false,"inputs":[{"indexed":false,"internalType":"uint8","name":"id","type":"uint8"},{"indexed":false,"internalType":"uint8","name":"price","type":"uint8"},{"indexed":false,"internalType":"string","name":"wasteType","type":"string"}],"name":"ImportWasteItem","type":"event"},{"anonymous":false,"inputs":[{"indexed":false,"internalType":"uint256","name":"_tokenId","type":"uint256"}],"name":"MetadataUpdate","type":"event"},{"anonymous":false,"inputs":[{"indexed":true,"internalType":"address","name":"previousOwner","type":"address"},{"indexed":true,"internalType":"address","name":"newOwner","type":"address"}],"name":"OwnershipTransferred","type":"event"},{"anonymous":false,"inputs":[{"indexed":false,"internalType":"string","name":"productName","type":"string"},{"indexed":false,"internalType":"uint8","name":"price","type":"uint8"},{"indexed":false,"internalType":"address","name":"seller","type":"address"}],"name":"ProductCreation","type":"event"},{"anonymous":false,"inputs":[{"indexed":true,"internalType":"address","name":"from","type":"address"},{"indexed":true,"internalType":"address","name":"to","type":"address"},{"indexed":true,"internalType":"uint256","name":"tokenId","type":"uint256"}],"name":"Transfer","type":"event"},{"anonymous":false,"inputs":[{"indexed":false,"internalType":"string","name":"id","type":"string"},{"indexed":false,"internalType":"string","name":"message","type":"string"}],"name":"UserEvent","type":"event"},{"anonymous":false,"inputs":[{"indexed":false,"internalType":"uint8","name":"totalWasteCategories","type":"uint8"},{"indexed":false,"internalType":"string","name":"wasteType","type":"string"},{"indexed":false,"internalType":"uint8","name":"amountRecycled","type":"uint8"}],"name":"WasteType","type":"event"},{"anonymous":false,"inputs":[{"indexed":false,"internalType":"uint8","name":"nftId","type":"uint8"},{"indexed":false,"internalType":"string","name":"ipfs","type":"string"}],"name":"minting","type":"event"},{"inputs":[{"internalType":"string","name":"","type":"string"}],"name":"Communities","outputs":[{"internalType":"string","name":"id","type":"string"},{"internalType":"address","name":"owner","type":"address"},{"internalType":"uint8","name":"productState","type":"uint8"},{"internalType":"bool","name":"isExists","type":"bool"},{"internalType":"uint8","name":"totalCreatedProducts","type":"uint8"},{"internalType":"uint8","name":"totalWasteCategories","type":"uint8"}],"stateMutability":"view","type":"function"},{"inputs":[{"internalType":"uint8","name":"","type":"uint8"}],"name":"NftAwards","outputs":[{"internalType":"uint8","name":"id","type":"uint8"},{"internalType":"string","name":"awardedFor","type":"string"},{"internalType":"string","name":"ipfs","type":"string"}],"stateMutability":"view","type":"function"},{"inputs":[{"internalType":"string","name":"","type":"string"}],"name":"Users","outputs":[{"internalType":"string","name":"id","type":"string"},{"internalType":"uint256","name":"amountSold","type":"uint256"},{"internalType":"bool","name":"isExists","type":"bool"}],"stateMutability":"view","type":"function"},{"inputs":[{"internalType":"uint8","name":"","type":"uint8"}],"name":"WasteCategories","outputs":[{"internalType":"uint8","name":"id","type":"uint8"},{"internalType":"string","name":"wasteType","type":"string"},{"internalType":"uint256","name":"amountPresent","type":"uint256"},{"internalType":"uint256","name":"amountRecycled","type":"uint256"},{"internalType":"uint256","name":"amtPerUint","type":"uint256"}],"stateMutability":"view","type":"function"},{"inputs":[{"internalType":"string","name":"wasteType","type":"string"},{"internalType":"uint256","name":"amtPerUint","type":"uint256"}],"name":"addWasteType","outputs":[],"stateMutability":"nonpayable","type":"function"},{"inputs":[{"internalType":"address","name":"to","type":"address"},{"internalType":"uint256","name":"tokenId","type":"uint256"}],"name":"approve","outputs":[],"stateMutability":"nonpayable","type":"function"},{"inputs":[{"internalType":"address","name":"owner","type":"address"}],"name":"balanceOf","outputs":[{"internalType":"uint256","name":"","type":"uint256"}],"stateMutability":"view","type":"function"},{"inputs":[{"internalType":"string","name":"id","type":"string"},{"internalType":"string","name":"communityId","type":"string"},{"internalType":"uint8","name":"productId","type":"uint8"}],"name":"buyProduct","outputs":[],"stateMutability":"payable","type":"function"},{"inputs":[{"internalType":"string","name":"id","type":"string"},{"internalType":"uint8","name":"wasteItemId","type":"uint8"},{"internalType":"uint256","name":"amtNeeded","type":"uint256"}],"name":"buyWasteItems","outputs":[],"stateMutability":"payable","type":"function"},{"inputs":[{"internalType":"string","name":"id","type":"string"}],"name":"createCommunity","outputs":[],"stateMutability":"nonpayable","type":"function"},{"inputs":[{"internalType":"string","name":"ipfs","type":"string"},{"internalType":"string","name":"awardedFor","type":"string"}],"name":"createNFT","outputs":[],"stateMutability":"nonpayable","type":"function"},{"inputs":[{"internalType":"string","name":"id","type":"string"},{"internalType":"uint8","name":"price","type":"uint8"},{"internalType":"string","name":"productName","type":"string"}],"name":"createProduct","outputs":[],"stateMutability":"nonpayable","type":"function"},{"inputs":[{"internalType":"string","name":"id","type":"string"}],"name":"createUser","outputs":[],"stateMutability":"nonpayable","type":"function"},{"inputs":[{"internalType":"string","name":"id","type":"string"},{"internalType":"uint8","name":"wasteItemId","type":"uint8"}],"name":"createWasteCategory","outputs":[],"stateMutability":"nonpayable","type":"function"},{"inputs":[{"internalType":"uint256","name":"tokenId","type":"uint256"}],"name":"getApproved","outputs":[{"internalType":"address","name":"","type":"address"}],"stateMutability":"view","type":"function"},{"inputs":[{"internalType":"string","name":"communityId","type":"string"},{"internalType":"uint8","name":"wasteId","type":"uint8"}],"name":"getWasteCommunity","outputs":[{"components":[{"internalType":"uint8","name":"id","type":"uint8"},{"internalType":"string","name":"wasteType","type":"string"},{"internalType":"uint256","name":"amountPresent","type":"uint256"},{"internalType":"uint256","name":"amountRecycled","type":"uint256"},{"internalType":"uint256","name":"amtPerUint","type":"uint256"}],"internalType":"struct Trash2Gem.WasteCategory","name":"","type":"tuple"}],"stateMutability":"view","type":"function"},{"inputs":[{"internalType":"uint8","name":"wasteId","type":"uint8"}],"name":"getWasteStore","outputs":[{"components":[{"internalType":"uint8","name":"id","type":"uint8"},{"internalType":"string","name":"wasteType","type":"string"},{"internalType":"uint256","name":"amountPresent","type":"uint256"},{"internalType":"uint256","name":"amountRecycled","type":"uint256"},{"internalType":"uint256","name":"amtPerUint","type":"uint256"}],"internalType":"struct Trash2Gem.WasteCategory","name":"","type":"tuple"}],"stateMutability":"view","type":"function"},{"inputs":[{"internalType":"address","name":"owner","type":"address"},{"internalType":"address","name":"operator","type":"address"}],"name":"isApprovedForAll","outputs":[{"internalType":"bool","name":"","type":"bool"}],"stateMutability":"view","type":"function"},{"inputs":[{"internalType":"uint8","name":"","type":"uint8"}],"name":"marketItems","outputs":[{"internalType":"uint8","name":"id","type":"uint8"},{"internalType":"string","name":"owner","type":"string"},{"internalType":"string","name":"seller","type":"string"},{"internalType":"uint8","name":"price","type":"uint8"},{"internalType":"string","name":"productName","type":"string"},{"internalType":"enum Trash2Gem.Production","name":"productState","type":"uint8"}],"stateMutability":"view","type":"function"},{"inputs":[],"name":"name","outputs":[{"internalType":"string","name":"","type":"string"}],"stateMutability":"view","type":"function"},{"inputs":[],"name":"noUsers","outputs":[{"internalType":"uint256","name":"","type":"uint256"}],"stateMutability":"view","type":"function"},{"inputs":[],"name":"owner","outputs":[{"internalType":"address","name":"","type":"address"}],"stateMutability":"view","type":"function"},{"inputs":[{"internalType":"uint256","name":"tokenId","type":"uint256"}],"name":"ownerOf","outputs":[{"internalType":"address","name":"","type":"address"}],"stateMutability":"view","type":"function"},{"inputs":[],"name":"renounceOwnership","outputs":[],"stateMutability":"nonpayable","type":"function"},{"inputs":[{"internalType":"address","name":"from","type":"address"},{"internalType":"address","name":"to","type":"address"},{"internalType":"uint256","name":"tokenId","type":"uint256"}],"name":"safeTransferFrom","outputs":[],"stateMutability":"nonpayable","type":"function"},{"inputs":[{"internalType":"address","name":"from","type":"address"},{"internalType":"address","name":"to","type":"address"},{"internalType":"uint256","name":"tokenId","type":"uint256"},{"internalType":"bytes","name":"data","type":"bytes"}],"name":"safeTransferFrom","outputs":[],"stateMutability":"nonpayable","type":"function"},{"inputs":[{"internalType":"string","name":"id","type":"string"},{"internalType":"uint8","name":"wasteId","type":"uint8"},{"internalType":"uint256","name":"wasteAmt","type":"uint256"}],"name":"sellWaste","outputs":[],"stateMutability":"nonpayable","type":"function"},{"inputs":[{"internalType":"address","name":"operator","type":"address"},{"internalType":"bool","name":"approved","type":"bool"}],"name":"setApprovalForAll","outputs":[],"stateMutability":"nonpayable","type":"function"},{"inputs":[{"internalType":"bytes4","name":"interfaceId","type":"bytes4"}],"name":"supportsInterface","outputs":[{"internalType":"bool","name":"","type":"bool"}],"stateMutability":"view","type":"function"},{"inputs":[],"name":"symbol","outputs":[{"internalType":"string","name":"","type":"string"}],"stateMutability":"view","type":"function"},{"inputs":[{"internalType":"uint256","name":"tokenId","type":"uint256"}],"name":"tokenURI","outputs":[{"internalType":"string","name":"","type":"string"}],"stateMutability":"view","type":"function"},{"inputs":[],"name":"totalCommunities","outputs":[{"internalType":"uint8","name":"","type":"uint8"}],"stateMutability":"view","type":"function"},{"inputs":[],"name":"totalCreatedNfts","outputs":[{"internalType":"uint8","name":"","type":"uint8"}],"stateMutability":"view","type":"function"},{"inputs":[],"name":"totalMintedNfts","outputs":[{"internalType":"uint8","name":"","type":"uint8"}],"stateMutability":"view","type":"function"},{"inputs":[],"name":"totalProducts","outputs":[{"internalType":"uint8","name":"","type":"uint8"}],"stateMutability":"view","type":"function"},{"inputs":[],"name":"totalWaste","outputs":[{"internalType":"uint8","name":"","type":"uint8"}],"stateMutability":"view","type":"function"},{"inputs":[],"name":"totalWasteCategories","outputs":[{"internalType":"uint8","name":"","type":"uint8"}],"stateMutability":"view","type":"function"},{"inputs":[{"internalType":"address","name":"from","type":"address"},{"internalType":"address","name":"to","type":"address"},{"internalType":"uint256","name":"tokenId","type":"uint256"}],"name":"transferFrom","outputs":[],"stateMutability":"nonpayable","type":"function"},{"inputs":[{"internalType":"address","name":"newOwner","type":"address"}],"name":"transferOwnership","outputs":[],"stateMutability":"nonpayable","type":"function"}],"evm":{"bytecode":{"linkReferences":{},"object":"60806040526040518060400160405280600481526020017f476f6c64000000000000000000000000000000000000000000000000000000008152506040518060400160405280600381526020017f474c440000000000000000000000000000000000000000000000000000000000815250816000908162000081919062000404565b50806001908162000093919062000404565b505050620000b6620000aa620000bc60201b60201c565b620000c460201b60201c565b620004eb565b600033905090565b6000600760009054906101000a900473ffffffffffffffffffffffffffffffffffffffff16905081600760006101000a81548173ffffffffffffffffffffffffffffffffffffffff021916908373ffffffffffffffffffffffffffffffffffffffff1602179055508173ffffffffffffffffffffffffffffffffffffffff168173ffffffffffffffffffffffffffffffffffffffff167f8be0079c531659141344cd1fd0a4f28419497f9722a3daafe3b4186f6b6457e060405160405180910390a35050565b600081519050919050565b7f4e487b7100000000000000000000000000000000000000000000000000000000600052604160045260246000fd5b7f4e487b7100000000000000000000000000000000000000000000000000000000600052602260045260246000fd5b600060028204905060018216806200020c57607f821691505b602082108103620002225762000221620001c4565b5b50919050565b60008190508160005260206000209050919050565b60006020601f8301049050919050565b600082821b905092915050565b6000600883026200028c7fffffffffffffffffffffffffffffffffffffffffffffffffffffffffffffffff826200024d565b6200029886836200024d565b95508019841693508086168417925050509392505050565b6000819050919050565b6000819050919050565b6000620002e5620002df620002d984620002b0565b620002ba565b620002b0565b9050919050565b6000819050919050565b6200030183620002c4565b620003196200031082620002ec565b8484546200025a565b825550505050565b600090565b6200033062000321565b6200033d818484620002f6565b505050565b5b8181101562000365576200035960008262000326565b60018101905062000343565b5050565b601f821115620003b4576200037e8162000228565b62000389846200023d565b8101602085101562000399578190505b620003b1620003a8856200023d565b83018262000342565b50505b505050565b600082821c905092915050565b6000620003d960001984600802620003b9565b1980831691505092915050565b6000620003f48383620003c6565b9150826002028217905092915050565b6200040f826200018a565b67ffffffffffffffff8111156200042b576200042a62000195565b5b620004378254620001f3565b6200044482828562000369565b600060209050601f8311600181146200047c576000841562000467578287015190505b620004738582620003e6565b865550620004e3565b601f1984166200048c8662000228565b60005b82811015620004b6578489015182556001820191506020850194506020810190506200048f565b86831015620004d65784890151620004d2601f891682620003c6565b8355505b6001600288020188555050505b505050505050565b6156ce80620004fb6000396000f3fe6080604052600436106102305760003560e01c8063715018a61161012e578063b30cfcf0116100ab578063e67929221161006f578063e67929221461089c578063e985e9c5146108c5578063f2fde38b14610902578063f87be6bb1461092b578063fcb4d2061461094757610230565b8063b30cfcf0146107a3578063b88d4fde146107e2578063c14d942b1461080b578063c87b56dd14610834578063e108ec061461087157610230565b806396cc9263116100f257806396cc9263146106df5780639724128c1461070a5780639b9d326d14610733578063a22cb4651461075e578063ac0cf9761461078757610230565b8063715018a61461060a578063788166e81461062157806381e901fb1461065e5780638da5cb5b1461068957806395d89b41146106b457610230565b8063363de538116101bc578063507ffba511610180578063507ffba5146105155780636352211e1461053e57806364eeff921461057b57806368613d17146105a457806370a08231146105cd57610230565b8063363de5381461042b5780633bae22851461045657806342842e0e1461048157806347e59985146104aa5780634cc83e5a146104d357610230565b8063095ea7b311610203578063095ea7b3146103195780630ff77f3b1461034257806323b872dd1461038457806328b5fdf1146103ad57806331151a7c146103ee57610230565b806301ffc9a71461023557806306fdde0314610272578063076faab41461029d578063081812fc146102dc575b600080fd5b34801561024157600080fd5b5061025c60048036038101906102579190613960565b610972565b60405161026991906139a8565b60405180910390f35b34801561027e57600080fd5b506102876109d3565b6040516102949190613a53565b60405180910390f35b3480156102a957600080fd5b506102c460048036038101906102bf9190613baa565b610a65565b6040516102d393929190613c0c565b60405180910390f35b3480156102e857600080fd5b5061030360048036038101906102fe9190613c76565b610b3a565b6040516103109190613ce4565b60405180910390f35b34801561032557600080fd5b50610340600480360381019061033b9190613d2b565b610b80565b005b34801561034e57600080fd5b5061036960048036038101906103649190613da4565b610c97565b60405161037b96959493929190613e57565b60405180910390f35b34801561039057600080fd5b506103ab60048036038101906103a69190613ecd565b610e92565b005b3480156103b957600080fd5b506103d460048036038101906103cf9190613da4565b610ef2565b6040516103e5959493929190613f20565b60405180910390f35b3480156103fa57600080fd5b5061041560048036038101906104109190613da4565b610fbd565b6040516104229190614058565b60405180910390f35b34801561043757600080fd5b506104406110bd565b60405161044d919061407a565b60405180910390f35b34801561046257600080fd5b5061046b6110c3565b6040516104789190614095565b60405180910390f35b34801561048d57600080fd5b506104a860048036038101906104a39190613ecd565b6110d6565b005b3480156104b657600080fd5b506104d160048036038101906104cc91906140b0565b6110f6565b005b3480156104df57600080fd5b506104fa60048036038101906104f59190613baa565b611240565b60405161050c9695949392919061410c565b60405180910390f35b34801561052157600080fd5b5061053c60048036038101906105379190613baa565b61136e565b005b34801561054a57600080fd5b5061056560048036038101906105609190613c76565b61143c565b6040516105729190613ce4565b60405180910390f35b34801561058757600080fd5b506105a2600480360381019061059d9190614174565b6114c2565b005b3480156105b057600080fd5b506105cb60048036038101906105c691906141d0565b611647565b005b3480156105d957600080fd5b506105f460048036038101906105ef9190614248565b61177a565b604051610601919061407a565b60405180910390f35b34801561061657600080fd5b5061061f611831565b005b34801561062d57600080fd5b5061064860048036038101906106439190614174565b611845565b6040516106559190614058565b60405180910390f35b34801561066a57600080fd5b5061067361196b565b6040516106809190614095565b60405180910390f35b34801561069557600080fd5b5061069e611982565b6040516106ab9190613ce4565b60405180910390f35b3480156106c057600080fd5b506106c96119ac565b6040516106d69190613a53565b60405180910390f35b3480156106eb57600080fd5b506106f4611a3e565b6040516107019190614095565b60405180910390f35b34801561071657600080fd5b50610731600480360381019061072c9190614275565b611a51565b005b34801561073f57600080fd5b50610748611cbc565b6040516107559190614095565b60405180910390f35b34801561076a57600080fd5b506107856004803603810190610780919061432c565b611ccf565b005b6107a1600480360381019061079c919061436c565b611ce5565b005b3480156107af57600080fd5b506107ca60048036038101906107c59190613da4565b611f09565b6040516107d9939291906143f7565b60405180910390f35b3480156107ee57600080fd5b50610809600480360381019061080491906144dd565b612050565b005b34801561081757600080fd5b50610832600480360381019061082d9190614560565b6120b2565b005b34801561084057600080fd5b5061085b60048036038101906108569190613c76565b6121f3565b6040516108689190613a53565b60405180910390f35b34801561087d57600080fd5b50610886612305565b6040516108939190614095565b60405180910390f35b3480156108a857600080fd5b506108c360048036038101906108be9190613baa565b612318565b005b3480156108d157600080fd5b506108ec60048036038101906108e791906145cf565b612457565b6040516108f991906139a8565b60405180910390f35b34801561090e57600080fd5b5061092960048036038101906109249190614248565b6124eb565b005b61094560048036038101906109409190614560565b61256e565b005b34801561095357600080fd5b5061095c612668565b6040516109699190614095565b60405180910390f35b6000634906490660e01b7bffffffffffffffffffffffffffffffffffffffffffffffffffffffff1916827bffffffffffffffffffffffffffffffffffffffffffffffffffffffff191614806109cc57506109cb8261267b565b5b9050919050565b6060600080546109e29061463e565b80601f0160208091040260200160405190810160405280929190818152602001828054610a0e9061463e565b8015610a5b5780601f10610a3057610100808354040283529160200191610a5b565b820191906000526020600020905b815481529060010190602001808311610a3e57829003601f168201915b5050505050905090565b600b81805160208101820180518482526020830160208501208183528095505050505050600091509050806000018054610a9e9061463e565b80601f0160208091040260200160405190810160405280929190818152602001828054610aca9061463e565b8015610b175780601f10610aec57610100808354040283529160200191610b17565b820191906000526020600020905b815481529060010190602001808311610afa57829003601f168201915b5050505050908060010154908060020160009054906101000a900460ff16905083565b6000610b458261275d565b6004600083815260200190815260200160002060009054906101000a900473ffffffffffffffffffffffffffffffffffffffff169050919050565b6000610b8b8261143c565b90508073ffffffffffffffffffffffffffffffffffffffff168373ffffffffffffffffffffffffffffffffffffffff1603610bfb576040517f08c379a0000000000000000000000000000000000000000000000000000000008152600401610bf2906146e1565b60405180910390fd5b8073ffffffffffffffffffffffffffffffffffffffff16610c1a6127a8565b73ffffffffffffffffffffffffffffffffffffffff161480610c495750610c4881610c436127a8565b612457565b5b610c88576040517f08c379a0000000000000000000000000000000000000000000000000000000008152600401610c7f90614773565b60405180910390fd5b610c9283836127b0565b505050565b600f6020528060005260406000206000915090508060000160009054906101000a900460ff1690806001018054610ccd9061463e565b80601f0160208091040260200160405190810160405280929190818152602001828054610cf99061463e565b8015610d465780601f10610d1b57610100808354040283529160200191610d46565b820191906000526020600020905b815481529060010190602001808311610d2957829003601f168201915b505050505090806002018054610d5b9061463e565b80601f0160208091040260200160405190810160405280929190818152602001828054610d879061463e565b8015610dd45780601f10610da957610100808354040283529160200191610dd4565b820191906000526020600020905b815481529060010190602001808311610db757829003601f168201915b5050505050908060030160009054906101000a900460ff1690806004018054610dfc9061463e565b80601f0160208091040260200160405190810160405280929190818152602001828054610e289061463e565b8015610e755780601f10610e4a57610100808354040283529160200191610e75565b820191906000526020600020905b815481529060010190602001808311610e5857829003601f168201915b5050505050908060050160009054906101000a900460ff16905086565b610ea3610e9d6127a8565b82612869565b610ee2576040517f08c379a0000000000000000000000000000000000000000000000000000000008152600401610ed990614805565b60405180910390fd5b610eed8383836128fe565b505050565b60086020528060005260406000206000915090508060000160009054906101000a900460ff1690806001018054610f289061463e565b80601f0160208091040260200160405190810160405280929190818152602001828054610f549061463e565b8015610fa15780601f10610f7657610100808354040283529160200191610fa1565b820191906000526020600020905b815481529060010190602001808311610f8457829003601f168201915b5050505050908060020154908060030154908060040154905085565b610fc56138c2565b600860008360ff1660ff1681526020019081526020016000206040518060a00160405290816000820160009054906101000a900460ff1660ff1660ff1681526020016001820180546110169061463e565b80601f01602080910402602001604051908101604052809291908181526020018280546110429061463e565b801561108f5780601f106110645761010080835404028352916020019161108f565b820191906000526020600020905b81548152906001019060200180831161107257829003601f168201915b5050505050815260200160028201548152602001600382015481526020016004820154815250509050919050565b600a5481565b600760149054906101000a900460ff1681565b6110f183838360405180602001604052806000815250612050565b505050565b6110fe612bf7565b6007601681819054906101000a900460ff168092919061111d90614854565b91906101000a81548160ff021916908360ff160217905550506040518060a00160405280600760169054906101000a900460ff1660ff16815260200183815260200160008152602001600081526020018281525060086000600760169054906101000a900460ff1660ff1660ff16815260200190815260200160002060008201518160000160006101000a81548160ff021916908360ff16021790555060208201518160010190816111cf9190614a29565b506040820151816002015560608201518160030155608082015181600401559050507f4b97dd848bade800712122c996326a9168c8f82a899049e25f8ff5efe6fb664e600760169054906101000a900460ff1683600060405161123493929190614b36565b60405180910390a15050565b600d818051602081018201805184825260208301602085012081835280955050505050506000915090508060000180546112799061463e565b80601f01602080910402602001604051908101604052809291908181526020018280546112a59061463e565b80156112f25780601f106112c7576101008083540402835291602001916112f2565b820191906000526020600020905b8154815290600101906020018083116112d557829003601f168201915b5050505050908060010160009054906101000a900473ffffffffffffffffffffffffffffffffffffffff16908060010160149054906101000a900460ff16908060010160159054906101000a900460ff16908060010160169054906101000a900460ff16908060010160179054906101000a900460ff16905086565b600b8160405161137e9190614bb0565b908152602001604051809103902060020160009054906101000a900460ff16156113dd576040517f08c379a00000000000000000000000000000000000000000000000000000000081526004016113d490614c13565b60405180910390fd5b6000600b826040516113ef9190614bb0565b90815260200160405180910390209050818160000190816114109190614a29565b506000816001018190555060018160020160006101000a81548160ff0219169083151502179055505050565b60008061144883612c75565b9050600073ffffffffffffffffffffffffffffffffffffffff168173ffffffffffffffffffffffffffffffffffffffff16036114b9576040517f08c379a00000000000000000000000000000000000000000000000000000000081526004016114b090614c7f565b60405180910390fd5b80915050919050565b6000600d836040516114d49190614bb0565b908152602001604051809103902090506000600860008460ff1660ff16815260200190815260200160002090506040518060a001604052808260000160009054906101000a900460ff1660ff1681526020018260010180546115359061463e565b80601f01602080910402602001604051908101604052809291908181526020018280546115619061463e565b80156115ae5780601f10611583576101008083540402835291602001916115ae565b820191906000526020600020905b81548152906001019060200180831161159157829003601f168201915b50505050508152602001600081526020016000815260200182600401548152508260020160008560ff1660ff16815260200190815260200160002060008201518160000160006101000a81548160ff021916908360ff160217905550602082015181600101908161161f9190614a29565b5060408201518160020155606082015181600301556080820151816004015590505050505050565b61164f612bf7565b6007601581819054906101000a900460ff168092919061166e90614854565b91906101000a81548160ff021916908360ff160217905550506040518060600160405280600760159054906101000a900460ff1660ff1681526020018381526020018281525060096000600760159054906101000a900460ff1660ff1660ff16815260200190815260200160002060008201518160000160006101000a81548160ff021916908360ff16021790555060208201518160010190816117129190614a29565b5060408201518160020190816117289190614a29565b509050507f1cc90a83351eb0e068581c785555aca9c5d4a7f8e75c3e9e4c62c8dbab35c5c9600760159054906101000a900460ff16828460405161176e939291906143f7565b60405180910390a15050565b60008073ffffffffffffffffffffffffffffffffffffffff168273ffffffffffffffffffffffffffffffffffffffff16036117ea576040517f08c379a00000000000000000000000000000000000000000000000000000000081526004016117e190614d11565b60405180910390fd5b600360008373ffffffffffffffffffffffffffffffffffffffff1673ffffffffffffffffffffffffffffffffffffffff168152602001908152602001600020549050919050565b611839612bf7565b6118436000612cb2565b565b61184d6138c2565b6000600d8460405161185f9190614bb0565b908152602001604051809103902090508060020160008460ff1660ff1681526020019081526020016000206040518060a00160405290816000820160009054906101000a900460ff1660ff1660ff1681526020016001820180546118c29061463e565b80601f01602080910402602001604051908101604052809291908181526020018280546118ee9061463e565b801561193b5780601f106119105761010080835404028352916020019161193b565b820191906000526020600020905b81548152906001019060200180831161191e57829003601f168201915b50505050508152602001600282015481526020016003820154815260200160048201548152505091505092915050565b6000600760169054906101000a900460ff16905090565b6000600760009054906101000a900473ffffffffffffffffffffffffffffffffffffffff16905090565b6060600180546119bb9061463e565b80601f01602080910402602001604051908101604052809291908181526020018280546119e79061463e565b8015611a345780601f10611a0957610100808354040283529160200191611a34565b820191906000526020600020905b815481529060010190602001808311611a1757829003601f168201915b5050505050905090565b600760169054906101000a900460ff1681565b6000600d84604051611a639190614bb0565b9081526020016040518091039020905060018160010160168282829054906101000a900460ff16611a949190614d31565b92506101000a81548160ff021916908360ff1602179055506001600e60008282829054906101000a900460ff16611acb9190614d31565b92506101000a81548160ff021916908360ff1602179055506040518060c00160405280600e60009054906101000a900460ff1660ff1681526020016040518060200160405280600081525081526020018581526020018460ff168152602001838152602001600180811115611b4357611b42613de0565b5b815250600f6000600e60009054906101000a900460ff1660ff1660ff16815260200190815260200160002060008201518160000160006101000a81548160ff021916908360ff1602179055506020820151816001019081611ba49190614a29565b506040820151816002019081611bba9190614a29565b5060608201518160030160006101000a81548160ff021916908360ff1602179055506080820151816004019081611bf19190614a29565b5060a08201518160050160006101000a81548160ff02191690836001811115611c1d57611c1c613de0565b5b021790555090505080600301600e60009054906101000a900460ff1690806001815401808255809150506001900390600052602060002090602091828204019190069091909190916101000a81548160ff021916908360ff1602179055507f35890c53b6cca05baa454b4e6ef314f4eaed4846617b8f00664c5a62501d9b7a828433604051611cae93929190614d66565b60405180910390a150505050565b600e60009054906101000a900460ff1681565b611ce1611cda6127a8565b8383612d78565b5050565b6000600b84604051611cf79190614bb0565b908152602001604051809103902090506000600d84604051611d199190614bb0565b908152602001604051809103902090506000600f60008560ff1660ff168152602001908152602001600020905060008160030160009054906101000a900460ff1690508260010160009054906101000a900473ffffffffffffffffffffffffffffffffffffffff1673ffffffffffffffffffffffffffffffffffffffff166108fc8260ff169081150290604051600060405180830381858888f19350505050158015611dc9573d6000803e3d6000fd5b5086826001019081611ddb9190614a29565b5060008260050160006101000a81548160ff02191690836001811115611e0457611e03613de0565b5b0217905550818460050160008760ff1660ff1681526020019081526020016000206000820160009054906101000a900460ff168160000160006101000a81548160ff021916908360ff16021790555060018201816001019081611e679190614dba565b5060028201816002019081611e7c9190614dba565b506003820160009054906101000a900460ff168160030160006101000a81548160ff021916908360ff16021790555060048201816004019081611ebf9190614dba565b506005820160009054906101000a900460ff168160050160006101000a81548160ff02191690836001811115611ef857611ef7613de0565b5b021790555090505050505050505050565b60096020528060005260406000206000915090508060000160009054906101000a900460ff1690806001018054611f3f9061463e565b80601f0160208091040260200160405190810160405280929190818152602001828054611f6b9061463e565b8015611fb85780601f10611f8d57610100808354040283529160200191611fb8565b820191906000526020600020905b815481529060010190602001808311611f9b57829003601f168201915b505050505090806002018054611fcd9061463e565b80601f0160208091040260200160405190810160405280929190818152602001828054611ff99061463e565b80156120465780601f1061201b57610100808354040283529160200191612046565b820191906000526020600020905b81548152906001019060200180831161202957829003601f168201915b5050505050905083565b61206161205b6127a8565b83612869565b6120a0576040517f08c379a000000000000000000000000000000000000000000000000000000000815260040161209790614805565b60405180910390fd5b6120ac84848484612ee4565b50505050565b6000600b846040516120c49190614bb0565b908152602001604051809103902090506000600860008560ff1660ff1681526020019081526020016000209050828160020160008282546121059190614ea2565b925050819055503373ffffffffffffffffffffffffffffffffffffffff166108fc8260040154856121369190614ed6565b9081150290604051600060405180830381858888f19350505050158015612161573d6000803e3d6000fd5b50828260010160008282546121769190614ea2565b92505081905550600061218c8360010154612f40565b905060008160ff16146121eb576121a281612f82565b50826006018190806001815401808255809150506001900390600052602060002090602091828204019190069091909190916101000a81548160ff021916908360ff1602179055505b505050505050565b60606121fe8261275d565b600060066000848152602001908152602001600020805461221e9061463e565b80601f016020809104026020016040519081016040528092919081815260200182805461224a9061463e565b80156122975780601f1061226c57610100808354040283529160200191612297565b820191906000526020600020905b81548152906001019060200180831161227a57829003601f168201915b5050505050905060006122a8613100565b905060008151036122bd578192505050612300565b6000825111156122f25780826040516020016122da929190614f18565b60405160208183030381529060405292505050612300565b6122fb84613117565b925050505b919050565b600760159054906101000a900460ff1681565b600c600081819054906101000a900460ff168092919061233790614854565b91906101000a81548160ff021916908360ff16021790555050600d816040516123609190614bb0565b908152602001604051809103902060010160159054906101000a900460ff16156123bf576040517f08c379a00000000000000000000000000000000000000000000000000000000081526004016123b690614f88565b60405180910390fd5b6000600d826040516123d19190614bb0565b90815260200160405180910390209050818160000190816123f29190614a29565b50338160010160006101000a81548173ffffffffffffffffffffffffffffffffffffffff021916908373ffffffffffffffffffffffffffffffffffffffff16021790555060018160010160156101000a81548160ff0219169083151502179055505050565b6000600560008473ffffffffffffffffffffffffffffffffffffffff1673ffffffffffffffffffffffffffffffffffffffff16815260200190815260200160002060008373ffffffffffffffffffffffffffffffffffffffff1673ffffffffffffffffffffffffffffffffffffffff16815260200190815260200160002060009054906101000a900460ff16905092915050565b6124f3612bf7565b600073ffffffffffffffffffffffffffffffffffffffff168173ffffffffffffffffffffffffffffffffffffffff1603612562576040517f08c379a00000000000000000000000000000000000000000000000000000000081526004016125599061501a565b60405180910390fd5b61256b81612cb2565b50565b600860008360ff1660ff16815260200190815260200160002060040154816125969190614ed6565b3410156125d8576040517f08c379a00000000000000000000000000000000000000000000000000000000081526004016125cf90615086565b60405180910390fd5b6000600d846040516125ea9190614bb0565b9081526020016040518091039020905081600860008560ff1660ff168152602001908152602001600020600201600082825461262691906150a6565b92505081905550818160020160008560ff1660ff168152602001908152602001600020600201600082825461265b9190614ea2565b9250508190555050505050565b600c60009054906101000a900460ff1681565b60007f80ac58cd000000000000000000000000000000000000000000000000000000007bffffffffffffffffffffffffffffffffffffffffffffffffffffffff1916827bffffffffffffffffffffffffffffffffffffffffffffffffffffffff1916148061274657507f5b5e139f000000000000000000000000000000000000000000000000000000007bffffffffffffffffffffffffffffffffffffffffffffffffffffffff1916827bffffffffffffffffffffffffffffffffffffffffffffffffffffffff1916145b8061275657506127558261317f565b5b9050919050565b612766816131e9565b6127a5576040517f08c379a000000000000000000000000000000000000000000000000000000000815260040161279c90614c7f565b60405180910390fd5b50565b600033905090565b816004600083815260200190815260200160002060006101000a81548173ffffffffffffffffffffffffffffffffffffffff021916908373ffffffffffffffffffffffffffffffffffffffff160217905550808273ffffffffffffffffffffffffffffffffffffffff166128238361143c565b73ffffffffffffffffffffffffffffffffffffffff167f8c5be1e5ebec7d5bd14f71427d1e84f3dd0314c0f7b2291e5b200ac8c7c3b92560405160405180910390a45050565b6000806128758361143c565b90508073ffffffffffffffffffffffffffffffffffffffff168473ffffffffffffffffffffffffffffffffffffffff1614806128b757506128b68185612457565b5b806128f557508373ffffffffffffffffffffffffffffffffffffffff166128dd84610b3a565b73ffffffffffffffffffffffffffffffffffffffff16145b91505092915050565b8273ffffffffffffffffffffffffffffffffffffffff1661291e8261143c565b73ffffffffffffffffffffffffffffffffffffffff1614612974576040517f08c379a000000000000000000000000000000000000000000000000000000000815260040161296b9061514c565b60405180910390fd5b600073ffffffffffffffffffffffffffffffffffffffff168273ffffffffffffffffffffffffffffffffffffffff16036129e3576040517f08c379a00000000000000000000000000000000000000000000000000000000081526004016129da906151de565b60405180910390fd5b6129f0838383600161322a565b8273ffffffffffffffffffffffffffffffffffffffff16612a108261143c565b73ffffffffffffffffffffffffffffffffffffffff1614612a66576040517f08c379a0000000000000000000000000000000000000000000000000000000008152600401612a5d9061514c565b60405180910390fd5b6004600082815260200190815260200160002060006101000a81549073ffffffffffffffffffffffffffffffffffffffff02191690556001600360008573ffffffffffffffffffffffffffffffffffffffff1673ffffffffffffffffffffffffffffffffffffffff168152602001908152602001600020600082825403925050819055506001600360008473ffffffffffffffffffffffffffffffffffffffff1673ffffffffffffffffffffffffffffffffffffffff16815260200190815260200160002060008282540192505081905550816002600083815260200190815260200160002060006101000a81548173ffffffffffffffffffffffffffffffffffffffff021916908373ffffffffffffffffffffffffffffffffffffffff160217905550808273ffffffffffffffffffffffffffffffffffffffff168473ffffffffffffffffffffffffffffffffffffffff167fddf252ad1be2c89b69c2b068fc378daa952ba7f163c4a11628f55a4df523b3ef60405160405180910390a4612bf28383836001613230565b505050565b612bff6127a8565b73ffffffffffffffffffffffffffffffffffffffff16612c1d611982565b73ffffffffffffffffffffffffffffffffffffffff1614612c73576040517f08c379a0000000000000000000000000000000000000000000000000000000008152600401612c6a9061524a565b60405180910390fd5b565b60006002600083815260200190815260200160002060009054906101000a900473ffffffffffffffffffffffffffffffffffffffff169050919050565b6000600760009054906101000a900473ffffffffffffffffffffffffffffffffffffffff16905081600760006101000a81548173ffffffffffffffffffffffffffffffffffffffff021916908373ffffffffffffffffffffffffffffffffffffffff1602179055508173ffffffffffffffffffffffffffffffffffffffff168173ffffffffffffffffffffffffffffffffffffffff167f8be0079c531659141344cd1fd0a4f28419497f9722a3daafe3b4186f6b6457e060405160405180910390a35050565b8173ffffffffffffffffffffffffffffffffffffffff168373ffffffffffffffffffffffffffffffffffffffff1603612de6576040517f08c379a0000000000000000000000000000000000000000000000000000000008152600401612ddd906152b6565b60405180910390fd5b80600560008573ffffffffffffffffffffffffffffffffffffffff1673ffffffffffffffffffffffffffffffffffffffff16815260200190815260200160002060008473ffffffffffffffffffffffffffffffffffffffff1673ffffffffffffffffffffffffffffffffffffffff16815260200190815260200160002060006101000a81548160ff0219169083151502179055508173ffffffffffffffffffffffffffffffffffffffff168373ffffffffffffffffffffffffffffffffffffffff167f17307eab39ab6107e8899845ad3d59bd9653f200f220920489ca2b5937696c3183604051612ed791906139a8565b60405180910390a3505050565b612eef8484846128fe565b612efb84848484613236565b612f3a576040517f08c379a0000000000000000000000000000000000000000000000000000000008152600401612f3190615348565b60405180910390fd5b50505050565b60006014821115612f545760019050612f7d565b600a821115612f665760029050612f7d565b6005821115612f785760039050612f7d565b600090505b919050565b60006007601481819054906101000a900460ff1680929190612fa390614854565b91906101000a81548160ff021916908360ff160217905550506000600960008460ff1660ff1681526020019081526020016000209050612ff533600760149054906101000a900460ff1660ff166133bd565b61309d600760149054906101000a900460ff1660ff1682600201805461301a9061463e565b80601f01602080910402602001604051908101604052809291908181526020018280546130469061463e565b80156130935780601f1061306857610100808354040283529160200191613093565b820191906000526020600020905b81548152906001019060200180831161307657829003601f168201915b50505050506135da565b7faf4a3a88f2c27afaefd32fc63aaa9cd533dd7a53275e0e959cca41da9d929cbe600760149054906101000a900460ff16826002016040516130e09291906153ec565b60405180910390a1600760149054906101000a900460ff16915050919050565b606060405180602001604052806000815250905090565b60606131228261275d565b600061312c613100565b9050600081511161314c5760405180602001604052806000815250613177565b806131568461367e565b604051602001613167929190614f18565b6040516020818303038152906040525b915050919050565b60007f01ffc9a7000000000000000000000000000000000000000000000000000000007bffffffffffffffffffffffffffffffffffffffffffffffffffffffff1916827bffffffffffffffffffffffffffffffffffffffffffffffffffffffff1916149050919050565b60008073ffffffffffffffffffffffffffffffffffffffff1661320b83612c75565b73ffffffffffffffffffffffffffffffffffffffff1614159050919050565b50505050565b50505050565b60006132578473ffffffffffffffffffffffffffffffffffffffff1661374c565b156133b0578373ffffffffffffffffffffffffffffffffffffffff1663150b7a026132806127a8565b8786866040518563ffffffff1660e01b81526004016132a29493929190615471565b6020604051808303816000875af19250505080156132de57506040513d601f19601f820116820180604052508101906132db91906154d2565b60015b613360573d806000811461330e576040519150601f19603f3d011682016040523d82523d6000602084013e613313565b606091505b506000815103613358576040517f08c379a000000000000000000000000000000000000000000000000000000000815260040161334f90615348565b60405180910390fd5b805181602001fd5b63150b7a0260e01b7bffffffffffffffffffffffffffffffffffffffffffffffffffffffff1916817bffffffffffffffffffffffffffffffffffffffffffffffffffffffff1916149150506133b5565b600190505b949350505050565b600073ffffffffffffffffffffffffffffffffffffffff168273ffffffffffffffffffffffffffffffffffffffff160361342c576040517f08c379a00000000000000000000000000000000000000000000000000000000081526004016134239061554b565b60405180910390fd5b613435816131e9565b15613475576040517f08c379a000000000000000000000000000000000000000000000000000000000815260040161346c906155b7565b60405180910390fd5b61348360008383600161322a565b61348c816131e9565b156134cc576040517f08c379a00000000000000000000000000000000000000000000000000000000081526004016134c3906155b7565b60405180910390fd5b6001600360008473ffffffffffffffffffffffffffffffffffffffff1673ffffffffffffffffffffffffffffffffffffffff16815260200190815260200160002060008282540192505081905550816002600083815260200190815260200160002060006101000a81548173ffffffffffffffffffffffffffffffffffffffff021916908373ffffffffffffffffffffffffffffffffffffffff160217905550808273ffffffffffffffffffffffffffffffffffffffff16600073ffffffffffffffffffffffffffffffffffffffff167fddf252ad1be2c89b69c2b068fc378daa952ba7f163c4a11628f55a4df523b3ef60405160405180910390a46135d6600083836001613230565b5050565b6135e3826131e9565b613622576040517f08c379a000000000000000000000000000000000000000000000000000000000815260040161361990615649565b60405180910390fd5b806006600084815260200190815260200160002090816136429190614a29565b507ff8e1a15aba9398e019f0b49df1a4fde98ee17ae345cb5f6b5e2c27f5033e8ce782604051613672919061407a565b60405180910390a15050565b60606000600161368d8461376f565b01905060008167ffffffffffffffff8111156136ac576136ab613a7f565b5b6040519080825280601f01601f1916602001820160405280156136de5781602001600182028036833780820191505090505b509050600082602001820190505b600115613741578080600190039150507f3031323334353637383961626364656600000000000000000000000000000000600a86061a8153600a858161373557613734615669565b5b049450600085036136ec575b819350505050919050565b6000808273ffffffffffffffffffffffffffffffffffffffff163b119050919050565b600080600090507a184f03e93ff9f4daa797ed6e38ed64bf6a1f01000000000000000083106137cd577a184f03e93ff9f4daa797ed6e38ed64bf6a1f01000000000000000083816137c3576137c2615669565b5b0492506040810190505b6d04ee2d6d415b85acef8100000000831061380a576d04ee2d6d415b85acef81000000008381613800576137ff615669565b5b0492506020810190505b662386f26fc10000831061383957662386f26fc10000838161382f5761382e615669565b5b0492506010810190505b6305f5e1008310613862576305f5e100838161385857613857615669565b5b0492506008810190505b612710831061388757612710838161387d5761387c615669565b5b0492506004810190505b606483106138aa57606483816138a05761389f615669565b5b0492506002810190505b600a83106138b9576001810190505b80915050919050565b6040518060a00160405280600060ff168152602001606081526020016000815260200160008152602001600081525090565b6000604051905090565b600080fd5b600080fd5b60007fffffffff0000000000000000000000000000000000000000000000000000000082169050919050565b61393d81613908565b811461394857600080fd5b50565b60008135905061395a81613934565b92915050565b600060208284031215613976576139756138fe565b5b60006139848482850161394b565b91505092915050565b60008115159050919050565b6139a28161398d565b82525050565b60006020820190506139bd6000830184613999565b92915050565b600081519050919050565b600082825260208201905092915050565b60005b838110156139fd5780820151818401526020810190506139e2565b60008484015250505050565b6000601f19601f8301169050919050565b6000613a25826139c3565b613a2f81856139ce565b9350613a3f8185602086016139df565b613a4881613a09565b840191505092915050565b60006020820190508181036000830152613a6d8184613a1a565b905092915050565b600080fd5b600080fd5b7f4e487b7100000000000000000000000000000000000000000000000000000000600052604160045260246000fd5b613ab782613a09565b810181811067ffffffffffffffff82111715613ad657613ad5613a7f565b5b80604052505050565b6000613ae96138f4565b9050613af58282613aae565b919050565b600067ffffffffffffffff821115613b1557613b14613a7f565b5b613b1e82613a09565b9050602081019050919050565b82818337600083830152505050565b6000613b4d613b4884613afa565b613adf565b905082815260208101848484011115613b6957613b68613a7a565b5b613b74848285613b2b565b509392505050565b600082601f830112613b9157613b90613a75565b5b8135613ba1848260208601613b3a565b91505092915050565b600060208284031215613bc057613bbf6138fe565b5b600082013567ffffffffffffffff811115613bde57613bdd613903565b5b613bea84828501613b7c565b91505092915050565b6000819050919050565b613c0681613bf3565b82525050565b60006060820190508181036000830152613c268186613a1a565b9050613c356020830185613bfd565b613c426040830184613999565b949350505050565b613c5381613bf3565b8114613c5e57600080fd5b50565b600081359050613c7081613c4a565b92915050565b600060208284031215613c8c57613c8b6138fe565b5b6000613c9a84828501613c61565b91505092915050565b600073ffffffffffffffffffffffffffffffffffffffff82169050919050565b6000613cce82613ca3565b9050919050565b613cde81613cc3565b82525050565b6000602082019050613cf96000830184613cd5565b92915050565b613d0881613cc3565b8114613d1357600080fd5b50565b600081359050613d2581613cff565b92915050565b60008060408385031215613d4257613d416138fe565b5b6000613d5085828601613d16565b9250506020613d6185828601613c61565b9150509250929050565b600060ff82169050919050565b613d8181613d6b565b8114613d8c57600080fd5b50565b600081359050613d9e81613d78565b92915050565b600060208284031215613dba57613db96138fe565b5b6000613dc884828501613d8f565b91505092915050565b613dda81613d6b565b82525050565b7f4e487b7100000000000000000000000000000000000000000000000000000000600052602160045260246000fd5b60028110613e2057613e1f613de0565b5b50565b6000819050613e3182613e0f565b919050565b6000613e4182613e23565b9050919050565b613e5181613e36565b82525050565b600060c082019050613e6c6000830189613dd1565b8181036020830152613e7e8188613a1a565b90508181036040830152613e928187613a1a565b9050613ea16060830186613dd1565b8181036080830152613eb38185613a1a565b9050613ec260a0830184613e48565b979650505050505050565b600080600060608486031215613ee657613ee56138fe565b5b6000613ef486828701613d16565b9350506020613f0586828701613d16565b9250506040613f1686828701613c61565b9150509250925092565b600060a082019050613f356000830188613dd1565b8181036020830152613f478187613a1a565b9050613f566040830186613bfd565b613f636060830185613bfd565b613f706080830184613bfd565b9695505050505050565b613f8381613d6b565b82525050565b600082825260208201905092915050565b6000613fa5826139c3565b613faf8185613f89565b9350613fbf8185602086016139df565b613fc881613a09565b840191505092915050565b613fdc81613bf3565b82525050565b600060a083016000830151613ffa6000860182613f7a565b50602083015184820360208601526140128282613f9a565b91505060408301516140276040860182613fd3565b50606083015161403a6060860182613fd3565b50608083015161404d6080860182613fd3565b508091505092915050565b600060208201905081810360008301526140728184613fe2565b905092915050565b600060208201905061408f6000830184613bfd565b92915050565b60006020820190506140aa6000830184613dd1565b92915050565b600080604083850312156140c7576140c66138fe565b5b600083013567ffffffffffffffff8111156140e5576140e4613903565b5b6140f185828601613b7c565b925050602061410285828601613c61565b9150509250929050565b600060c08201905081810360008301526141268189613a1a565b90506141356020830188613cd5565b6141426040830187613dd1565b61414f6060830186613999565b61415c6080830185613dd1565b61416960a0830184613dd1565b979650505050505050565b6000806040838503121561418b5761418a6138fe565b5b600083013567ffffffffffffffff8111156141a9576141a8613903565b5b6141b585828601613b7c565b92505060206141c685828601613d8f565b9150509250929050565b600080604083850312156141e7576141e66138fe565b5b600083013567ffffffffffffffff81111561420557614204613903565b5b61421185828601613b7c565b925050602083013567ffffffffffffffff81111561423257614231613903565b5b61423e85828601613b7c565b9150509250929050565b60006020828403121561425e5761425d6138fe565b5b600061426c84828501613d16565b91505092915050565b60008060006060848603121561428e5761428d6138fe565b5b600084013567ffffffffffffffff8111156142ac576142ab613903565b5b6142b886828701613b7c565b93505060206142c986828701613d8f565b925050604084013567ffffffffffffffff8111156142ea576142e9613903565b5b6142f686828701613b7c565b9150509250925092565b6143098161398d565b811461431457600080fd5b50565b60008135905061432681614300565b92915050565b60008060408385031215614343576143426138fe565b5b600061435185828601613d16565b925050602061436285828601614317565b9150509250929050565b600080600060608486031215614385576143846138fe565b5b600084013567ffffffffffffffff8111156143a3576143a2613903565b5b6143af86828701613b7c565b935050602084013567ffffffffffffffff8111156143d0576143cf613903565b5b6143dc86828701613b7c565b92505060406143ed86828701613d8f565b9150509250925092565b600060608201905061440c6000830186613dd1565b818103602083015261441e8185613a1a565b905081810360408301526144328184613a1a565b9050949350505050565b600067ffffffffffffffff82111561445757614456613a7f565b5b61446082613a09565b9050602081019050919050565b600061448061447b8461443c565b613adf565b90508281526020810184848401111561449c5761449b613a7a565b5b6144a7848285613b2b565b509392505050565b600082601f8301126144c4576144c3613a75565b5b81356144d484826020860161446d565b91505092915050565b600080600080608085870312156144f7576144f66138fe565b5b600061450587828801613d16565b945050602061451687828801613d16565b935050604061452787828801613c61565b925050606085013567ffffffffffffffff81111561454857614547613903565b5b614554878288016144af565b91505092959194509250565b600080600060608486031215614579576145786138fe565b5b600084013567ffffffffffffffff81111561459757614596613903565b5b6145a386828701613b7c565b93505060206145b486828701613d8f565b92505060406145c586828701613c61565b9150509250925092565b600080604083850312156145e6576145e56138fe565b5b60006145f485828601613d16565b925050602061460585828601613d16565b9150509250929050565b7f4e487b7100000000000000000000000000000000000000000000000000000000600052602260045260246000fd5b6000600282049050600182168061465657607f821691505b6020821081036146695761466861460f565b5b50919050565b7f4552433732313a20617070726f76616c20746f2063757272656e74206f776e6560008201527f7200000000000000000000000000000000000000000000000000000000000000602082015250565b60006146cb6021836139ce565b91506146d68261466f565b604082019050919050565b600060208201905081810360008301526146fa816146be565b9050919050565b7f4552433732313a20617070726f76652063616c6c6572206973206e6f7420746f60008201527f6b656e206f776e6572206f7220617070726f76656420666f7220616c6c000000602082015250565b600061475d603d836139ce565b915061476882614701565b604082019050919050565b6000602082019050818103600083015261478c81614750565b9050919050565b7f4552433732313a2063616c6c6572206973206e6f7420746f6b656e206f776e6560008201527f72206f7220617070726f76656400000000000000000000000000000000000000602082015250565b60006147ef602d836139ce565b91506147fa82614793565b604082019050919050565b6000602082019050818103600083015261481e816147e2565b9050919050565b7f4e487b7100000000000000000000000000000000000000000000000000000000600052601160045260246000fd5b600061485f82613d6b565b915060ff820361487257614871614825565b5b600182019050919050565b60008190508160005260206000209050919050565b60006020601f8301049050919050565b600082821b905092915050565b6000600883026148df7fffffffffffffffffffffffffffffffffffffffffffffffffffffffffffffffff826148a2565b6148e986836148a2565b95508019841693508086168417925050509392505050565b6000819050919050565b600061492661492161491c84613bf3565b614901565b613bf3565b9050919050565b6000819050919050565b6149408361490b565b61495461494c8261492d565b8484546148af565b825550505050565b600090565b61496961495c565b614974818484614937565b505050565b5b818110156149985761498d600082614961565b60018101905061497a565b5050565b601f8211156149dd576149ae8161487d565b6149b784614892565b810160208510156149c6578190505b6149da6149d285614892565b830182614979565b50505b505050565b600082821c905092915050565b6000614a00600019846008026149e2565b1980831691505092915050565b6000614a1983836149ef565b9150826002028217905092915050565b614a32826139c3565b67ffffffffffffffff811115614a4b57614a4a613a7f565b5b614a55825461463e565b614a6082828561499c565b600060209050601f831160018114614a935760008415614a81578287015190505b614a8b8582614a0d565b865550614af3565b601f198416614aa18661487d565b60005b82811015614ac957848901518255600182019150602085019450602081019050614aa4565b86831015614ae65784890151614ae2601f8916826149ef565b8355505b6001600288020188555050505b505050505050565b6000819050919050565b6000614b20614b1b614b1684614afb565b614901565b613d6b565b9050919050565b614b3081614b05565b82525050565b6000606082019050614b4b6000830186613dd1565b8181036020830152614b5d8185613a1a565b9050614b6c6040830184614b27565b949350505050565b600081905092915050565b6000614b8a826139c3565b614b948185614b74565b9350614ba48185602086016139df565b80840191505092915050565b6000614bbc8284614b7f565b915081905092915050565b7f5573657220616c72656164792045786973747300000000000000000000000000600082015250565b6000614bfd6013836139ce565b9150614c0882614bc7565b602082019050919050565b60006020820190508181036000830152614c2c81614bf0565b9050919050565b7f4552433732313a20696e76616c696420746f6b656e2049440000000000000000600082015250565b6000614c696018836139ce565b9150614c7482614c33565b602082019050919050565b60006020820190508181036000830152614c9881614c5c565b9050919050565b7f4552433732313a2061646472657373207a65726f206973206e6f74206120766160008201527f6c6964206f776e65720000000000000000000000000000000000000000000000602082015250565b6000614cfb6029836139ce565b9150614d0682614c9f565b604082019050919050565b60006020820190508181036000830152614d2a81614cee565b9050919050565b6000614d3c82613d6b565b9150614d4783613d6b565b9250828201905060ff811115614d6057614d5f614825565b5b92915050565b60006060820190508181036000830152614d808186613a1a565b9050614d8f6020830185613dd1565b614d9c6040830184613cd5565b949350505050565b600081549050614db38161463e565b9050919050565b818103614dc8575050614ea0565b614dd182614da4565b67ffffffffffffffff811115614dea57614de9613a7f565b5b614df4825461463e565b614dff82828561499c565b6000601f831160018114614e2e5760008415614e1c578287015490505b614e268582614a0d565b865550614e99565b601f198416614e3c8761487d565b9650614e478661487d565b60005b82811015614e6f57848901548255600182019150600185019450602081019050614e4a565b86831015614e8c5784890154614e88601f8916826149ef565b8355505b6001600288020188555050505b5050505050505b565b6000614ead82613bf3565b9150614eb883613bf3565b9250828201905080821115614ed057614ecf614825565b5b92915050565b6000614ee182613bf3565b9150614eec83613bf3565b9250828202614efa81613bf3565b91508282048414831517614f1157614f10614825565b5b5092915050565b6000614f248285614b7f565b9150614f308284614b7f565b91508190509392505050565b7f436f6d6d756e69747920616c7265616479204578697374730000000000000000600082015250565b6000614f726018836139ce565b9150614f7d82614f3c565b602082019050919050565b60006020820190508181036000830152614fa181614f65565b9050919050565b7f4f776e61626c653a206e6577206f776e657220697320746865207a65726f206160008201527f6464726573730000000000000000000000000000000000000000000000000000602082015250565b60006150046026836139ce565b915061500f82614fa8565b604082019050919050565b6000602082019050818103600083015261503381614ff7565b9050919050565b7f50726f766964652073756666696369656e742066656573000000000000000000600082015250565b60006150706017836139ce565b915061507b8261503a565b602082019050919050565b6000602082019050818103600083015261509f81615063565b9050919050565b60006150b182613bf3565b91506150bc83613bf3565b92508282039050818111156150d4576150d3614825565b5b92915050565b7f4552433732313a207472616e736665722066726f6d20696e636f72726563742060008201527f6f776e6572000000000000000000000000000000000000000000000000000000602082015250565b60006151366025836139ce565b9150615141826150da565b604082019050919050565b6000602082019050818103600083015261516581615129565b9050919050565b7f4552433732313a207472616e7366657220746f20746865207a65726f2061646460008201527f7265737300000000000000000000000000000000000000000000000000000000602082015250565b60006151c86024836139ce565b91506151d38261516c565b604082019050919050565b600060208201905081810360008301526151f7816151bb565b9050919050565b7f4f776e61626c653a2063616c6c6572206973206e6f7420746865206f776e6572600082015250565b60006152346020836139ce565b915061523f826151fe565b602082019050919050565b6000602082019050818103600083015261526381615227565b9050919050565b7f4552433732313a20617070726f766520746f2063616c6c657200000000000000600082015250565b60006152a06019836139ce565b91506152ab8261526a565b602082019050919050565b600060208201905081810360008301526152cf81615293565b9050919050565b7f4552433732313a207472616e7366657220746f206e6f6e20455243373231526560008201527f63656976657220696d706c656d656e7465720000000000000000000000000000602082015250565b60006153326032836139ce565b915061533d826152d6565b604082019050919050565b6000602082019050818103600083015261536181615325565b9050919050565b600081546153758161463e565b61537f81866139ce565b9450600182166000811461539a57600181146153b0576153e3565b60ff1983168652811515602002860193506153e3565b6153b98561487d565b60005b838110156153db578154818901526001820191506020810190506153bc565b808801955050505b50505092915050565b60006040820190506154016000830185613dd1565b81810360208301526154138184615368565b90509392505050565b600081519050919050565b600082825260208201905092915050565b60006154438261541c565b61544d8185615427565b935061545d8185602086016139df565b61546681613a09565b840191505092915050565b60006080820190506154866000830187613cd5565b6154936020830186613cd5565b6154a06040830185613bfd565b81810360608301526154b28184615438565b905095945050505050565b6000815190506154cc81613934565b92915050565b6000602082840312156154e8576154e76138fe565b5b60006154f6848285016154bd565b91505092915050565b7f4552433732313a206d696e7420746f20746865207a65726f2061646472657373600082015250565b60006155356020836139ce565b9150615540826154ff565b602082019050919050565b6000602082019050818103600083015261556481615528565b9050919050565b7f4552433732313a20746f6b656e20616c7265616479206d696e74656400000000600082015250565b60006155a1601c836139ce565b91506155ac8261556b565b602082019050919050565b600060208201905081810360008301526155d081615594565b9050919050565b7f45524337323155524953746f726167653a2055524920736574206f66206e6f6e60008201527f6578697374656e7420746f6b656e000000000000000000000000000000000000602082015250565b6000615633602e836139ce565b915061563e826155d7565b604082019050919050565b6000602082019050818103600083015261566281615626565b9050919050565b7f4e487b7100000000000000000000000000000000000000000000000000000000600052601260045260246000fdfea26469706673582212207a3a5384a69ef8e488890eaf79958d8d7d3e27ef88911a4b88af9f21eecb295364736f6c63430008110033","opcodes":"PUSH1 0x80 PUSH1 0x40 MSTORE PUSH1 0x40 MLOAD DUP1 PUSH1 0x40 ADD PUSH1 0x40 MSTORE DUP1 PUSH1 0x4 DUP2 MSTORE PUSH1 0x20 ADD PUSH32 0x476F6C6400000000000000000000000000000000000000000000000000000000 DUP2 MSTORE POP PUSH1 0x40 MLOAD DUP1 PUSH1 0x40 ADD PUSH1 0x40 MSTORE DUP1 PUSH1 0x3 DUP2 MSTORE PUSH1 0x20 ADD PUSH32 0x474C440000000000000000000000000000000000000000000000000000000000 DUP2 MSTORE POP DUP2 PUSH1 0x0 SWAP1 DUP2 PUSH3 0x81 SWAP2 SWAP1 PUSH3 0x404 JUMP JUMPDEST POP DUP1 PUSH1 0x1 SWAP1 DUP2 PUSH3 0x93 SWAP2 SWAP1 PUSH3 0x404 JUMP JUMPDEST POP POP POP PUSH3 0xB6 PUSH3 0xAA PUSH3 0xBC PUSH1 0x20 SHL PUSH1 0x20 SHR JUMP JUMPDEST PUSH3 0xC4 PUSH1 0x20 SHL PUSH1 0x20 SHR JUMP JUMPDEST PUSH3 0x4EB JUMP JUMPDEST PUSH1 0x0 CALLER SWAP1 POP SWAP1 JUMP JUMPDEST PUSH1 0x0 PUSH1 0x7 PUSH1 0x0 SWAP1 SLOAD SWAP1 PUSH2 0x100 EXP SWAP1 DIV PUSH20 0xFFFFFFFFFFFFFFFFFFFFFFFFFFFFFFFFFFFFFFFF AND SWAP1 POP DUP2 PUSH1 0x7 PUSH1 0x0 PUSH2 0x100 EXP DUP2 SLOAD DUP2 PUSH20 0xFFFFFFFFFFFFFFFFFFFFFFFFFFFFFFFFFFFFFFFF MUL NOT AND SWAP1 DUP4 PUSH20 0xFFFFFFFFFFFFFFFFFFFFFFFFFFFFFFFFFFFFFFFF AND MUL OR SWAP1 SSTORE POP DUP2 PUSH20 0xFFFFFFFFFFFFFFFFFFFFFFFFFFFFFFFFFFFFFFFF AND DUP2 PUSH20 0xFFFFFFFFFFFFFFFFFFFFFFFFFFFFFFFFFFFFFFFF AND PUSH32 0x8BE0079C531659141344CD1FD0A4F28419497F9722A3DAAFE3B4186F6B6457E0 PUSH1 0x40 MLOAD PUSH1 0x40 MLOAD DUP1 SWAP2 SUB SWAP1 LOG3 POP POP JUMP JUMPDEST PUSH1 0x0 DUP2 MLOAD SWAP1 POP SWAP2 SWAP1 POP JUMP JUMPDEST PUSH32 0x4E487B7100000000000000000000000000000000000000000000000000000000 PUSH1 0x0 MSTORE PUSH1 0x41 PUSH1 0x4 MSTORE PUSH1 0x24 PUSH1 0x0 REVERT JUMPDEST PUSH32 0x4E487B7100000000000000000000000000000000000000000000000000000000 PUSH1 0x0 MSTORE PUSH1 0x22 PUSH1 0x4 MSTORE PUSH1 0x24 PUSH1 0x0 REVERT JUMPDEST PUSH1 0x0 PUSH1 0x2 DUP3 DIV SWAP1 POP PUSH1 0x1 DUP3 AND DUP1 PUSH3 0x20C JUMPI PUSH1 0x7F DUP3 AND SWAP2 POP JUMPDEST PUSH1 0x20 DUP3 LT DUP2 SUB PUSH3 0x222 JUMPI PUSH3 0x221 PUSH3 0x1C4 JUMP JUMPDEST JUMPDEST POP SWAP2 SWAP1 POP JUMP JUMPDEST PUSH1 0x0 DUP2 SWAP1 POP DUP2 PUSH1 0x0 MSTORE PUSH1 0x20 PUSH1 0x0 KECCAK256 SWAP1 POP SWAP2 SWAP1 POP JUMP JUMPDEST PUSH1 0x0 PUSH1 0x20 PUSH1 0x1F DUP4 ADD DIV SWAP1 POP SWAP2 SWAP1 POP JUMP JUMPDEST PUSH1 0x0 DUP3 DUP3 SHL SWAP1 POP SWAP3 SWAP2 POP POP JUMP JUMPDEST PUSH1 0x0 PUSH1 0x8 DUP4 MUL PUSH3 0x28C PUSH32 0xFFFFFFFFFFFFFFFFFFFFFFFFFFFFFFFFFFFFFFFFFFFFFFFFFFFFFFFFFFFFFFFF DUP3 PUSH3 0x24D JUMP JUMPDEST PUSH3 0x298 DUP7 DUP4 PUSH3 0x24D JUMP JUMPDEST SWAP6 POP DUP1 NOT DUP5 AND SWAP4 POP DUP1 DUP7 AND DUP5 OR SWAP3 POP POP POP SWAP4 SWAP3 POP POP POP JUMP JUMPDEST PUSH1 0x0 DUP2 SWAP1 POP SWAP2 SWAP1 POP JUMP JUMPDEST PUSH1 0x0 DUP2 SWAP1 POP SWAP2 SWAP1 POP JUMP JUMPDEST PUSH1 0x0 PUSH3 0x2E5 PUSH3 0x2DF PUSH3 0x2D9 DUP5 PUSH3 0x2B0 JUMP JUMPDEST PUSH3 0x2BA JUMP JUMPDEST PUSH3 0x2B0 JUMP JUMPDEST SWAP1 POP SWAP2 SWAP1 POP JUMP JUMPDEST PUSH1 0x0 DUP2 SWAP1 POP SWAP2 SWAP1 POP JUMP JUMPDEST PUSH3 0x301 DUP4 PUSH3 0x2C4 JUMP JUMPDEST PUSH3 0x319 PUSH3 0x310 DUP3 PUSH3 0x2EC JUMP JUMPDEST DUP5 DUP5 SLOAD PUSH3 0x25A JUMP JUMPDEST DUP3 SSTORE POP POP POP POP JUMP JUMPDEST PUSH1 0x0 SWAP1 JUMP JUMPDEST PUSH3 0x330 PUSH3 0x321 JUMP JUMPDEST PUSH3 0x33D DUP2 DUP5 DUP5 PUSH3 0x2F6 JUMP JUMPDEST POP POP POP JUMP JUMPDEST JUMPDEST DUP2 DUP2 LT ISZERO PUSH3 0x365 JUMPI PUSH3 0x359 PUSH1 0x0 DUP3 PUSH3 0x326 JUMP JUMPDEST PUSH1 0x1 DUP2 ADD SWAP1 POP PUSH3 0x343 JUMP JUMPDEST POP POP JUMP JUMPDEST PUSH1 0x1F DUP3 GT ISZERO PUSH3 0x3B4 JUMPI PUSH3 0x37E DUP2 PUSH3 0x228 JUMP JUMPDEST PUSH3 0x389 DUP5 PUSH3 0x23D JUMP JUMPDEST DUP2 ADD PUSH1 0x20 DUP6 LT ISZERO PUSH3 0x399 JUMPI DUP2 SWAP1 POP JUMPDEST PUSH3 0x3B1 PUSH3 0x3A8 DUP6 PUSH3 0x23D JUMP JUMPDEST DUP4 ADD DUP3 PUSH3 0x342 JUMP JUMPDEST POP POP JUMPDEST POP POP POP JUMP JUMPDEST PUSH1 0x0 DUP3 DUP3 SHR SWAP1 POP SWAP3 SWAP2 POP POP JUMP JUMPDEST PUSH1 0x0 PUSH3 0x3D9 PUSH1 0x0 NOT DUP5 PUSH1 0x8 MUL PUSH3 0x3B9 JUMP JUMPDEST NOT DUP1 DUP4 AND SWAP2 POP POP SWAP3 SWAP2 POP POP JUMP JUMPDEST PUSH1 0x0 PUSH3 0x3F4 DUP4 DUP4 PUSH3 0x3C6 JUMP JUMPDEST SWAP2 POP DUP3 PUSH1 0x2 MUL DUP3 OR SWAP1 POP SWAP3 SWAP2 POP POP JUMP JUMPDEST PUSH3 0x40F DUP3 PUSH3 0x18A JUMP JUMPDEST PUSH8 0xFFFFFFFFFFFFFFFF DUP2 GT ISZERO PUSH3 0x42B JUMPI PUSH3 0x42A PUSH3 0x195 JUMP JUMPDEST JUMPDEST PUSH3 0x437 DUP3 SLOAD PUSH3 0x1F3 JUMP JUMPDEST PUSH3 0x444 DUP3 DUP3 DUP6 PUSH3 0x369 JUMP JUMPDEST PUSH1 0x0 PUSH1 0x20 SWAP1 POP PUSH1 0x1F DUP4 GT PUSH1 0x1 DUP2 EQ PUSH3 0x47C JUMPI PUSH1 0x0 DUP5 ISZERO PUSH3 0x467 JUMPI DUP3 DUP8 ADD MLOAD SWAP1 POP JUMPDEST PUSH3 0x473 DUP6 DUP3 PUSH3 0x3E6 JUMP JUMPDEST DUP7 SSTORE POP PUSH3 0x4E3 JUMP JUMPDEST PUSH1 0x1F NOT DUP5 AND PUSH3 0x48C DUP7 PUSH3 0x228 JUMP JUMPDEST PUSH1 0x0 JUMPDEST DUP3 DUP2 LT ISZERO PUSH3 0x4B6 JUMPI DUP5 DUP10 ADD MLOAD DUP3 SSTORE PUSH1 0x1 DUP3 ADD SWAP2 POP PUSH1 0x20 DUP6 ADD SWAP5 POP PUSH1 0x20 DUP2 ADD SWAP1 POP PUSH3 0x48F JUMP JUMPDEST DUP7 DUP4 LT ISZERO PUSH3 0x4D6 JUMPI DUP5 DUP10 ADD MLOAD PUSH3 0x4D2 PUSH1 0x1F DUP10 AND DUP3 PUSH3 0x3C6 JUMP JUMPDEST DUP4 SSTORE POP JUMPDEST PUSH1 0x1 PUSH1 0x2 DUP9 MUL ADD DUP9 SSTORE POP POP POP JUMPDEST POP POP POP POP POP POP JUMP JUMPDEST PUSH2 0x56CE DUP1 PUSH3 0x4FB PUSH1 0x0 CODECOPY PUSH1 0x0 RETURN INVALID PUSH1 0x80 PUSH1 0x40 MSTORE PUSH1 0x4 CALLDATASIZE LT PUSH2 0x230 JUMPI PUSH1 0x0 CALLDATALOAD PUSH1 0xE0 SHR DUP1 PUSH4 0x715018A6 GT PUSH2 0x12E JUMPI DUP1 PUSH4 0xB30CFCF0 GT PUSH2 0xAB JUMPI DUP1 PUSH4 0xE6792922 GT PUSH2 0x6F JUMPI DUP1 PUSH4 0xE6792922 EQ PUSH2 0x89C JUMPI DUP1 PUSH4 0xE985E9C5 EQ PUSH2 0x8C5 JUMPI DUP1 PUSH4 0xF2FDE38B EQ PUSH2 0x902 JUMPI DUP1 PUSH4 0xF87BE6BB EQ PUSH2 0x92B JUMPI DUP1 PUSH4 0xFCB4D206 EQ PUSH2 0x947 JUMPI PUSH2 0x230 JUMP JUMPDEST DUP1 PUSH4 0xB30CFCF0 EQ PUSH2 0x7A3 JUMPI DUP1 PUSH4 0xB88D4FDE EQ PUSH2 0x7E2 JUMPI DUP1 PUSH4 0xC14D942B EQ PUSH2 0x80B JUMPI DUP1 PUSH4 0xC87B56DD EQ PUSH2 0x834 JUMPI DUP1 PUSH4 0xE108EC06 EQ PUSH2 0x871 JUMPI PUSH2 0x230 JUMP JUMPDEST DUP1 PUSH4 0x96CC9263 GT PUSH2 0xF2 JUMPI DUP1 PUSH4 0x96CC9263 EQ PUSH2 0x6DF JUMPI DUP1 PUSH4 0x9724128C EQ PUSH2 0x70A JUMPI DUP1 PUSH4 0x9B9D326D EQ PUSH2 0x733 JUMPI DUP1 PUSH4 0xA22CB465 EQ PUSH2 0x75E JUMPI DUP1 PUSH4 0xAC0CF976 EQ PUSH2 0x787 JUMPI PUSH2 0x230 JUMP JUMPDEST DUP1 PUSH4 0x715018A6 EQ PUSH2 0x60A JUMPI DUP1 PUSH4 0x788166E8 EQ PUSH2 0x621 JUMPI DUP1 PUSH4 0x81E901FB EQ PUSH2 0x65E JUMPI DUP1 PUSH4 0x8DA5CB5B EQ PUSH2 0x689 JUMPI DUP1 PUSH4 0x95D89B41 EQ PUSH2 0x6B4 JUMPI PUSH2 0x230 JUMP JUMPDEST DUP1 PUSH4 0x363DE538 GT PUSH2 0x1BC JUMPI DUP1 PUSH4 0x507FFBA5 GT PUSH2 0x180 JUMPI DUP1 PUSH4 0x507FFBA5 EQ PUSH2 0x515 JUMPI DUP1 PUSH4 0x6352211E EQ PUSH2 0x53E JUMPI DUP1 PUSH4 0x64EEFF92 EQ PUSH2 0x57B JUMPI DUP1 PUSH4 0x68613D17 EQ PUSH2 0x5A4 JUMPI DUP1 PUSH4 0x70A08231 EQ PUSH2 0x5CD JUMPI PUSH2 0x230 JUMP JUMPDEST DUP1 PUSH4 0x363DE538 EQ PUSH2 0x42B JUMPI DUP1 PUSH4 0x3BAE2285 EQ PUSH2 0x456 JUMPI DUP1 PUSH4 0x42842E0E EQ PUSH2 0x481 JUMPI DUP1 PUSH4 0x47E59985 EQ PUSH2 0x4AA JUMPI DUP1 PUSH4 0x4CC83E5A EQ PUSH2 0x4D3 JUMPI PUSH2 0x230 JUMP JUMPDEST DUP1 PUSH4 0x95EA7B3 GT PUSH2 0x203 JUMPI DUP1 PUSH4 0x95EA7B3 EQ PUSH2 0x319 JUMPI DUP1 PUSH4 0xFF77F3B EQ PUSH2 0x342 JUMPI DUP1 PUSH4 0x23B872DD EQ PUSH2 0x384 JUMPI DUP1 PUSH4 0x28B5FDF1 EQ PUSH2 0x3AD JUMPI DUP1 PUSH4 0x31151A7C EQ PUSH2 0x3EE JUMPI PUSH2 0x230 JUMP JUMPDEST DUP1 PUSH4 0x1FFC9A7 EQ PUSH2 0x235 JUMPI DUP1 PUSH4 0x6FDDE03 EQ PUSH2 0x272 JUMPI DUP1 PUSH4 0x76FAAB4 EQ PUSH2 0x29D JUMPI DUP1 PUSH4 0x81812FC EQ PUSH2 0x2DC JUMPI JUMPDEST PUSH1 0x0 DUP1 REVERT JUMPDEST CALLVALUE DUP1 ISZERO PUSH2 0x241 JUMPI PUSH1 0x0 DUP1 REVERT JUMPDEST POP PUSH2 0x25C PUSH1 0x4 DUP1 CALLDATASIZE SUB DUP2 ADD SWAP1 PUSH2 0x257 SWAP2 SWAP1 PUSH2 0x3960 JUMP JUMPDEST PUSH2 0x972 JUMP JUMPDEST PUSH1 0x40 MLOAD PUSH2 0x269 SWAP2 SWAP1 PUSH2 0x39A8 JUMP JUMPDEST PUSH1 0x40 MLOAD DUP1 SWAP2 SUB SWAP1 RETURN JUMPDEST CALLVALUE DUP1 ISZERO PUSH2 0x27E JUMPI PUSH1 0x0 DUP1 REVERT JUMPDEST POP PUSH2 0x287 PUSH2 0x9D3 JUMP JUMPDEST PUSH1 0x40 MLOAD PUSH2 0x294 SWAP2 SWAP1 PUSH2 0x3A53 JUMP JUMPDEST PUSH1 0x40 MLOAD DUP1 SWAP2 SUB SWAP1 RETURN JUMPDEST CALLVALUE DUP1 ISZERO PUSH2 0x2A9 JUMPI PUSH1 0x0 DUP1 REVERT JUMPDEST POP PUSH2 0x2C4 PUSH1 0x4 DUP1 CALLDATASIZE SUB DUP2 ADD SWAP1 PUSH2 0x2BF SWAP2 SWAP1 PUSH2 0x3BAA JUMP JUMPDEST PUSH2 0xA65 JUMP JUMPDEST PUSH1 0x40 MLOAD PUSH2 0x2D3 SWAP4 SWAP3 SWAP2 SWAP1 PUSH2 0x3C0C JUMP JUMPDEST PUSH1 0x40 MLOAD DUP1 SWAP2 SUB SWAP1 RETURN JUMPDEST CALLVALUE DUP1 ISZERO PUSH2 0x2E8 JUMPI PUSH1 0x0 DUP1 REVERT JUMPDEST POP PUSH2 0x303 PUSH1 0x4 DUP1 CALLDATASIZE SUB DUP2 ADD SWAP1 PUSH2 0x2FE SWAP2 SWAP1 PUSH2 0x3C76 JUMP JUMPDEST PUSH2 0xB3A JUMP JUMPDEST PUSH1 0x40 MLOAD PUSH2 0x310 SWAP2 SWAP1 PUSH2 0x3CE4 JUMP JUMPDEST PUSH1 0x40 MLOAD DUP1 SWAP2 SUB SWAP1 RETURN JUMPDEST CALLVALUE DUP1 ISZERO PUSH2 0x325 JUMPI PUSH1 0x0 DUP1 REVERT JUMPDEST POP PUSH2 0x340 PUSH1 0x4 DUP1 CALLDATASIZE SUB DUP2 ADD SWAP1 PUSH2 0x33B SWAP2 SWAP1 PUSH2 0x3D2B JUMP JUMPDEST PUSH2 0xB80 JUMP JUMPDEST STOP JUMPDEST CALLVALUE DUP1 ISZERO PUSH2 0x34E JUMPI PUSH1 0x0 DUP1 REVERT JUMPDEST POP PUSH2 0x369 PUSH1 0x4 DUP1 CALLDATASIZE SUB DUP2 ADD SWAP1 PUSH2 0x364 SWAP2 SWAP1 PUSH2 0x3DA4 JUMP JUMPDEST PUSH2 0xC97 JUMP JUMPDEST PUSH1 0x40 MLOAD PUSH2 0x37B SWAP7 SWAP6 SWAP5 SWAP4 SWAP3 SWAP2 SWAP1 PUSH2 0x3E57 JUMP JUMPDEST PUSH1 0x40 MLOAD DUP1 SWAP2 SUB SWAP1 RETURN JUMPDEST CALLVALUE DUP1 ISZERO PUSH2 0x390 JUMPI PUSH1 0x0 DUP1 REVERT JUMPDEST POP PUSH2 0x3AB PUSH1 0x4 DUP1 CALLDATASIZE SUB DUP2 ADD SWAP1 PUSH2 0x3A6 SWAP2 SWAP1 PUSH2 0x3ECD JUMP JUMPDEST PUSH2 0xE92 JUMP JUMPDEST STOP JUMPDEST CALLVALUE DUP1 ISZERO PUSH2 0x3B9 JUMPI PUSH1 0x0 DUP1 REVERT JUMPDEST POP PUSH2 0x3D4 PUSH1 0x4 DUP1 CALLDATASIZE SUB DUP2 ADD SWAP1 PUSH2 0x3CF SWAP2 SWAP1 PUSH2 0x3DA4 JUMP JUMPDEST PUSH2 0xEF2 JUMP JUMPDEST PUSH1 0x40 MLOAD PUSH2 0x3E5 SWAP6 SWAP5 SWAP4 SWAP3 SWAP2 SWAP1 PUSH2 0x3F20 JUMP JUMPDEST PUSH1 0x40 MLOAD DUP1 SWAP2 SUB SWAP1 RETURN JUMPDEST CALLVALUE DUP1 ISZERO PUSH2 0x3FA JUMPI PUSH1 0x0 DUP1 REVERT JUMPDEST POP PUSH2 0x415 PUSH1 0x4 DUP1 CALLDATASIZE SUB DUP2 ADD SWAP1 PUSH2 0x410 SWAP2 SWAP1 PUSH2 0x3DA4 JUMP JUMPDEST PUSH2 0xFBD JUMP JUMPDEST PUSH1 0x40 MLOAD PUSH2 0x422 SWAP2 SWAP1 PUSH2 0x4058 JUMP JUMPDEST PUSH1 0x40 MLOAD DUP1 SWAP2 SUB SWAP1 RETURN JUMPDEST CALLVALUE DUP1 ISZERO PUSH2 0x437 JUMPI PUSH1 0x0 DUP1 REVERT JUMPDEST POP PUSH2 0x440 PUSH2 0x10BD JUMP JUMPDEST PUSH1 0x40 MLOAD PUSH2 0x44D SWAP2 SWAP1 PUSH2 0x407A JUMP JUMPDEST PUSH1 0x40 MLOAD DUP1 SWAP2 SUB SWAP1 RETURN JUMPDEST CALLVALUE DUP1 ISZERO PUSH2 0x462 JUMPI PUSH1 0x0 DUP1 REVERT JUMPDEST POP PUSH2 0x46B PUSH2 0x10C3 JUMP JUMPDEST PUSH1 0x40 MLOAD PUSH2 0x478 SWAP2 SWAP1 PUSH2 0x4095 JUMP JUMPDEST PUSH1 0x40 MLOAD DUP1 SWAP2 SUB SWAP1 RETURN JUMPDEST CALLVALUE DUP1 ISZERO PUSH2 0x48D JUMPI PUSH1 0x0 DUP1 REVERT JUMPDEST POP PUSH2 0x4A8 PUSH1 0x4 DUP1 CALLDATASIZE SUB DUP2 ADD SWAP1 PUSH2 0x4A3 SWAP2 SWAP1 PUSH2 0x3ECD JUMP JUMPDEST PUSH2 0x10D6 JUMP JUMPDEST STOP JUMPDEST CALLVALUE DUP1 ISZERO PUSH2 0x4B6 JUMPI PUSH1 0x0 DUP1 REVERT JUMPDEST POP PUSH2 0x4D1 PUSH1 0x4 DUP1 CALLDATASIZE SUB DUP2 ADD SWAP1 PUSH2 0x4CC SWAP2 SWAP1 PUSH2 0x40B0 JUMP JUMPDEST PUSH2 0x10F6 JUMP JUMPDEST STOP JUMPDEST CALLVALUE DUP1 ISZERO PUSH2 0x4DF JUMPI PUSH1 0x0 DUP1 REVERT JUMPDEST POP PUSH2 0x4FA PUSH1 0x4 DUP1 CALLDATASIZE SUB DUP2 ADD SWAP1 PUSH2 0x4F5 SWAP2 SWAP1 PUSH2 0x3BAA JUMP JUMPDEST PUSH2 0x1240 JUMP JUMPDEST PUSH1 0x40 MLOAD PUSH2 0x50C SWAP7 SWAP6 SWAP5 SWAP4 SWAP3 SWAP2 SWAP1 PUSH2 0x410C JUMP JUMPDEST PUSH1 0x40 MLOAD DUP1 SWAP2 SUB SWAP1 RETURN JUMPDEST CALLVALUE DUP1 ISZERO PUSH2 0x521 JUMPI PUSH1 0x0 DUP1 REVERT JUMPDEST POP PUSH2 0x53C PUSH1 0x4 DUP1 CALLDATASIZE SUB DUP2 ADD SWAP1 PUSH2 0x537 SWAP2 SWAP1 PUSH2 0x3BAA JUMP JUMPDEST PUSH2 0x136E JUMP JUMPDEST STOP JUMPDEST CALLVALUE DUP1 ISZERO PUSH2 0x54A JUMPI PUSH1 0x0 DUP1 REVERT JUMPDEST POP PUSH2 0x565 PUSH1 0x4 DUP1 CALLDATASIZE SUB DUP2 ADD SWAP1 PUSH2 0x560 SWAP2 SWAP1 PUSH2 0x3C76 JUMP JUMPDEST PUSH2 0x143C JUMP JUMPDEST PUSH1 0x40 MLOAD PUSH2 0x572 SWAP2 SWAP1 PUSH2 0x3CE4 JUMP JUMPDEST PUSH1 0x40 MLOAD DUP1 SWAP2 SUB SWAP1 RETURN JUMPDEST CALLVALUE DUP1 ISZERO PUSH2 0x587 JUMPI PUSH1 0x0 DUP1 REVERT JUMPDEST POP PUSH2 0x5A2 PUSH1 0x4 DUP1 CALLDATASIZE SUB DUP2 ADD SWAP1 PUSH2 0x59D SWAP2 SWAP1 PUSH2 0x4174 JUMP JUMPDEST PUSH2 0x14C2 JUMP JUMPDEST STOP JUMPDEST CALLVALUE DUP1 ISZERO PUSH2 0x5B0 JUMPI PUSH1 0x0 DUP1 REVERT JUMPDEST POP PUSH2 0x5CB PUSH1 0x4 DUP1 CALLDATASIZE SUB DUP2 ADD SWAP1 PUSH2 0x5C6 SWAP2 SWAP1 PUSH2 0x41D0 JUMP JUMPDEST PUSH2 0x1647 JUMP JUMPDEST STOP JUMPDEST CALLVALUE DUP1 ISZERO PUSH2 0x5D9 JUMPI PUSH1 0x0 DUP1 REVERT JUMPDEST POP PUSH2 0x5F4 PUSH1 0x4 DUP1 CALLDATASIZE SUB DUP2 ADD SWAP1 PUSH2 0x5EF SWAP2 SWAP1 PUSH2 0x4248 JUMP JUMPDEST PUSH2 0x177A JUMP JUMPDEST PUSH1 0x40 MLOAD PUSH2 0x601 SWAP2 SWAP1 PUSH2 0x407A JUMP JUMPDEST PUSH1 0x40 MLOAD DUP1 SWAP2 SUB SWAP1 RETURN JUMPDEST CALLVALUE DUP1 ISZERO PUSH2 0x616 JUMPI PUSH1 0x0 DUP1 REVERT JUMPDEST POP PUSH2 0x61F PUSH2 0x1831 JUMP JUMPDEST STOP JUMPDEST CALLVALUE DUP1 ISZERO PUSH2 0x62D JUMPI PUSH1 0x0 DUP1 REVERT JUMPDEST POP PUSH2 0x648 PUSH1 0x4 DUP1 CALLDATASIZE SUB DUP2 ADD SWAP1 PUSH2 0x643 SWAP2 SWAP1 PUSH2 0x4174 JUMP JUMPDEST PUSH2 0x1845 JUMP JUMPDEST PUSH1 0x40 MLOAD PUSH2 0x655 SWAP2 SWAP1 PUSH2 0x4058 JUMP JUMPDEST PUSH1 0x40 MLOAD DUP1 SWAP2 SUB SWAP1 RETURN JUMPDEST CALLVALUE DUP1 ISZERO PUSH2 0x66A JUMPI PUSH1 0x0 DUP1 REVERT JUMPDEST POP PUSH2 0x673 PUSH2 0x196B JUMP JUMPDEST PUSH1 0x40 MLOAD PUSH2 0x680 SWAP2 SWAP1 PUSH2 0x4095 JUMP JUMPDEST PUSH1 0x40 MLOAD DUP1 SWAP2 SUB SWAP1 RETURN JUMPDEST CALLVALUE DUP1 ISZERO PUSH2 0x695 JUMPI PUSH1 0x0 DUP1 REVERT JUMPDEST POP PUSH2 0x69E PUSH2 0x1982 JUMP JUMPDEST PUSH1 0x40 MLOAD PUSH2 0x6AB SWAP2 SWAP1 PUSH2 0x3CE4 JUMP JUMPDEST PUSH1 0x40 MLOAD DUP1 SWAP2 SUB SWAP1 RETURN JUMPDEST CALLVALUE DUP1 ISZERO PUSH2 0x6C0 JUMPI PUSH1 0x0 DUP1 REVERT JUMPDEST POP PUSH2 0x6C9 PUSH2 0x19AC JUMP JUMPDEST PUSH1 0x40 MLOAD PUSH2 0x6D6 SWAP2 SWAP1 PUSH2 0x3A53 JUMP JUMPDEST PUSH1 0x40 MLOAD DUP1 SWAP2 SUB SWAP1 RETURN JUMPDEST CALLVALUE DUP1 ISZERO PUSH2 0x6EB JUMPI PUSH1 0x0 DUP1 REVERT JUMPDEST POP PUSH2 0x6F4 PUSH2 0x1A3E JUMP JUMPDEST PUSH1 0x40 MLOAD PUSH2 0x701 SWAP2 SWAP1 PUSH2 0x4095 JUMP JUMPDEST PUSH1 0x40 MLOAD DUP1 SWAP2 SUB SWAP1 RETURN JUMPDEST CALLVALUE DUP1 ISZERO PUSH2 0x716 JUMPI PUSH1 0x0 DUP1 REVERT JUMPDEST POP PUSH2 0x731 PUSH1 0x4 DUP1 CALLDATASIZE SUB DUP2 ADD SWAP1 PUSH2 0x72C SWAP2 SWAP1 PUSH2 0x4275 JUMP JUMPDEST PUSH2 0x1A51 JUMP JUMPDEST STOP JUMPDEST CALLVALUE DUP1 ISZERO PUSH2 0x73F JUMPI PUSH1 0x0 DUP1 REVERT JUMPDEST POP PUSH2 0x748 PUSH2 0x1CBC JUMP JUMPDEST PUSH1 0x40 MLOAD PUSH2 0x755 SWAP2 SWAP1 PUSH2 0x4095 JUMP JUMPDEST PUSH1 0x40 MLOAD DUP1 SWAP2 SUB SWAP1 RETURN JUMPDEST CALLVALUE DUP1 ISZERO PUSH2 0x76A JUMPI PUSH1 0x0 DUP1 REVERT JUMPDEST POP PUSH2 0x785 PUSH1 0x4 DUP1 CALLDATASIZE SUB DUP2 ADD SWAP1 PUSH2 0x780 SWAP2 SWAP1 PUSH2 0x432C JUMP JUMPDEST PUSH2 0x1CCF JUMP JUMPDEST STOP JUMPDEST PUSH2 0x7A1 PUSH1 0x4 DUP1 CALLDATASIZE SUB DUP2 ADD SWAP1 PUSH2 0x79C SWAP2 SWAP1 PUSH2 0x436C JUMP JUMPDEST PUSH2 0x1CE5 JUMP JUMPDEST STOP JUMPDEST CALLVALUE DUP1 ISZERO PUSH2 0x7AF JUMPI PUSH1 0x0 DUP1 REVERT JUMPDEST POP PUSH2 0x7CA PUSH1 0x4 DUP1 CALLDATASIZE SUB DUP2 ADD SWAP1 PUSH2 0x7C5 SWAP2 SWAP1 PUSH2 0x3DA4 JUMP JUMPDEST PUSH2 0x1F09 JUMP JUMPDEST PUSH1 0x40 MLOAD PUSH2 0x7D9 SWAP4 SWAP3 SWAP2 SWAP1 PUSH2 0x43F7 JUMP JUMPDEST PUSH1 0x40 MLOAD DUP1 SWAP2 SUB SWAP1 RETURN JUMPDEST CALLVALUE DUP1 ISZERO PUSH2 0x7EE JUMPI PUSH1 0x0 DUP1 REVERT JUMPDEST POP PUSH2 0x809 PUSH1 0x4 DUP1 CALLDATASIZE SUB DUP2 ADD SWAP1 PUSH2 0x804 SWAP2 SWAP1 PUSH2 0x44DD JUMP JUMPDEST PUSH2 0x2050 JUMP JUMPDEST STOP JUMPDEST CALLVALUE DUP1 ISZERO PUSH2 0x817 JUMPI PUSH1 0x0 DUP1 REVERT JUMPDEST POP PUSH2 0x832 PUSH1 0x4 DUP1 CALLDATASIZE SUB DUP2 ADD SWAP1 PUSH2 0x82D SWAP2 SWAP1 PUSH2 0x4560 JUMP JUMPDEST PUSH2 0x20B2 JUMP JUMPDEST STOP JUMPDEST CALLVALUE DUP1 ISZERO PUSH2 0x840 JUMPI PUSH1 0x0 DUP1 REVERT JUMPDEST POP PUSH2 0x85B PUSH1 0x4 DUP1 CALLDATASIZE SUB DUP2 ADD SWAP1 PUSH2 0x856 SWAP2 SWAP1 PUSH2 0x3C76 JUMP JUMPDEST PUSH2 0x21F3 JUMP JUMPDEST PUSH1 0x40 MLOAD PUSH2 0x868 SWAP2 SWAP1 PUSH2 0x3A53 JUMP JUMPDEST PUSH1 0x40 MLOAD DUP1 SWAP2 SUB SWAP1 RETURN JUMPDEST CALLVALUE DUP1 ISZERO PUSH2 0x87D JUMPI PUSH1 0x0 DUP1 REVERT JUMPDEST POP PUSH2 0x886 PUSH2 0x2305 JUMP JUMPDEST PUSH1 0x40 MLOAD PUSH2 0x893 SWAP2 SWAP1 PUSH2 0x4095 JUMP JUMPDEST PUSH1 0x40 MLOAD DUP1 SWAP2 SUB SWAP1 RETURN JUMPDEST CALLVALUE DUP1 ISZERO PUSH2 0x8A8 JUMPI PUSH1 0x0 DUP1 REVERT JUMPDEST POP PUSH2 0x8C3 PUSH1 0x4 DUP1 CALLDATASIZE SUB DUP2 ADD SWAP1 PUSH2 0x8BE SWAP2 SWAP1 PUSH2 0x3BAA JUMP JUMPDEST PUSH2 0x2318 JUMP JUMPDEST STOP JUMPDEST CALLVALUE DUP1 ISZERO PUSH2 0x8D1 JUMPI PUSH1 0x0 DUP1 REVERT JUMPDEST POP PUSH2 0x8EC PUSH1 0x4 DUP1 CALLDATASIZE SUB DUP2 ADD SWAP1 PUSH2 0x8E7 SWAP2 SWAP1 PUSH2 0x45CF JUMP JUMPDEST PUSH2 0x2457 JUMP JUMPDEST PUSH1 0x40 MLOAD PUSH2 0x8F9 SWAP2 SWAP1 PUSH2 0x39A8 JUMP JUMPDEST PUSH1 0x40 MLOAD DUP1 SWAP2 SUB SWAP1 RETURN JUMPDEST CALLVALUE DUP1 ISZERO PUSH2 0x90E JUMPI PUSH1 0x0 DUP1 REVERT JUMPDEST POP PUSH2 0x929 PUSH1 0x4 DUP1 CALLDATASIZE SUB DUP2 ADD SWAP1 PUSH2 0x924 SWAP2 SWAP1 PUSH2 0x4248 JUMP JUMPDEST PUSH2 0x24EB JUMP JUMPDEST STOP JUMPDEST PUSH2 0x945 PUSH1 0x4 DUP1 CALLDATASIZE SUB DUP2 ADD SWAP1 PUSH2 0x940 SWAP2 SWAP1 PUSH2 0x4560 JUMP JUMPDEST PUSH2 0x256E JUMP JUMPDEST STOP JUMPDEST CALLVALUE DUP1 ISZERO PUSH2 0x953 JUMPI PUSH1 0x0 DUP1 REVERT JUMPDEST POP PUSH2 0x95C PUSH2 0x2668 JUMP JUMPDEST PUSH1 0x40 MLOAD PUSH2 0x969 SWAP2 SWAP1 PUSH2 0x4095 JUMP JUMPDEST PUSH1 0x40 MLOAD DUP1 SWAP2 SUB SWAP1 RETURN JUMPDEST PUSH1 0x0 PUSH4 0x49064906 PUSH1 0xE0 SHL PUSH28 0xFFFFFFFFFFFFFFFFFFFFFFFFFFFFFFFFFFFFFFFFFFFFFFFFFFFFFFFF NOT AND DUP3 PUSH28 0xFFFFFFFFFFFFFFFFFFFFFFFFFFFFFFFFFFFFFFFFFFFFFFFFFFFFFFFF NOT AND EQ DUP1 PUSH2 0x9CC JUMPI POP PUSH2 0x9CB DUP3 PUSH2 0x267B JUMP JUMPDEST JUMPDEST SWAP1 POP SWAP2 SWAP1 POP JUMP JUMPDEST PUSH1 0x60 PUSH1 0x0 DUP1 SLOAD PUSH2 0x9E2 SWAP1 PUSH2 0x463E JUMP JUMPDEST DUP1 PUSH1 0x1F ADD PUSH1 0x20 DUP1 SWAP2 DIV MUL PUSH1 0x20 ADD PUSH1 0x40 MLOAD SWAP1 DUP2 ADD PUSH1 0x40 MSTORE DUP1 SWAP3 SWAP2 SWAP1 DUP2 DUP2 MSTORE PUSH1 0x20 ADD DUP3 DUP1 SLOAD PUSH2 0xA0E SWAP1 PUSH2 0x463E JUMP JUMPDEST DUP1 ISZERO PUSH2 0xA5B JUMPI DUP1 PUSH1 0x1F LT PUSH2 0xA30 JUMPI PUSH2 0x100 DUP1 DUP4 SLOAD DIV MUL DUP4 MSTORE SWAP2 PUSH1 0x20 ADD SWAP2 PUSH2 0xA5B JUMP JUMPDEST DUP3 ADD SWAP2 SWAP1 PUSH1 0x0 MSTORE PUSH1 0x20 PUSH1 0x0 KECCAK256 SWAP1 JUMPDEST DUP2 SLOAD DUP2 MSTORE SWAP1 PUSH1 0x1 ADD SWAP1 PUSH1 0x20 ADD DUP1 DUP4 GT PUSH2 0xA3E JUMPI DUP3 SWAP1 SUB PUSH1 0x1F AND DUP3 ADD SWAP2 JUMPDEST POP POP POP POP POP SWAP1 POP SWAP1 JUMP JUMPDEST PUSH1 0xB DUP2 DUP1 MLOAD PUSH1 0x20 DUP2 ADD DUP3 ADD DUP1 MLOAD DUP5 DUP3 MSTORE PUSH1 0x20 DUP4 ADD PUSH1 0x20 DUP6 ADD KECCAK256 DUP2 DUP4 MSTORE DUP1 SWAP6 POP POP POP POP POP POP PUSH1 0x0 SWAP2 POP SWAP1 POP DUP1 PUSH1 0x0 ADD DUP1 SLOAD PUSH2 0xA9E SWAP1 PUSH2 0x463E JUMP JUMPDEST DUP1 PUSH1 0x1F ADD PUSH1 0x20 DUP1 SWAP2 DIV MUL PUSH1 0x20 ADD PUSH1 0x40 MLOAD SWAP1 DUP2 ADD PUSH1 0x40 MSTORE DUP1 SWAP3 SWAP2 SWAP1 DUP2 DUP2 MSTORE PUSH1 0x20 ADD DUP3 DUP1 SLOAD PUSH2 0xACA SWAP1 PUSH2 0x463E JUMP JUMPDEST DUP1 ISZERO PUSH2 0xB17 JUMPI DUP1 PUSH1 0x1F LT PUSH2 0xAEC JUMPI PUSH2 0x100 DUP1 DUP4 SLOAD DIV MUL DUP4 MSTORE SWAP2 PUSH1 0x20 ADD SWAP2 PUSH2 0xB17 JUMP JUMPDEST DUP3 ADD SWAP2 SWAP1 PUSH1 0x0 MSTORE PUSH1 0x20 PUSH1 0x0 KECCAK256 SWAP1 JUMPDEST DUP2 SLOAD DUP2 MSTORE SWAP1 PUSH1 0x1 ADD SWAP1 PUSH1 0x20 ADD DUP1 DUP4 GT PUSH2 0xAFA JUMPI DUP3 SWAP1 SUB PUSH1 0x1F AND DUP3 ADD SWAP2 JUMPDEST POP POP POP POP POP SWAP1 DUP1 PUSH1 0x1 ADD SLOAD SWAP1 DUP1 PUSH1 0x2 ADD PUSH1 0x0 SWAP1 SLOAD SWAP1 PUSH2 0x100 EXP SWAP1 DIV PUSH1 0xFF AND SWAP1 POP DUP4 JUMP JUMPDEST PUSH1 0x0 PUSH2 0xB45 DUP3 PUSH2 0x275D JUMP JUMPDEST PUSH1 0x4 PUSH1 0x0 DUP4 DUP2 MSTORE PUSH1 0x20 ADD SWAP1 DUP2 MSTORE PUSH1 0x20 ADD PUSH1 0x0 KECCAK256 PUSH1 0x0 SWAP1 SLOAD SWAP1 PUSH2 0x100 EXP SWAP1 DIV PUSH20 0xFFFFFFFFFFFFFFFFFFFFFFFFFFFFFFFFFFFFFFFF AND SWAP1 POP SWAP2 SWAP1 POP JUMP JUMPDEST PUSH1 0x0 PUSH2 0xB8B DUP3 PUSH2 0x143C JUMP JUMPDEST SWAP1 POP DUP1 PUSH20 0xFFFFFFFFFFFFFFFFFFFFFFFFFFFFFFFFFFFFFFFF AND DUP4 PUSH20 0xFFFFFFFFFFFFFFFFFFFFFFFFFFFFFFFFFFFFFFFF AND SUB PUSH2 0xBFB JUMPI PUSH1 0x40 MLOAD PUSH32 0x8C379A000000000000000000000000000000000000000000000000000000000 DUP2 MSTORE PUSH1 0x4 ADD PUSH2 0xBF2 SWAP1 PUSH2 0x46E1 JUMP JUMPDEST PUSH1 0x40 MLOAD DUP1 SWAP2 SUB SWAP1 REVERT JUMPDEST DUP1 PUSH20 0xFFFFFFFFFFFFFFFFFFFFFFFFFFFFFFFFFFFFFFFF AND PUSH2 0xC1A PUSH2 0x27A8 JUMP JUMPDEST PUSH20 0xFFFFFFFFFFFFFFFFFFFFFFFFFFFFFFFFFFFFFFFF AND EQ DUP1 PUSH2 0xC49 JUMPI POP PUSH2 0xC48 DUP2 PUSH2 0xC43 PUSH2 0x27A8 JUMP JUMPDEST PUSH2 0x2457 JUMP JUMPDEST JUMPDEST PUSH2 0xC88 JUMPI PUSH1 0x40 MLOAD PUSH32 0x8C379A000000000000000000000000000000000000000000000000000000000 DUP2 MSTORE PUSH1 0x4 ADD PUSH2 0xC7F SWAP1 PUSH2 0x4773 JUMP JUMPDEST PUSH1 0x40 MLOAD DUP1 SWAP2 SUB SWAP1 REVERT JUMPDEST PUSH2 0xC92 DUP4 DUP4 PUSH2 0x27B0 JUMP JUMPDEST POP POP POP JUMP JUMPDEST PUSH1 0xF PUSH1 0x20 MSTORE DUP1 PUSH1 0x0 MSTORE PUSH1 0x40 PUSH1 0x0 KECCAK256 PUSH1 0x0 SWAP2 POP SWAP1 POP DUP1 PUSH1 0x0 ADD PUSH1 0x0 SWAP1 SLOAD SWAP1 PUSH2 0x100 EXP SWAP1 DIV PUSH1 0xFF AND SWAP1 DUP1 PUSH1 0x1 ADD DUP1 SLOAD PUSH2 0xCCD SWAP1 PUSH2 0x463E JUMP JUMPDEST DUP1 PUSH1 0x1F ADD PUSH1 0x20 DUP1 SWAP2 DIV MUL PUSH1 0x20 ADD PUSH1 0x40 MLOAD SWAP1 DUP2 ADD PUSH1 0x40 MSTORE DUP1 SWAP3 SWAP2 SWAP1 DUP2 DUP2 MSTORE PUSH1 0x20 ADD DUP3 DUP1 SLOAD PUSH2 0xCF9 SWAP1 PUSH2 0x463E JUMP JUMPDEST DUP1 ISZERO PUSH2 0xD46 JUMPI DUP1 PUSH1 0x1F LT PUSH2 0xD1B JUMPI PUSH2 0x100 DUP1 DUP4 SLOAD DIV MUL DUP4 MSTORE SWAP2 PUSH1 0x20 ADD SWAP2 PUSH2 0xD46 JUMP JUMPDEST DUP3 ADD SWAP2 SWAP1 PUSH1 0x0 MSTORE PUSH1 0x20 PUSH1 0x0 KECCAK256 SWAP1 JUMPDEST DUP2 SLOAD DUP2 MSTORE SWAP1 PUSH1 0x1 ADD SWAP1 PUSH1 0x20 ADD DUP1 DUP4 GT PUSH2 0xD29 JUMPI DUP3 SWAP1 SUB PUSH1 0x1F AND DUP3 ADD SWAP2 JUMPDEST POP POP POP POP POP SWAP1 DUP1 PUSH1 0x2 ADD DUP1 SLOAD PUSH2 0xD5B SWAP1 PUSH2 0x463E JUMP JUMPDEST DUP1 PUSH1 0x1F ADD PUSH1 0x20 DUP1 SWAP2 DIV MUL PUSH1 0x20 ADD PUSH1 0x40 MLOAD SWAP1 DUP2 ADD PUSH1 0x40 MSTORE DUP1 SWAP3 SWAP2 SWAP1 DUP2 DUP2 MSTORE PUSH1 0x20 ADD DUP3 DUP1 SLOAD PUSH2 0xD87 SWAP1 PUSH2 0x463E JUMP JUMPDEST DUP1 ISZERO PUSH2 0xDD4 JUMPI DUP1 PUSH1 0x1F LT PUSH2 0xDA9 JUMPI PUSH2 0x100 DUP1 DUP4 SLOAD DIV MUL DUP4 MSTORE SWAP2 PUSH1 0x20 ADD SWAP2 PUSH2 0xDD4 JUMP JUMPDEST DUP3 ADD SWAP2 SWAP1 PUSH1 0x0 MSTORE PUSH1 0x20 PUSH1 0x0 KECCAK256 SWAP1 JUMPDEST DUP2 SLOAD DUP2 MSTORE SWAP1 PUSH1 0x1 ADD SWAP1 PUSH1 0x20 ADD DUP1 DUP4 GT PUSH2 0xDB7 JUMPI DUP3 SWAP1 SUB PUSH1 0x1F AND DUP3 ADD SWAP2 JUMPDEST POP POP POP POP POP SWAP1 DUP1 PUSH1 0x3 ADD PUSH1 0x0 SWAP1 SLOAD SWAP1 PUSH2 0x100 EXP SWAP1 DIV PUSH1 0xFF AND SWAP1 DUP1 PUSH1 0x4 ADD DUP1 SLOAD PUSH2 0xDFC SWAP1 PUSH2 0x463E JUMP JUMPDEST DUP1 PUSH1 0x1F ADD PUSH1 0x20 DUP1 SWAP2 DIV MUL PUSH1 0x20 ADD PUSH1 0x40 MLOAD SWAP1 DUP2 ADD PUSH1 0x40 MSTORE DUP1 SWAP3 SWAP2 SWAP1 DUP2 DUP2 MSTORE PUSH1 0x20 ADD DUP3 DUP1 SLOAD PUSH2 0xE28 SWAP1 PUSH2 0x463E JUMP JUMPDEST DUP1 ISZERO PUSH2 0xE75 JUMPI DUP1 PUSH1 0x1F LT PUSH2 0xE4A JUMPI PUSH2 0x100 DUP1 DUP4 SLOAD DIV MUL DUP4 MSTORE SWAP2 PUSH1 0x20 ADD SWAP2 PUSH2 0xE75 JUMP JUMPDEST DUP3 ADD SWAP2 SWAP1 PUSH1 0x0 MSTORE PUSH1 0x20 PUSH1 0x0 KECCAK256 SWAP1 JUMPDEST DUP2 SLOAD DUP2 MSTORE SWAP1 PUSH1 0x1 ADD SWAP1 PUSH1 0x20 ADD DUP1 DUP4 GT PUSH2 0xE58 JUMPI DUP3 SWAP1 SUB PUSH1 0x1F AND DUP3 ADD SWAP2 JUMPDEST POP POP POP POP POP SWAP1 DUP1 PUSH1 0x5 ADD PUSH1 0x0 SWAP1 SLOAD SWAP1 PUSH2 0x100 EXP SWAP1 DIV PUSH1 0xFF AND SWAP1 POP DUP7 JUMP JUMPDEST PUSH2 0xEA3 PUSH2 0xE9D PUSH2 0x27A8 JUMP JUMPDEST DUP3 PUSH2 0x2869 JUMP JUMPDEST PUSH2 0xEE2 JUMPI PUSH1 0x40 MLOAD PUSH32 0x8C379A000000000000000000000000000000000000000000000000000000000 DUP2 MSTORE PUSH1 0x4 ADD PUSH2 0xED9 SWAP1 PUSH2 0x4805 JUMP JUMPDEST PUSH1 0x40 MLOAD DUP1 SWAP2 SUB SWAP1 REVERT JUMPDEST PUSH2 0xEED DUP4 DUP4 DUP4 PUSH2 0x28FE JUMP JUMPDEST POP POP POP JUMP JUMPDEST PUSH1 0x8 PUSH1 0x20 MSTORE DUP1 PUSH1 0x0 MSTORE PUSH1 0x40 PUSH1 0x0 KECCAK256 PUSH1 0x0 SWAP2 POP SWAP1 POP DUP1 PUSH1 0x0 ADD PUSH1 0x0 SWAP1 SLOAD SWAP1 PUSH2 0x100 EXP SWAP1 DIV PUSH1 0xFF AND SWAP1 DUP1 PUSH1 0x1 ADD DUP1 SLOAD PUSH2 0xF28 SWAP1 PUSH2 0x463E JUMP JUMPDEST DUP1 PUSH1 0x1F ADD PUSH1 0x20 DUP1 SWAP2 DIV MUL PUSH1 0x20 ADD PUSH1 0x40 MLOAD SWAP1 DUP2 ADD PUSH1 0x40 MSTORE DUP1 SWAP3 SWAP2 SWAP1 DUP2 DUP2 MSTORE PUSH1 0x20 ADD DUP3 DUP1 SLOAD PUSH2 0xF54 SWAP1 PUSH2 0x463E JUMP JUMPDEST DUP1 ISZERO PUSH2 0xFA1 JUMPI DUP1 PUSH1 0x1F LT PUSH2 0xF76 JUMPI PUSH2 0x100 DUP1 DUP4 SLOAD DIV MUL DUP4 MSTORE SWAP2 PUSH1 0x20 ADD SWAP2 PUSH2 0xFA1 JUMP JUMPDEST DUP3 ADD SWAP2 SWAP1 PUSH1 0x0 MSTORE PUSH1 0x20 PUSH1 0x0 KECCAK256 SWAP1 JUMPDEST DUP2 SLOAD DUP2 MSTORE SWAP1 PUSH1 0x1 ADD SWAP1 PUSH1 0x20 ADD DUP1 DUP4 GT PUSH2 0xF84 JUMPI DUP3 SWAP1 SUB PUSH1 0x1F AND DUP3 ADD SWAP2 JUMPDEST POP POP POP POP POP SWAP1 DUP1 PUSH1 0x2 ADD SLOAD SWAP1 DUP1 PUSH1 0x3 ADD SLOAD SWAP1 DUP1 PUSH1 0x4 ADD SLOAD SWAP1 POP DUP6 JUMP JUMPDEST PUSH2 0xFC5 PUSH2 0x38C2 JUMP JUMPDEST PUSH1 0x8 PUSH1 0x0 DUP4 PUSH1 0xFF AND PUSH1 0xFF AND DUP2 MSTORE PUSH1 0x20 ADD SWAP1 DUP2 MSTORE PUSH1 0x20 ADD PUSH1 0x0 KECCAK256 PUSH1 0x40 MLOAD DUP1 PUSH1 0xA0 ADD PUSH1 0x40 MSTORE SWAP1 DUP2 PUSH1 0x0 DUP3 ADD PUSH1 0x0 SWAP1 SLOAD SWAP1 PUSH2 0x100 EXP SWAP1 DIV PUSH1 0xFF AND PUSH1 0xFF AND PUSH1 0xFF AND DUP2 MSTORE PUSH1 0x20 ADD PUSH1 0x1 DUP3 ADD DUP1 SLOAD PUSH2 0x1016 SWAP1 PUSH2 0x463E JUMP JUMPDEST DUP1 PUSH1 0x1F ADD PUSH1 0x20 DUP1 SWAP2 DIV MUL PUSH1 0x20 ADD PUSH1 0x40 MLOAD SWAP1 DUP2 ADD PUSH1 0x40 MSTORE DUP1 SWAP3 SWAP2 SWAP1 DUP2 DUP2 MSTORE PUSH1 0x20 ADD DUP3 DUP1 SLOAD PUSH2 0x1042 SWAP1 PUSH2 0x463E JUMP JUMPDEST DUP1 ISZERO PUSH2 0x108F JUMPI DUP1 PUSH1 0x1F LT PUSH2 0x1064 JUMPI PUSH2 0x100 DUP1 DUP4 SLOAD DIV MUL DUP4 MSTORE SWAP2 PUSH1 0x20 ADD SWAP2 PUSH2 0x108F JUMP JUMPDEST DUP3 ADD SWAP2 SWAP1 PUSH1 0x0 MSTORE PUSH1 0x20 PUSH1 0x0 KECCAK256 SWAP1 JUMPDEST DUP2 SLOAD DUP2 MSTORE SWAP1 PUSH1 0x1 ADD SWAP1 PUSH1 0x20 ADD DUP1 DUP4 GT PUSH2 0x1072 JUMPI DUP3 SWAP1 SUB PUSH1 0x1F AND DUP3 ADD SWAP2 JUMPDEST POP POP POP POP POP DUP2 MSTORE PUSH1 0x20 ADD PUSH1 0x2 DUP3 ADD SLOAD DUP2 MSTORE PUSH1 0x20 ADD PUSH1 0x3 DUP3 ADD SLOAD DUP2 MSTORE PUSH1 0x20 ADD PUSH1 0x4 DUP3 ADD SLOAD DUP2 MSTORE POP POP SWAP1 POP SWAP2 SWAP1 POP JUMP JUMPDEST PUSH1 0xA SLOAD DUP2 JUMP JUMPDEST PUSH1 0x7 PUSH1 0x14 SWAP1 SLOAD SWAP1 PUSH2 0x100 EXP SWAP1 DIV PUSH1 0xFF AND DUP2 JUMP JUMPDEST PUSH2 0x10F1 DUP4 DUP4 DUP4 PUSH1 0x40 MLOAD DUP1 PUSH1 0x20 ADD PUSH1 0x40 MSTORE DUP1 PUSH1 0x0 DUP2 MSTORE POP PUSH2 0x2050 JUMP JUMPDEST POP POP POP JUMP JUMPDEST PUSH2 0x10FE PUSH2 0x2BF7 JUMP JUMPDEST PUSH1 0x7 PUSH1 0x16 DUP2 DUP2 SWAP1 SLOAD SWAP1 PUSH2 0x100 EXP SWAP1 DIV PUSH1 0xFF AND DUP1 SWAP3 SWAP2 SWAP1 PUSH2 0x111D SWAP1 PUSH2 0x4854 JUMP JUMPDEST SWAP2 SWAP1 PUSH2 0x100 EXP DUP2 SLOAD DUP2 PUSH1 0xFF MUL NOT AND SWAP1 DUP4 PUSH1 0xFF AND MUL OR SWAP1 SSTORE POP POP PUSH1 0x40 MLOAD DUP1 PUSH1 0xA0 ADD PUSH1 0x40 MSTORE DUP1 PUSH1 0x7 PUSH1 0x16 SWAP1 SLOAD SWAP1 PUSH2 0x100 EXP SWAP1 DIV PUSH1 0xFF AND PUSH1 0xFF AND DUP2 MSTORE PUSH1 0x20 ADD DUP4 DUP2 MSTORE PUSH1 0x20 ADD PUSH1 0x0 DUP2 MSTORE PUSH1 0x20 ADD PUSH1 0x0 DUP2 MSTORE PUSH1 0x20 ADD DUP3 DUP2 MSTORE POP PUSH1 0x8 PUSH1 0x0 PUSH1 0x7 PUSH1 0x16 SWAP1 SLOAD SWAP1 PUSH2 0x100 EXP SWAP1 DIV PUSH1 0xFF AND PUSH1 0xFF AND PUSH1 0xFF AND DUP2 MSTORE PUSH1 0x20 ADD SWAP1 DUP2 MSTORE PUSH1 0x20 ADD PUSH1 0x0 KECCAK256 PUSH1 0x0 DUP3 ADD MLOAD DUP2 PUSH1 0x0 ADD PUSH1 0x0 PUSH2 0x100 EXP DUP2 SLOAD DUP2 PUSH1 0xFF MUL NOT AND SWAP1 DUP4 PUSH1 0xFF AND MUL OR SWAP1 SSTORE POP PUSH1 0x20 DUP3 ADD MLOAD DUP2 PUSH1 0x1 ADD SWAP1 DUP2 PUSH2 0x11CF SWAP2 SWAP1 PUSH2 0x4A29 JUMP JUMPDEST POP PUSH1 0x40 DUP3 ADD MLOAD DUP2 PUSH1 0x2 ADD SSTORE PUSH1 0x60 DUP3 ADD MLOAD DUP2 PUSH1 0x3 ADD SSTORE PUSH1 0x80 DUP3 ADD MLOAD DUP2 PUSH1 0x4 ADD SSTORE SWAP1 POP POP PUSH32 0x4B97DD848BADE800712122C996326A9168C8F82A899049E25F8FF5EFE6FB664E PUSH1 0x7 PUSH1 0x16 SWAP1 SLOAD SWAP1 PUSH2 0x100 EXP SWAP1 DIV PUSH1 0xFF AND DUP4 PUSH1 0x0 PUSH1 0x40 MLOAD PUSH2 0x1234 SWAP4 SWAP3 SWAP2 SWAP1 PUSH2 0x4B36 JUMP JUMPDEST PUSH1 0x40 MLOAD DUP1 SWAP2 SUB SWAP1 LOG1 POP POP JUMP JUMPDEST PUSH1 0xD DUP2 DUP1 MLOAD PUSH1 0x20 DUP2 ADD DUP3 ADD DUP1 MLOAD DUP5 DUP3 MSTORE PUSH1 0x20 DUP4 ADD PUSH1 0x20 DUP6 ADD KECCAK256 DUP2 DUP4 MSTORE DUP1 SWAP6 POP POP POP POP POP POP PUSH1 0x0 SWAP2 POP SWAP1 POP DUP1 PUSH1 0x0 ADD DUP1 SLOAD PUSH2 0x1279 SWAP1 PUSH2 0x463E JUMP JUMPDEST DUP1 PUSH1 0x1F ADD PUSH1 0x20 DUP1 SWAP2 DIV MUL PUSH1 0x20 ADD PUSH1 0x40 MLOAD SWAP1 DUP2 ADD PUSH1 0x40 MSTORE DUP1 SWAP3 SWAP2 SWAP1 DUP2 DUP2 MSTORE PUSH1 0x20 ADD DUP3 DUP1 SLOAD PUSH2 0x12A5 SWAP1 PUSH2 0x463E JUMP JUMPDEST DUP1 ISZERO PUSH2 0x12F2 JUMPI DUP1 PUSH1 0x1F LT PUSH2 0x12C7 JUMPI PUSH2 0x100 DUP1 DUP4 SLOAD DIV MUL DUP4 MSTORE SWAP2 PUSH1 0x20 ADD SWAP2 PUSH2 0x12F2 JUMP JUMPDEST DUP3 ADD SWAP2 SWAP1 PUSH1 0x0 MSTORE PUSH1 0x20 PUSH1 0x0 KECCAK256 SWAP1 JUMPDEST DUP2 SLOAD DUP2 MSTORE SWAP1 PUSH1 0x1 ADD SWAP1 PUSH1 0x20 ADD DUP1 DUP4 GT PUSH2 0x12D5 JUMPI DUP3 SWAP1 SUB PUSH1 0x1F AND DUP3 ADD SWAP2 JUMPDEST POP POP POP POP POP SWAP1 DUP1 PUSH1 0x1 ADD PUSH1 0x0 SWAP1 SLOAD SWAP1 PUSH2 0x100 EXP SWAP1 DIV PUSH20 0xFFFFFFFFFFFFFFFFFFFFFFFFFFFFFFFFFFFFFFFF AND SWAP1 DUP1 PUSH1 0x1 ADD PUSH1 0x14 SWAP1 SLOAD SWAP1 PUSH2 0x100 EXP SWAP1 DIV PUSH1 0xFF AND SWAP1 DUP1 PUSH1 0x1 ADD PUSH1 0x15 SWAP1 SLOAD SWAP1 PUSH2 0x100 EXP SWAP1 DIV PUSH1 0xFF AND SWAP1 DUP1 PUSH1 0x1 ADD PUSH1 0x16 SWAP1 SLOAD SWAP1 PUSH2 0x100 EXP SWAP1 DIV PUSH1 0xFF AND SWAP1 DUP1 PUSH1 0x1 ADD PUSH1 0x17 SWAP1 SLOAD SWAP1 PUSH2 0x100 EXP SWAP1 DIV PUSH1 0xFF AND SWAP1 POP DUP7 JUMP JUMPDEST PUSH1 0xB DUP2 PUSH1 0x40 MLOAD PUSH2 0x137E SWAP2 SWAP1 PUSH2 0x4BB0 JUMP JUMPDEST SWAP1 DUP2 MSTORE PUSH1 0x20 ADD PUSH1 0x40 MLOAD DUP1 SWAP2 SUB SWAP1 KECCAK256 PUSH1 0x2 ADD PUSH1 0x0 SWAP1 SLOAD SWAP1 PUSH2 0x100 EXP SWAP1 DIV PUSH1 0xFF AND ISZERO PUSH2 0x13DD JUMPI PUSH1 0x40 MLOAD PUSH32 0x8C379A000000000000000000000000000000000000000000000000000000000 DUP2 MSTORE PUSH1 0x4 ADD PUSH2 0x13D4 SWAP1 PUSH2 0x4C13 JUMP JUMPDEST PUSH1 0x40 MLOAD DUP1 SWAP2 SUB SWAP1 REVERT JUMPDEST PUSH1 0x0 PUSH1 0xB DUP3 PUSH1 0x40 MLOAD PUSH2 0x13EF SWAP2 SWAP1 PUSH2 0x4BB0 JUMP JUMPDEST SWAP1 DUP2 MSTORE PUSH1 0x20 ADD PUSH1 0x40 MLOAD DUP1 SWAP2 SUB SWAP1 KECCAK256 SWAP1 POP DUP2 DUP2 PUSH1 0x0 ADD SWAP1 DUP2 PUSH2 0x1410 SWAP2 SWAP1 PUSH2 0x4A29 JUMP JUMPDEST POP PUSH1 0x0 DUP2 PUSH1 0x1 ADD DUP2 SWAP1 SSTORE POP PUSH1 0x1 DUP2 PUSH1 0x2 ADD PUSH1 0x0 PUSH2 0x100 EXP DUP2 SLOAD DUP2 PUSH1 0xFF MUL NOT AND SWAP1 DUP4 ISZERO ISZERO MUL OR SWAP1 SSTORE POP POP POP JUMP JUMPDEST PUSH1 0x0 DUP1 PUSH2 0x1448 DUP4 PUSH2 0x2C75 JUMP JUMPDEST SWAP1 POP PUSH1 0x0 PUSH20 0xFFFFFFFFFFFFFFFFFFFFFFFFFFFFFFFFFFFFFFFF AND DUP2 PUSH20 0xFFFFFFFFFFFFFFFFFFFFFFFFFFFFFFFFFFFFFFFF AND SUB PUSH2 0x14B9 JUMPI PUSH1 0x40 MLOAD PUSH32 0x8C379A000000000000000000000000000000000000000000000000000000000 DUP2 MSTORE PUSH1 0x4 ADD PUSH2 0x14B0 SWAP1 PUSH2 0x4C7F JUMP JUMPDEST PUSH1 0x40 MLOAD DUP1 SWAP2 SUB SWAP1 REVERT JUMPDEST DUP1 SWAP2 POP POP SWAP2 SWAP1 POP JUMP JUMPDEST PUSH1 0x0 PUSH1 0xD DUP4 PUSH1 0x40 MLOAD PUSH2 0x14D4 SWAP2 SWAP1 PUSH2 0x4BB0 JUMP JUMPDEST SWAP1 DUP2 MSTORE PUSH1 0x20 ADD PUSH1 0x40 MLOAD DUP1 SWAP2 SUB SWAP1 KECCAK256 SWAP1 POP PUSH1 0x0 PUSH1 0x8 PUSH1 0x0 DUP5 PUSH1 0xFF AND PUSH1 0xFF AND DUP2 MSTORE PUSH1 0x20 ADD SWAP1 DUP2 MSTORE PUSH1 0x20 ADD PUSH1 0x0 KECCAK256 SWAP1 POP PUSH1 0x40 MLOAD DUP1 PUSH1 0xA0 ADD PUSH1 0x40 MSTORE DUP1 DUP3 PUSH1 0x0 ADD PUSH1 0x0 SWAP1 SLOAD SWAP1 PUSH2 0x100 EXP SWAP1 DIV PUSH1 0xFF AND PUSH1 0xFF AND DUP2 MSTORE PUSH1 0x20 ADD DUP3 PUSH1 0x1 ADD DUP1 SLOAD PUSH2 0x1535 SWAP1 PUSH2 0x463E JUMP JUMPDEST DUP1 PUSH1 0x1F ADD PUSH1 0x20 DUP1 SWAP2 DIV MUL PUSH1 0x20 ADD PUSH1 0x40 MLOAD SWAP1 DUP2 ADD PUSH1 0x40 MSTORE DUP1 SWAP3 SWAP2 SWAP1 DUP2 DUP2 MSTORE PUSH1 0x20 ADD DUP3 DUP1 SLOAD PUSH2 0x1561 SWAP1 PUSH2 0x463E JUMP JUMPDEST DUP1 ISZERO PUSH2 0x15AE JUMPI DUP1 PUSH1 0x1F LT PUSH2 0x1583 JUMPI PUSH2 0x100 DUP1 DUP4 SLOAD DIV MUL DUP4 MSTORE SWAP2 PUSH1 0x20 ADD SWAP2 PUSH2 0x15AE JUMP JUMPDEST DUP3 ADD SWAP2 SWAP1 PUSH1 0x0 MSTORE PUSH1 0x20 PUSH1 0x0 KECCAK256 SWAP1 JUMPDEST DUP2 SLOAD DUP2 MSTORE SWAP1 PUSH1 0x1 ADD SWAP1 PUSH1 0x20 ADD DUP1 DUP4 GT PUSH2 0x1591 JUMPI DUP3 SWAP1 SUB PUSH1 0x1F AND DUP3 ADD SWAP2 JUMPDEST POP POP POP POP POP DUP2 MSTORE PUSH1 0x20 ADD PUSH1 0x0 DUP2 MSTORE PUSH1 0x20 ADD PUSH1 0x0 DUP2 MSTORE PUSH1 0x20 ADD DUP3 PUSH1 0x4 ADD SLOAD DUP2 MSTORE POP DUP3 PUSH1 0x2 ADD PUSH1 0x0 DUP6 PUSH1 0xFF AND PUSH1 0xFF AND DUP2 MSTORE PUSH1 0x20 ADD SWAP1 DUP2 MSTORE PUSH1 0x20 ADD PUSH1 0x0 KECCAK256 PUSH1 0x0 DUP3 ADD MLOAD DUP2 PUSH1 0x0 ADD PUSH1 0x0 PUSH2 0x100 EXP DUP2 SLOAD DUP2 PUSH1 0xFF MUL NOT AND SWAP1 DUP4 PUSH1 0xFF AND MUL OR SWAP1 SSTORE POP PUSH1 0x20 DUP3 ADD MLOAD DUP2 PUSH1 0x1 ADD SWAP1 DUP2 PUSH2 0x161F SWAP2 SWAP1 PUSH2 0x4A29 JUMP JUMPDEST POP PUSH1 0x40 DUP3 ADD MLOAD DUP2 PUSH1 0x2 ADD SSTORE PUSH1 0x60 DUP3 ADD MLOAD DUP2 PUSH1 0x3 ADD SSTORE PUSH1 0x80 DUP3 ADD MLOAD DUP2 PUSH1 0x4 ADD SSTORE SWAP1 POP POP POP POP POP POP JUMP JUMPDEST PUSH2 0x164F PUSH2 0x2BF7 JUMP JUMPDEST PUSH1 0x7 PUSH1 0x15 DUP2 DUP2 SWAP1 SLOAD SWAP1 PUSH2 0x100 EXP SWAP1 DIV PUSH1 0xFF AND DUP1 SWAP3 SWAP2 SWAP1 PUSH2 0x166E SWAP1 PUSH2 0x4854 JUMP JUMPDEST SWAP2 SWAP1 PUSH2 0x100 EXP DUP2 SLOAD DUP2 PUSH1 0xFF MUL NOT AND SWAP1 DUP4 PUSH1 0xFF AND MUL OR SWAP1 SSTORE POP POP PUSH1 0x40 MLOAD DUP1 PUSH1 0x60 ADD PUSH1 0x40 MSTORE DUP1 PUSH1 0x7 PUSH1 0x15 SWAP1 SLOAD SWAP1 PUSH2 0x100 EXP SWAP1 DIV PUSH1 0xFF AND PUSH1 0xFF AND DUP2 MSTORE PUSH1 0x20 ADD DUP4 DUP2 MSTORE PUSH1 0x20 ADD DUP3 DUP2 MSTORE POP PUSH1 0x9 PUSH1 0x0 PUSH1 0x7 PUSH1 0x15 SWAP1 SLOAD SWAP1 PUSH2 0x100 EXP SWAP1 DIV PUSH1 0xFF AND PUSH1 0xFF AND PUSH1 0xFF AND DUP2 MSTORE PUSH1 0x20 ADD SWAP1 DUP2 MSTORE PUSH1 0x20 ADD PUSH1 0x0 KECCAK256 PUSH1 0x0 DUP3 ADD MLOAD DUP2 PUSH1 0x0 ADD PUSH1 0x0 PUSH2 0x100 EXP DUP2 SLOAD DUP2 PUSH1 0xFF MUL NOT AND SWAP1 DUP4 PUSH1 0xFF AND MUL OR SWAP1 SSTORE POP PUSH1 0x20 DUP3 ADD MLOAD DUP2 PUSH1 0x1 ADD SWAP1 DUP2 PUSH2 0x1712 SWAP2 SWAP1 PUSH2 0x4A29 JUMP JUMPDEST POP PUSH1 0x40 DUP3 ADD MLOAD DUP2 PUSH1 0x2 ADD SWAP1 DUP2 PUSH2 0x1728 SWAP2 SWAP1 PUSH2 0x4A29 JUMP JUMPDEST POP SWAP1 POP POP PUSH32 0x1CC90A83351EB0E068581C785555ACA9C5D4A7F8E75C3E9E4C62C8DBAB35C5C9 PUSH1 0x7 PUSH1 0x15 SWAP1 SLOAD SWAP1 PUSH2 0x100 EXP SWAP1 DIV PUSH1 0xFF AND DUP3 DUP5 PUSH1 0x40 MLOAD PUSH2 0x176E SWAP4 SWAP3 SWAP2 SWAP1 PUSH2 0x43F7 JUMP JUMPDEST PUSH1 0x40 MLOAD DUP1 SWAP2 SUB SWAP1 LOG1 POP POP JUMP JUMPDEST PUSH1 0x0 DUP1 PUSH20 0xFFFFFFFFFFFFFFFFFFFFFFFFFFFFFFFFFFFFFFFF AND DUP3 PUSH20 0xFFFFFFFFFFFFFFFFFFFFFFFFFFFFFFFFFFFFFFFF AND SUB PUSH2 0x17EA JUMPI PUSH1 0x40 MLOAD PUSH32 0x8C379A000000000000000000000000000000000000000000000000000000000 DUP2 MSTORE PUSH1 0x4 ADD PUSH2 0x17E1 SWAP1 PUSH2 0x4D11 JUMP JUMPDEST PUSH1 0x40 MLOAD DUP1 SWAP2 SUB SWAP1 REVERT JUMPDEST PUSH1 0x3 PUSH1 0x0 DUP4 PUSH20 0xFFFFFFFFFFFFFFFFFFFFFFFFFFFFFFFFFFFFFFFF AND PUSH20 0xFFFFFFFFFFFFFFFFFFFFFFFFFFFFFFFFFFFFFFFF AND DUP2 MSTORE PUSH1 0x20 ADD SWAP1 DUP2 MSTORE PUSH1 0x20 ADD PUSH1 0x0 KECCAK256 SLOAD SWAP1 POP SWAP2 SWAP1 POP JUMP JUMPDEST PUSH2 0x1839 PUSH2 0x2BF7 JUMP JUMPDEST PUSH2 0x1843 PUSH1 0x0 PUSH2 0x2CB2 JUMP JUMPDEST JUMP JUMPDEST PUSH2 0x184D PUSH2 0x38C2 JUMP JUMPDEST PUSH1 0x0 PUSH1 0xD DUP5 PUSH1 0x40 MLOAD PUSH2 0x185F SWAP2 SWAP1 PUSH2 0x4BB0 JUMP JUMPDEST SWAP1 DUP2 MSTORE PUSH1 0x20 ADD PUSH1 0x40 MLOAD DUP1 SWAP2 SUB SWAP1 KECCAK256 SWAP1 POP DUP1 PUSH1 0x2 ADD PUSH1 0x0 DUP5 PUSH1 0xFF AND PUSH1 0xFF AND DUP2 MSTORE PUSH1 0x20 ADD SWAP1 DUP2 MSTORE PUSH1 0x20 ADD PUSH1 0x0 KECCAK256 PUSH1 0x40 MLOAD DUP1 PUSH1 0xA0 ADD PUSH1 0x40 MSTORE SWAP1 DUP2 PUSH1 0x0 DUP3 ADD PUSH1 0x0 SWAP1 SLOAD SWAP1 PUSH2 0x100 EXP SWAP1 DIV PUSH1 0xFF AND PUSH1 0xFF AND PUSH1 0xFF AND DUP2 MSTORE PUSH1 0x20 ADD PUSH1 0x1 DUP3 ADD DUP1 SLOAD PUSH2 0x18C2 SWAP1 PUSH2 0x463E JUMP JUMPDEST DUP1 PUSH1 0x1F ADD PUSH1 0x20 DUP1 SWAP2 DIV MUL PUSH1 0x20 ADD PUSH1 0x40 MLOAD SWAP1 DUP2 ADD PUSH1 0x40 MSTORE DUP1 SWAP3 SWAP2 SWAP1 DUP2 DUP2 MSTORE PUSH1 0x20 ADD DUP3 DUP1 SLOAD PUSH2 0x18EE SWAP1 PUSH2 0x463E JUMP JUMPDEST DUP1 ISZERO PUSH2 0x193B JUMPI DUP1 PUSH1 0x1F LT PUSH2 0x1910 JUMPI PUSH2 0x100 DUP1 DUP4 SLOAD DIV MUL DUP4 MSTORE SWAP2 PUSH1 0x20 ADD SWAP2 PUSH2 0x193B JUMP JUMPDEST DUP3 ADD SWAP2 SWAP1 PUSH1 0x0 MSTORE PUSH1 0x20 PUSH1 0x0 KECCAK256 SWAP1 JUMPDEST DUP2 SLOAD DUP2 MSTORE SWAP1 PUSH1 0x1 ADD SWAP1 PUSH1 0x20 ADD DUP1 DUP4 GT PUSH2 0x191E JUMPI DUP3 SWAP1 SUB PUSH1 0x1F AND DUP3 ADD SWAP2 JUMPDEST POP POP POP POP POP DUP2 MSTORE PUSH1 0x20 ADD PUSH1 0x2 DUP3 ADD SLOAD DUP2 MSTORE PUSH1 0x20 ADD PUSH1 0x3 DUP3 ADD SLOAD DUP2 MSTORE PUSH1 0x20 ADD PUSH1 0x4 DUP3 ADD SLOAD DUP2 MSTORE POP POP SWAP2 POP POP SWAP3 SWAP2 POP POP JUMP JUMPDEST PUSH1 0x0 PUSH1 0x7 PUSH1 0x16 SWAP1 SLOAD SWAP1 PUSH2 0x100 EXP SWAP1 DIV PUSH1 0xFF AND SWAP1 POP SWAP1 JUMP JUMPDEST PUSH1 0x0 PUSH1 0x7 PUSH1 0x0 SWAP1 SLOAD SWAP1 PUSH2 0x100 EXP SWAP1 DIV PUSH20 0xFFFFFFFFFFFFFFFFFFFFFFFFFFFFFFFFFFFFFFFF AND SWAP1 POP SWAP1 JUMP JUMPDEST PUSH1 0x60 PUSH1 0x1 DUP1 SLOAD PUSH2 0x19BB SWAP1 PUSH2 0x463E JUMP JUMPDEST DUP1 PUSH1 0x1F ADD PUSH1 0x20 DUP1 SWAP2 DIV MUL PUSH1 0x20 ADD PUSH1 0x40 MLOAD SWAP1 DUP2 ADD PUSH1 0x40 MSTORE DUP1 SWAP3 SWAP2 SWAP1 DUP2 DUP2 MSTORE PUSH1 0x20 ADD DUP3 DUP1 SLOAD PUSH2 0x19E7 SWAP1 PUSH2 0x463E JUMP JUMPDEST DUP1 ISZERO PUSH2 0x1A34 JUMPI DUP1 PUSH1 0x1F LT PUSH2 0x1A09 JUMPI PUSH2 0x100 DUP1 DUP4 SLOAD DIV MUL DUP4 MSTORE SWAP2 PUSH1 0x20 ADD SWAP2 PUSH2 0x1A34 JUMP JUMPDEST DUP3 ADD SWAP2 SWAP1 PUSH1 0x0 MSTORE PUSH1 0x20 PUSH1 0x0 KECCAK256 SWAP1 JUMPDEST DUP2 SLOAD DUP2 MSTORE SWAP1 PUSH1 0x1 ADD SWAP1 PUSH1 0x20 ADD DUP1 DUP4 GT PUSH2 0x1A17 JUMPI DUP3 SWAP1 SUB PUSH1 0x1F AND DUP3 ADD SWAP2 JUMPDEST POP POP POP POP POP SWAP1 POP SWAP1 JUMP JUMPDEST PUSH1 0x7 PUSH1 0x16 SWAP1 SLOAD SWAP1 PUSH2 0x100 EXP SWAP1 DIV PUSH1 0xFF AND DUP2 JUMP JUMPDEST PUSH1 0x0 PUSH1 0xD DUP5 PUSH1 0x40 MLOAD PUSH2 0x1A63 SWAP2 SWAP1 PUSH2 0x4BB0 JUMP JUMPDEST SWAP1 DUP2 MSTORE PUSH1 0x20 ADD PUSH1 0x40 MLOAD DUP1 SWAP2 SUB SWAP1 KECCAK256 SWAP1 POP PUSH1 0x1 DUP2 PUSH1 0x1 ADD PUSH1 0x16 DUP3 DUP3 DUP3 SWAP1 SLOAD SWAP1 PUSH2 0x100 EXP SWAP1 DIV PUSH1 0xFF AND PUSH2 0x1A94 SWAP2 SWAP1 PUSH2 0x4D31 JUMP JUMPDEST SWAP3 POP PUSH2 0x100 EXP DUP2 SLOAD DUP2 PUSH1 0xFF MUL NOT AND SWAP1 DUP4 PUSH1 0xFF AND MUL OR SWAP1 SSTORE POP PUSH1 0x1 PUSH1 0xE PUSH1 0x0 DUP3 DUP3 DUP3 SWAP1 SLOAD SWAP1 PUSH2 0x100 EXP SWAP1 DIV PUSH1 0xFF AND PUSH2 0x1ACB SWAP2 SWAP1 PUSH2 0x4D31 JUMP JUMPDEST SWAP3 POP PUSH2 0x100 EXP DUP2 SLOAD DUP2 PUSH1 0xFF MUL NOT AND SWAP1 DUP4 PUSH1 0xFF AND MUL OR SWAP1 SSTORE POP PUSH1 0x40 MLOAD DUP1 PUSH1 0xC0 ADD PUSH1 0x40 MSTORE DUP1 PUSH1 0xE PUSH1 0x0 SWAP1 SLOAD SWAP1 PUSH2 0x100 EXP SWAP1 DIV PUSH1 0xFF AND PUSH1 0xFF AND DUP2 MSTORE PUSH1 0x20 ADD PUSH1 0x40 MLOAD DUP1 PUSH1 0x20 ADD PUSH1 0x40 MSTORE DUP1 PUSH1 0x0 DUP2 MSTORE POP DUP2 MSTORE PUSH1 0x20 ADD DUP6 DUP2 MSTORE PUSH1 0x20 ADD DUP5 PUSH1 0xFF AND DUP2 MSTORE PUSH1 0x20 ADD DUP4 DUP2 MSTORE PUSH1 0x20 ADD PUSH1 0x1 DUP1 DUP2 GT ISZERO PUSH2 0x1B43 JUMPI PUSH2 0x1B42 PUSH2 0x3DE0 JUMP JUMPDEST JUMPDEST DUP2 MSTORE POP PUSH1 0xF PUSH1 0x0 PUSH1 0xE PUSH1 0x0 SWAP1 SLOAD SWAP1 PUSH2 0x100 EXP SWAP1 DIV PUSH1 0xFF AND PUSH1 0xFF AND PUSH1 0xFF AND DUP2 MSTORE PUSH1 0x20 ADD SWAP1 DUP2 MSTORE PUSH1 0x20 ADD PUSH1 0x0 KECCAK256 PUSH1 0x0 DUP3 ADD MLOAD DUP2 PUSH1 0x0 ADD PUSH1 0x0 PUSH2 0x100 EXP DUP2 SLOAD DUP2 PUSH1 0xFF MUL NOT AND SWAP1 DUP4 PUSH1 0xFF AND MUL OR SWAP1 SSTORE POP PUSH1 0x20 DUP3 ADD MLOAD DUP2 PUSH1 0x1 ADD SWAP1 DUP2 PUSH2 0x1BA4 SWAP2 SWAP1 PUSH2 0x4A29 JUMP JUMPDEST POP PUSH1 0x40 DUP3 ADD MLOAD DUP2 PUSH1 0x2 ADD SWAP1 DUP2 PUSH2 0x1BBA SWAP2 SWAP1 PUSH2 0x4A29 JUMP JUMPDEST POP PUSH1 0x60 DUP3 ADD MLOAD DUP2 PUSH1 0x3 ADD PUSH1 0x0 PUSH2 0x100 EXP DUP2 SLOAD DUP2 PUSH1 0xFF MUL NOT AND SWAP1 DUP4 PUSH1 0xFF AND MUL OR SWAP1 SSTORE POP PUSH1 0x80 DUP3 ADD MLOAD DUP2 PUSH1 0x4 ADD SWAP1 DUP2 PUSH2 0x1BF1 SWAP2 SWAP1 PUSH2 0x4A29 JUMP JUMPDEST POP PUSH1 0xA0 DUP3 ADD MLOAD DUP2 PUSH1 0x5 ADD PUSH1 0x0 PUSH2 0x100 EXP DUP2 SLOAD DUP2 PUSH1 0xFF MUL NOT AND SWAP1 DUP4 PUSH1 0x1 DUP2 GT ISZERO PUSH2 0x1C1D JUMPI PUSH2 0x1C1C PUSH2 0x3DE0 JUMP JUMPDEST JUMPDEST MUL OR SWAP1 SSTORE POP SWAP1 POP POP DUP1 PUSH1 0x3 ADD PUSH1 0xE PUSH1 0x0 SWAP1 SLOAD SWAP1 PUSH2 0x100 EXP SWAP1 DIV PUSH1 0xFF AND SWAP1 DUP1 PUSH1 0x1 DUP2 SLOAD ADD DUP1 DUP3 SSTORE DUP1 SWAP2 POP POP PUSH1 0x1 SWAP1 SUB SWAP1 PUSH1 0x0 MSTORE PUSH1 0x20 PUSH1 0x0 KECCAK256 SWAP1 PUSH1 0x20 SWAP2 DUP3 DUP3 DIV ADD SWAP2 SWAP1 MOD SWAP1 SWAP2 SWAP1 SWAP2 SWAP1 SWAP2 PUSH2 0x100 EXP DUP2 SLOAD DUP2 PUSH1 0xFF MUL NOT AND SWAP1 DUP4 PUSH1 0xFF AND MUL OR SWAP1 SSTORE POP PUSH32 0x35890C53B6CCA05BAA454B4E6EF314F4EAED4846617B8F00664C5A62501D9B7A DUP3 DUP5 CALLER PUSH1 0x40 MLOAD PUSH2 0x1CAE SWAP4 SWAP3 SWAP2 SWAP1 PUSH2 0x4D66 JUMP JUMPDEST PUSH1 0x40 MLOAD DUP1 SWAP2 SUB SWAP1 LOG1 POP POP POP POP JUMP JUMPDEST PUSH1 0xE PUSH1 0x0 SWAP1 SLOAD SWAP1 PUSH2 0x100 EXP SWAP1 DIV PUSH1 0xFF AND DUP2 JUMP JUMPDEST PUSH2 0x1CE1 PUSH2 0x1CDA PUSH2 0x27A8 JUMP JUMPDEST DUP4 DUP4 PUSH2 0x2D78 JUMP JUMPDEST POP POP JUMP JUMPDEST PUSH1 0x0 PUSH1 0xB DUP5 PUSH1 0x40 MLOAD PUSH2 0x1CF7 SWAP2 SWAP1 PUSH2 0x4BB0 JUMP JUMPDEST SWAP1 DUP2 MSTORE PUSH1 0x20 ADD PUSH1 0x40 MLOAD DUP1 SWAP2 SUB SWAP1 KECCAK256 SWAP1 POP PUSH1 0x0 PUSH1 0xD DUP5 PUSH1 0x40 MLOAD PUSH2 0x1D19 SWAP2 SWAP1 PUSH2 0x4BB0 JUMP JUMPDEST SWAP1 DUP2 MSTORE PUSH1 0x20 ADD PUSH1 0x40 MLOAD DUP1 SWAP2 SUB SWAP1 KECCAK256 SWAP1 POP PUSH1 0x0 PUSH1 0xF PUSH1 0x0 DUP6 PUSH1 0xFF AND PUSH1 0xFF AND DUP2 MSTORE PUSH1 0x20 ADD SWAP1 DUP2 MSTORE PUSH1 0x20 ADD PUSH1 0x0 KECCAK256 SWAP1 POP PUSH1 0x0 DUP2 PUSH1 0x3 ADD PUSH1 0x0 SWAP1 SLOAD SWAP1 PUSH2 0x100 EXP SWAP1 DIV PUSH1 0xFF AND SWAP1 POP DUP3 PUSH1 0x1 ADD PUSH1 0x0 SWAP1 SLOAD SWAP1 PUSH2 0x100 EXP SWAP1 DIV PUSH20 0xFFFFFFFFFFFFFFFFFFFFFFFFFFFFFFFFFFFFFFFF AND PUSH20 0xFFFFFFFFFFFFFFFFFFFFFFFFFFFFFFFFFFFFFFFF AND PUSH2 0x8FC DUP3 PUSH1 0xFF AND SWAP1 DUP2 ISZERO MUL SWAP1 PUSH1 0x40 MLOAD PUSH1 0x0 PUSH1 0x40 MLOAD DUP1 DUP4 SUB DUP2 DUP6 DUP9 DUP9 CALL SWAP4 POP POP POP POP ISZERO DUP1 ISZERO PUSH2 0x1DC9 JUMPI RETURNDATASIZE PUSH1 0x0 DUP1 RETURNDATACOPY RETURNDATASIZE PUSH1 0x0 REVERT JUMPDEST POP DUP7 DUP3 PUSH1 0x1 ADD SWAP1 DUP2 PUSH2 0x1DDB SWAP2 SWAP1 PUSH2 0x4A29 JUMP JUMPDEST POP PUSH1 0x0 DUP3 PUSH1 0x5 ADD PUSH1 0x0 PUSH2 0x100 EXP DUP2 SLOAD DUP2 PUSH1 0xFF MUL NOT AND SWAP1 DUP4 PUSH1 0x1 DUP2 GT ISZERO PUSH2 0x1E04 JUMPI PUSH2 0x1E03 PUSH2 0x3DE0 JUMP JUMPDEST JUMPDEST MUL OR SWAP1 SSTORE POP DUP2 DUP5 PUSH1 0x5 ADD PUSH1 0x0 DUP8 PUSH1 0xFF AND PUSH1 0xFF AND DUP2 MSTORE PUSH1 0x20 ADD SWAP1 DUP2 MSTORE PUSH1 0x20 ADD PUSH1 0x0 KECCAK256 PUSH1 0x0 DUP3 ADD PUSH1 0x0 SWAP1 SLOAD SWAP1 PUSH2 0x100 EXP SWAP1 DIV PUSH1 0xFF AND DUP2 PUSH1 0x0 ADD PUSH1 0x0 PUSH2 0x100 EXP DUP2 SLOAD DUP2 PUSH1 0xFF MUL NOT AND SWAP1 DUP4 PUSH1 0xFF AND MUL OR SWAP1 SSTORE POP PUSH1 0x1 DUP3 ADD DUP2 PUSH1 0x1 ADD SWAP1 DUP2 PUSH2 0x1E67 SWAP2 SWAP1 PUSH2 0x4DBA JUMP JUMPDEST POP PUSH1 0x2 DUP3 ADD DUP2 PUSH1 0x2 ADD SWAP1 DUP2 PUSH2 0x1E7C SWAP2 SWAP1 PUSH2 0x4DBA JUMP JUMPDEST POP PUSH1 0x3 DUP3 ADD PUSH1 0x0 SWAP1 SLOAD SWAP1 PUSH2 0x100 EXP SWAP1 DIV PUSH1 0xFF AND DUP2 PUSH1 0x3 ADD PUSH1 0x0 PUSH2 0x100 EXP DUP2 SLOAD DUP2 PUSH1 0xFF MUL NOT AND SWAP1 DUP4 PUSH1 0xFF AND MUL OR SWAP1 SSTORE POP PUSH1 0x4 DUP3 ADD DUP2 PUSH1 0x4 ADD SWAP1 DUP2 PUSH2 0x1EBF SWAP2 SWAP1 PUSH2 0x4DBA JUMP JUMPDEST POP PUSH1 0x5 DUP3 ADD PUSH1 0x0 SWAP1 SLOAD SWAP1 PUSH2 0x100 EXP SWAP1 DIV PUSH1 0xFF AND DUP2 PUSH1 0x5 ADD PUSH1 0x0 PUSH2 0x100 EXP DUP2 SLOAD DUP2 PUSH1 0xFF MUL NOT AND SWAP1 DUP4 PUSH1 0x1 DUP2 GT ISZERO PUSH2 0x1EF8 JUMPI PUSH2 0x1EF7 PUSH2 0x3DE0 JUMP JUMPDEST JUMPDEST MUL OR SWAP1 SSTORE POP SWAP1 POP POP POP POP POP POP POP POP POP JUMP JUMPDEST PUSH1 0x9 PUSH1 0x20 MSTORE DUP1 PUSH1 0x0 MSTORE PUSH1 0x40 PUSH1 0x0 KECCAK256 PUSH1 0x0 SWAP2 POP SWAP1 POP DUP1 PUSH1 0x0 ADD PUSH1 0x0 SWAP1 SLOAD SWAP1 PUSH2 0x100 EXP SWAP1 DIV PUSH1 0xFF AND SWAP1 DUP1 PUSH1 0x1 ADD DUP1 SLOAD PUSH2 0x1F3F SWAP1 PUSH2 0x463E JUMP JUMPDEST DUP1 PUSH1 0x1F ADD PUSH1 0x20 DUP1 SWAP2 DIV MUL PUSH1 0x20 ADD PUSH1 0x40 MLOAD SWAP1 DUP2 ADD PUSH1 0x40 MSTORE DUP1 SWAP3 SWAP2 SWAP1 DUP2 DUP2 MSTORE PUSH1 0x20 ADD DUP3 DUP1 SLOAD PUSH2 0x1F6B SWAP1 PUSH2 0x463E JUMP JUMPDEST DUP1 ISZERO PUSH2 0x1FB8 JUMPI DUP1 PUSH1 0x1F LT PUSH2 0x1F8D JUMPI PUSH2 0x100 DUP1 DUP4 SLOAD DIV MUL DUP4 MSTORE SWAP2 PUSH1 0x20 ADD SWAP2 PUSH2 0x1FB8 JUMP JUMPDEST DUP3 ADD SWAP2 SWAP1 PUSH1 0x0 MSTORE PUSH1 0x20 PUSH1 0x0 KECCAK256 SWAP1 JUMPDEST DUP2 SLOAD DUP2 MSTORE SWAP1 PUSH1 0x1 ADD SWAP1 PUSH1 0x20 ADD DUP1 DUP4 GT PUSH2 0x1F9B JUMPI DUP3 SWAP1 SUB PUSH1 0x1F AND DUP3 ADD SWAP2 JUMPDEST POP POP POP POP POP SWAP1 DUP1 PUSH1 0x2 ADD DUP1 SLOAD PUSH2 0x1FCD SWAP1 PUSH2 0x463E JUMP JUMPDEST DUP1 PUSH1 0x1F ADD PUSH1 0x20 DUP1 SWAP2 DIV MUL PUSH1 0x20 ADD PUSH1 0x40 MLOAD SWAP1 DUP2 ADD PUSH1 0x40 MSTORE DUP1 SWAP3 SWAP2 SWAP1 DUP2 DUP2 MSTORE PUSH1 0x20 ADD DUP3 DUP1 SLOAD PUSH2 0x1FF9 SWAP1 PUSH2 0x463E JUMP JUMPDEST DUP1 ISZERO PUSH2 0x2046 JUMPI DUP1 PUSH1 0x1F LT PUSH2 0x201B JUMPI PUSH2 0x100 DUP1 DUP4 SLOAD DIV MUL DUP4 MSTORE SWAP2 PUSH1 0x20 ADD SWAP2 PUSH2 0x2046 JUMP JUMPDEST DUP3 ADD SWAP2 SWAP1 PUSH1 0x0 MSTORE PUSH1 0x20 PUSH1 0x0 KECCAK256 SWAP1 JUMPDEST DUP2 SLOAD DUP2 MSTORE SWAP1 PUSH1 0x1 ADD SWAP1 PUSH1 0x20 ADD DUP1 DUP4 GT PUSH2 0x2029 JUMPI DUP3 SWAP1 SUB PUSH1 0x1F AND DUP3 ADD SWAP2 JUMPDEST POP POP POP POP POP SWAP1 POP DUP4 JUMP JUMPDEST PUSH2 0x2061 PUSH2 0x205B PUSH2 0x27A8 JUMP JUMPDEST DUP4 PUSH2 0x2869 JUMP JUMPDEST PUSH2 0x20A0 JUMPI PUSH1 0x40 MLOAD PUSH32 0x8C379A000000000000000000000000000000000000000000000000000000000 DUP2 MSTORE PUSH1 0x4 ADD PUSH2 0x2097 SWAP1 PUSH2 0x4805 JUMP JUMPDEST PUSH1 0x40 MLOAD DUP1 SWAP2 SUB SWAP1 REVERT JUMPDEST PUSH2 0x20AC DUP5 DUP5 DUP5 DUP5 PUSH2 0x2EE4 JUMP JUMPDEST POP POP POP POP JUMP JUMPDEST PUSH1 0x0 PUSH1 0xB DUP5 PUSH1 0x40 MLOAD PUSH2 0x20C4 SWAP2 SWAP1 PUSH2 0x4BB0 JUMP JUMPDEST SWAP1 DUP2 MSTORE PUSH1 0x20 ADD PUSH1 0x40 MLOAD DUP1 SWAP2 SUB SWAP1 KECCAK256 SWAP1 POP PUSH1 0x0 PUSH1 0x8 PUSH1 0x0 DUP6 PUSH1 0xFF AND PUSH1 0xFF AND DUP2 MSTORE PUSH1 0x20 ADD SWAP1 DUP2 MSTORE PUSH1 0x20 ADD PUSH1 0x0 KECCAK256 SWAP1 POP DUP3 DUP2 PUSH1 0x2 ADD PUSH1 0x0 DUP3 DUP3 SLOAD PUSH2 0x2105 SWAP2 SWAP1 PUSH2 0x4EA2 JUMP JUMPDEST SWAP3 POP POP DUP2 SWAP1 SSTORE POP CALLER PUSH20 0xFFFFFFFFFFFFFFFFFFFFFFFFFFFFFFFFFFFFFFFF AND PUSH2 0x8FC DUP3 PUSH1 0x4 ADD SLOAD DUP6 PUSH2 0x2136 SWAP2 SWAP1 PUSH2 0x4ED6 JUMP JUMPDEST SWAP1 DUP2 ISZERO MUL SWAP1 PUSH1 0x40 MLOAD PUSH1 0x0 PUSH1 0x40 MLOAD DUP1 DUP4 SUB DUP2 DUP6 DUP9 DUP9 CALL SWAP4 POP POP POP POP ISZERO DUP1 ISZERO PUSH2 0x2161 JUMPI RETURNDATASIZE PUSH1 0x0 DUP1 RETURNDATACOPY RETURNDATASIZE PUSH1 0x0 REVERT JUMPDEST POP DUP3 DUP3 PUSH1 0x1 ADD PUSH1 0x0 DUP3 DUP3 SLOAD PUSH2 0x2176 SWAP2 SWAP1 PUSH2 0x4EA2 JUMP JUMPDEST SWAP3 POP POP DUP2 SWAP1 SSTORE POP PUSH1 0x0 PUSH2 0x218C DUP4 PUSH1 0x1 ADD SLOAD PUSH2 0x2F40 JUMP JUMPDEST SWAP1 POP PUSH1 0x0 DUP2 PUSH1 0xFF AND EQ PUSH2 0x21EB JUMPI PUSH2 0x21A2 DUP2 PUSH2 0x2F82 JUMP JUMPDEST POP DUP3 PUSH1 0x6 ADD DUP2 SWAP1 DUP1 PUSH1 0x1 DUP2 SLOAD ADD DUP1 DUP3 SSTORE DUP1 SWAP2 POP POP PUSH1 0x1 SWAP1 SUB SWAP1 PUSH1 0x0 MSTORE PUSH1 0x20 PUSH1 0x0 KECCAK256 SWAP1 PUSH1 0x20 SWAP2 DUP3 DUP3 DIV ADD SWAP2 SWAP1 MOD SWAP1 SWAP2 SWAP1 SWAP2 SWAP1 SWAP2 PUSH2 0x100 EXP DUP2 SLOAD DUP2 PUSH1 0xFF MUL NOT AND SWAP1 DUP4 PUSH1 0xFF AND MUL OR SWAP1 SSTORE POP JUMPDEST POP POP POP POP POP POP JUMP JUMPDEST PUSH1 0x60 PUSH2 0x21FE DUP3 PUSH2 0x275D JUMP JUMPDEST PUSH1 0x0 PUSH1 0x6 PUSH1 0x0 DUP5 DUP2 MSTORE PUSH1 0x20 ADD SWAP1 DUP2 MSTORE PUSH1 0x20 ADD PUSH1 0x0 KECCAK256 DUP1 SLOAD PUSH2 0x221E SWAP1 PUSH2 0x463E JUMP JUMPDEST DUP1 PUSH1 0x1F ADD PUSH1 0x20 DUP1 SWAP2 DIV MUL PUSH1 0x20 ADD PUSH1 0x40 MLOAD SWAP1 DUP2 ADD PUSH1 0x40 MSTORE DUP1 SWAP3 SWAP2 SWAP1 DUP2 DUP2 MSTORE PUSH1 0x20 ADD DUP3 DUP1 SLOAD PUSH2 0x224A SWAP1 PUSH2 0x463E JUMP JUMPDEST DUP1 ISZERO PUSH2 0x2297 JUMPI DUP1 PUSH1 0x1F LT PUSH2 0x226C JUMPI PUSH2 0x100 DUP1 DUP4 SLOAD DIV MUL DUP4 MSTORE SWAP2 PUSH1 0x20 ADD SWAP2 PUSH2 0x2297 JUMP JUMPDEST DUP3 ADD SWAP2 SWAP1 PUSH1 0x0 MSTORE PUSH1 0x20 PUSH1 0x0 KECCAK256 SWAP1 JUMPDEST DUP2 SLOAD DUP2 MSTORE SWAP1 PUSH1 0x1 ADD SWAP1 PUSH1 0x20 ADD DUP1 DUP4 GT PUSH2 0x227A JUMPI DUP3 SWAP1 SUB PUSH1 0x1F AND DUP3 ADD SWAP2 JUMPDEST POP POP POP POP POP SWAP1 POP PUSH1 0x0 PUSH2 0x22A8 PUSH2 0x3100 JUMP JUMPDEST SWAP1 POP PUSH1 0x0 DUP2 MLOAD SUB PUSH2 0x22BD JUMPI DUP2 SWAP3 POP POP POP PUSH2 0x2300 JUMP JUMPDEST PUSH1 0x0 DUP3 MLOAD GT ISZERO PUSH2 0x22F2 JUMPI DUP1 DUP3 PUSH1 0x40 MLOAD PUSH1 0x20 ADD PUSH2 0x22DA SWAP3 SWAP2 SWAP1 PUSH2 0x4F18 JUMP JUMPDEST PUSH1 0x40 MLOAD PUSH1 0x20 DUP2 DUP4 SUB SUB DUP2 MSTORE SWAP1 PUSH1 0x40 MSTORE SWAP3 POP POP POP PUSH2 0x2300 JUMP JUMPDEST PUSH2 0x22FB DUP5 PUSH2 0x3117 JUMP JUMPDEST SWAP3 POP POP POP JUMPDEST SWAP2 SWAP1 POP JUMP JUMPDEST PUSH1 0x7 PUSH1 0x15 SWAP1 SLOAD SWAP1 PUSH2 0x100 EXP SWAP1 DIV PUSH1 0xFF AND DUP2 JUMP JUMPDEST PUSH1 0xC PUSH1 0x0 DUP2 DUP2 SWAP1 SLOAD SWAP1 PUSH2 0x100 EXP SWAP1 DIV PUSH1 0xFF AND DUP1 SWAP3 SWAP2 SWAP1 PUSH2 0x2337 SWAP1 PUSH2 0x4854 JUMP JUMPDEST SWAP2 SWAP1 PUSH2 0x100 EXP DUP2 SLOAD DUP2 PUSH1 0xFF MUL NOT AND SWAP1 DUP4 PUSH1 0xFF AND MUL OR SWAP1 SSTORE POP POP PUSH1 0xD DUP2 PUSH1 0x40 MLOAD PUSH2 0x2360 SWAP2 SWAP1 PUSH2 0x4BB0 JUMP JUMPDEST SWAP1 DUP2 MSTORE PUSH1 0x20 ADD PUSH1 0x40 MLOAD DUP1 SWAP2 SUB SWAP1 KECCAK256 PUSH1 0x1 ADD PUSH1 0x15 SWAP1 SLOAD SWAP1 PUSH2 0x100 EXP SWAP1 DIV PUSH1 0xFF AND ISZERO PUSH2 0x23BF JUMPI PUSH1 0x40 MLOAD PUSH32 0x8C379A000000000000000000000000000000000000000000000000000000000 DUP2 MSTORE PUSH1 0x4 ADD PUSH2 0x23B6 SWAP1 PUSH2 0x4F88 JUMP JUMPDEST PUSH1 0x40 MLOAD DUP1 SWAP2 SUB SWAP1 REVERT JUMPDEST PUSH1 0x0 PUSH1 0xD DUP3 PUSH1 0x40 MLOAD PUSH2 0x23D1 SWAP2 SWAP1 PUSH2 0x4BB0 JUMP JUMPDEST SWAP1 DUP2 MSTORE PUSH1 0x20 ADD PUSH1 0x40 MLOAD DUP1 SWAP2 SUB SWAP1 KECCAK256 SWAP1 POP DUP2 DUP2 PUSH1 0x0 ADD SWAP1 DUP2 PUSH2 0x23F2 SWAP2 SWAP1 PUSH2 0x4A29 JUMP JUMPDEST POP CALLER DUP2 PUSH1 0x1 ADD PUSH1 0x0 PUSH2 0x100 EXP DUP2 SLOAD DUP2 PUSH20 0xFFFFFFFFFFFFFFFFFFFFFFFFFFFFFFFFFFFFFFFF MUL NOT AND SWAP1 DUP4 PUSH20 0xFFFFFFFFFFFFFFFFFFFFFFFFFFFFFFFFFFFFFFFF AND MUL OR SWAP1 SSTORE POP PUSH1 0x1 DUP2 PUSH1 0x1 ADD PUSH1 0x15 PUSH2 0x100 EXP DUP2 SLOAD DUP2 PUSH1 0xFF MUL NOT AND SWAP1 DUP4 ISZERO ISZERO MUL OR SWAP1 SSTORE POP POP POP JUMP JUMPDEST PUSH1 0x0 PUSH1 0x5 PUSH1 0x0 DUP5 PUSH20 0xFFFFFFFFFFFFFFFFFFFFFFFFFFFFFFFFFFFFFFFF AND PUSH20 0xFFFFFFFFFFFFFFFFFFFFFFFFFFFFFFFFFFFFFFFF AND DUP2 MSTORE PUSH1 0x20 ADD SWAP1 DUP2 MSTORE PUSH1 0x20 ADD PUSH1 0x0 KECCAK256 PUSH1 0x0 DUP4 PUSH20 0xFFFFFFFFFFFFFFFFFFFFFFFFFFFFFFFFFFFFFFFF AND PUSH20 0xFFFFFFFFFFFFFFFFFFFFFFFFFFFFFFFFFFFFFFFF AND DUP2 MSTORE PUSH1 0x20 ADD SWAP1 DUP2 MSTORE PUSH1 0x20 ADD PUSH1 0x0 KECCAK256 PUSH1 0x0 SWAP1 SLOAD SWAP1 PUSH2 0x100 EXP SWAP1 DIV PUSH1 0xFF AND SWAP1 POP SWAP3 SWAP2 POP POP JUMP JUMPDEST PUSH2 0x24F3 PUSH2 0x2BF7 JUMP JUMPDEST PUSH1 0x0 PUSH20 0xFFFFFFFFFFFFFFFFFFFFFFFFFFFFFFFFFFFFFFFF AND DUP2 PUSH20 0xFFFFFFFFFFFFFFFFFFFFFFFFFFFFFFFFFFFFFFFF AND SUB PUSH2 0x2562 JUMPI PUSH1 0x40 MLOAD PUSH32 0x8C379A000000000000000000000000000000000000000000000000000000000 DUP2 MSTORE PUSH1 0x4 ADD PUSH2 0x2559 SWAP1 PUSH2 0x501A JUMP JUMPDEST PUSH1 0x40 MLOAD DUP1 SWAP2 SUB SWAP1 REVERT JUMPDEST PUSH2 0x256B DUP2 PUSH2 0x2CB2 JUMP JUMPDEST POP JUMP JUMPDEST PUSH1 0x8 PUSH1 0x0 DUP4 PUSH1 0xFF AND PUSH1 0xFF AND DUP2 MSTORE PUSH1 0x20 ADD SWAP1 DUP2 MSTORE PUSH1 0x20 ADD PUSH1 0x0 KECCAK256 PUSH1 0x4 ADD SLOAD DUP2 PUSH2 0x2596 SWAP2 SWAP1 PUSH2 0x4ED6 JUMP JUMPDEST CALLVALUE LT ISZERO PUSH2 0x25D8 JUMPI PUSH1 0x40 MLOAD PUSH32 0x8C379A000000000000000000000000000000000000000000000000000000000 DUP2 MSTORE PUSH1 0x4 ADD PUSH2 0x25CF SWAP1 PUSH2 0x5086 JUMP JUMPDEST PUSH1 0x40 MLOAD DUP1 SWAP2 SUB SWAP1 REVERT JUMPDEST PUSH1 0x0 PUSH1 0xD DUP5 PUSH1 0x40 MLOAD PUSH2 0x25EA SWAP2 SWAP1 PUSH2 0x4BB0 JUMP JUMPDEST SWAP1 DUP2 MSTORE PUSH1 0x20 ADD PUSH1 0x40 MLOAD DUP1 SWAP2 SUB SWAP1 KECCAK256 SWAP1 POP DUP2 PUSH1 0x8 PUSH1 0x0 DUP6 PUSH1 0xFF AND PUSH1 0xFF AND DUP2 MSTORE PUSH1 0x20 ADD SWAP1 DUP2 MSTORE PUSH1 0x20 ADD PUSH1 0x0 KECCAK256 PUSH1 0x2 ADD PUSH1 0x0 DUP3 DUP3 SLOAD PUSH2 0x2626 SWAP2 SWAP1 PUSH2 0x50A6 JUMP JUMPDEST SWAP3 POP POP DUP2 SWAP1 SSTORE POP DUP2 DUP2 PUSH1 0x2 ADD PUSH1 0x0 DUP6 PUSH1 0xFF AND PUSH1 0xFF AND DUP2 MSTORE PUSH1 0x20 ADD SWAP1 DUP2 MSTORE PUSH1 0x20 ADD PUSH1 0x0 KECCAK256 PUSH1 0x2 ADD PUSH1 0x0 DUP3 DUP3 SLOAD PUSH2 0x265B SWAP2 SWAP1 PUSH2 0x4EA2 JUMP JUMPDEST SWAP3 POP POP DUP2 SWAP1 SSTORE POP POP POP POP POP JUMP JUMPDEST PUSH1 0xC PUSH1 0x0 SWAP1 SLOAD SWAP1 PUSH2 0x100 EXP SWAP1 DIV PUSH1 0xFF AND DUP2 JUMP JUMPDEST PUSH1 0x0 PUSH32 0x80AC58CD00000000000000000000000000000000000000000000000000000000 PUSH28 0xFFFFFFFFFFFFFFFFFFFFFFFFFFFFFFFFFFFFFFFFFFFFFFFFFFFFFFFF NOT AND DUP3 PUSH28 0xFFFFFFFFFFFFFFFFFFFFFFFFFFFFFFFFFFFFFFFFFFFFFFFFFFFFFFFF NOT AND EQ DUP1 PUSH2 0x2746 JUMPI POP PUSH32 0x5B5E139F00000000000000000000000000000000000000000000000000000000 PUSH28 0xFFFFFFFFFFFFFFFFFFFFFFFFFFFFFFFFFFFFFFFFFFFFFFFFFFFFFFFF NOT AND DUP3 PUSH28 0xFFFFFFFFFFFFFFFFFFFFFFFFFFFFFFFFFFFFFFFFFFFFFFFFFFFFFFFF NOT AND EQ JUMPDEST DUP1 PUSH2 0x2756 JUMPI POP PUSH2 0x2755 DUP3 PUSH2 0x317F JUMP JUMPDEST JUMPDEST SWAP1 POP SWAP2 SWAP1 POP JUMP JUMPDEST PUSH2 0x2766 DUP2 PUSH2 0x31E9 JUMP JUMPDEST PUSH2 0x27A5 JUMPI PUSH1 0x40 MLOAD PUSH32 0x8C379A000000000000000000000000000000000000000000000000000000000 DUP2 MSTORE PUSH1 0x4 ADD PUSH2 0x279C SWAP1 PUSH2 0x4C7F JUMP JUMPDEST PUSH1 0x40 MLOAD DUP1 SWAP2 SUB SWAP1 REVERT JUMPDEST POP JUMP JUMPDEST PUSH1 0x0 CALLER SWAP1 POP SWAP1 JUMP JUMPDEST DUP2 PUSH1 0x4 PUSH1 0x0 DUP4 DUP2 MSTORE PUSH1 0x20 ADD SWAP1 DUP2 MSTORE PUSH1 0x20 ADD PUSH1 0x0 KECCAK256 PUSH1 0x0 PUSH2 0x100 EXP DUP2 SLOAD DUP2 PUSH20 0xFFFFFFFFFFFFFFFFFFFFFFFFFFFFFFFFFFFFFFFF MUL NOT AND SWAP1 DUP4 PUSH20 0xFFFFFFFFFFFFFFFFFFFFFFFFFFFFFFFFFFFFFFFF AND MUL OR SWAP1 SSTORE POP DUP1 DUP3 PUSH20 0xFFFFFFFFFFFFFFFFFFFFFFFFFFFFFFFFFFFFFFFF AND PUSH2 0x2823 DUP4 PUSH2 0x143C JUMP JUMPDEST PUSH20 0xFFFFFFFFFFFFFFFFFFFFFFFFFFFFFFFFFFFFFFFF AND PUSH32 0x8C5BE1E5EBEC7D5BD14F71427D1E84F3DD0314C0F7B2291E5B200AC8C7C3B925 PUSH1 0x40 MLOAD PUSH1 0x40 MLOAD DUP1 SWAP2 SUB SWAP1 LOG4 POP POP JUMP JUMPDEST PUSH1 0x0 DUP1 PUSH2 0x2875 DUP4 PUSH2 0x143C JUMP JUMPDEST SWAP1 POP DUP1 PUSH20 0xFFFFFFFFFFFFFFFFFFFFFFFFFFFFFFFFFFFFFFFF AND DUP5 PUSH20 0xFFFFFFFFFFFFFFFFFFFFFFFFFFFFFFFFFFFFFFFF AND EQ DUP1 PUSH2 0x28B7 JUMPI POP PUSH2 0x28B6 DUP2 DUP6 PUSH2 0x2457 JUMP JUMPDEST JUMPDEST DUP1 PUSH2 0x28F5 JUMPI POP DUP4 PUSH20 0xFFFFFFFFFFFFFFFFFFFFFFFFFFFFFFFFFFFFFFFF AND PUSH2 0x28DD DUP5 PUSH2 0xB3A JUMP JUMPDEST PUSH20 0xFFFFFFFFFFFFFFFFFFFFFFFFFFFFFFFFFFFFFFFF AND EQ JUMPDEST SWAP2 POP POP SWAP3 SWAP2 POP POP JUMP JUMPDEST DUP3 PUSH20 0xFFFFFFFFFFFFFFFFFFFFFFFFFFFFFFFFFFFFFFFF AND PUSH2 0x291E DUP3 PUSH2 0x143C JUMP JUMPDEST PUSH20 0xFFFFFFFFFFFFFFFFFFFFFFFFFFFFFFFFFFFFFFFF AND EQ PUSH2 0x2974 JUMPI PUSH1 0x40 MLOAD PUSH32 0x8C379A000000000000000000000000000000000000000000000000000000000 DUP2 MSTORE PUSH1 0x4 ADD PUSH2 0x296B SWAP1 PUSH2 0x514C JUMP JUMPDEST PUSH1 0x40 MLOAD DUP1 SWAP2 SUB SWAP1 REVERT JUMPDEST PUSH1 0x0 PUSH20 0xFFFFFFFFFFFFFFFFFFFFFFFFFFFFFFFFFFFFFFFF AND DUP3 PUSH20 0xFFFFFFFFFFFFFFFFFFFFFFFFFFFFFFFFFFFFFFFF AND SUB PUSH2 0x29E3 JUMPI PUSH1 0x40 MLOAD PUSH32 0x8C379A000000000000000000000000000000000000000000000000000000000 DUP2 MSTORE PUSH1 0x4 ADD PUSH2 0x29DA SWAP1 PUSH2 0x51DE JUMP JUMPDEST PUSH1 0x40 MLOAD DUP1 SWAP2 SUB SWAP1 REVERT JUMPDEST PUSH2 0x29F0 DUP4 DUP4 DUP4 PUSH1 0x1 PUSH2 0x322A JUMP JUMPDEST DUP3 PUSH20 0xFFFFFFFFFFFFFFFFFFFFFFFFFFFFFFFFFFFFFFFF AND PUSH2 0x2A10 DUP3 PUSH2 0x143C JUMP JUMPDEST PUSH20 0xFFFFFFFFFFFFFFFFFFFFFFFFFFFFFFFFFFFFFFFF AND EQ PUSH2 0x2A66 JUMPI PUSH1 0x40 MLOAD PUSH32 0x8C379A000000000000000000000000000000000000000000000000000000000 DUP2 MSTORE PUSH1 0x4 ADD PUSH2 0x2A5D SWAP1 PUSH2 0x514C JUMP JUMPDEST PUSH1 0x40 MLOAD DUP1 SWAP2 SUB SWAP1 REVERT JUMPDEST PUSH1 0x4 PUSH1 0x0 DUP3 DUP2 MSTORE PUSH1 0x20 ADD SWAP1 DUP2 MSTORE PUSH1 0x20 ADD PUSH1 0x0 KECCAK256 PUSH1 0x0 PUSH2 0x100 EXP DUP2 SLOAD SWAP1 PUSH20 0xFFFFFFFFFFFFFFFFFFFFFFFFFFFFFFFFFFFFFFFF MUL NOT AND SWAP1 SSTORE PUSH1 0x1 PUSH1 0x3 PUSH1 0x0 DUP6 PUSH20 0xFFFFFFFFFFFFFFFFFFFFFFFFFFFFFFFFFFFFFFFF AND PUSH20 0xFFFFFFFFFFFFFFFFFFFFFFFFFFFFFFFFFFFFFFFF AND DUP2 MSTORE PUSH1 0x20 ADD SWAP1 DUP2 MSTORE PUSH1 0x20 ADD PUSH1 0x0 KECCAK256 PUSH1 0x0 DUP3 DUP3 SLOAD SUB SWAP3 POP POP DUP2 SWAP1 SSTORE POP PUSH1 0x1 PUSH1 0x3 PUSH1 0x0 DUP5 PUSH20 0xFFFFFFFFFFFFFFFFFFFFFFFFFFFFFFFFFFFFFFFF AND PUSH20 0xFFFFFFFFFFFFFFFFFFFFFFFFFFFFFFFFFFFFFFFF AND DUP2 MSTORE PUSH1 0x20 ADD SWAP1 DUP2 MSTORE PUSH1 0x20 ADD PUSH1 0x0 KECCAK256 PUSH1 0x0 DUP3 DUP3 SLOAD ADD SWAP3 POP POP DUP2 SWAP1 SSTORE POP DUP2 PUSH1 0x2 PUSH1 0x0 DUP4 DUP2 MSTORE PUSH1 0x20 ADD SWAP1 DUP2 MSTORE PUSH1 0x20 ADD PUSH1 0x0 KECCAK256 PUSH1 0x0 PUSH2 0x100 EXP DUP2 SLOAD DUP2 PUSH20 0xFFFFFFFFFFFFFFFFFFFFFFFFFFFFFFFFFFFFFFFF MUL NOT AND SWAP1 DUP4 PUSH20 0xFFFFFFFFFFFFFFFFFFFFFFFFFFFFFFFFFFFFFFFF AND MUL OR SWAP1 SSTORE POP DUP1 DUP3 PUSH20 0xFFFFFFFFFFFFFFFFFFFFFFFFFFFFFFFFFFFFFFFF AND DUP5 PUSH20 0xFFFFFFFFFFFFFFFFFFFFFFFFFFFFFFFFFFFFFFFF AND PUSH32 0xDDF252AD1BE2C89B69C2B068FC378DAA952BA7F163C4A11628F55A4DF523B3EF PUSH1 0x40 MLOAD PUSH1 0x40 MLOAD DUP1 SWAP2 SUB SWAP1 LOG4 PUSH2 0x2BF2 DUP4 DUP4 DUP4 PUSH1 0x1 PUSH2 0x3230 JUMP JUMPDEST POP POP POP JUMP JUMPDEST PUSH2 0x2BFF PUSH2 0x27A8 JUMP JUMPDEST PUSH20 0xFFFFFFFFFFFFFFFFFFFFFFFFFFFFFFFFFFFFFFFF AND PUSH2 0x2C1D PUSH2 0x1982 JUMP JUMPDEST PUSH20 0xFFFFFFFFFFFFFFFFFFFFFFFFFFFFFFFFFFFFFFFF AND EQ PUSH2 0x2C73 JUMPI PUSH1 0x40 MLOAD PUSH32 0x8C379A000000000000000000000000000000000000000000000000000000000 DUP2 MSTORE PUSH1 0x4 ADD PUSH2 0x2C6A SWAP1 PUSH2 0x524A JUMP JUMPDEST PUSH1 0x40 MLOAD DUP1 SWAP2 SUB SWAP1 REVERT JUMPDEST JUMP JUMPDEST PUSH1 0x0 PUSH1 0x2 PUSH1 0x0 DUP4 DUP2 MSTORE PUSH1 0x20 ADD SWAP1 DUP2 MSTORE PUSH1 0x20 ADD PUSH1 0x0 KECCAK256 PUSH1 0x0 SWAP1 SLOAD SWAP1 PUSH2 0x100 EXP SWAP1 DIV PUSH20 0xFFFFFFFFFFFFFFFFFFFFFFFFFFFFFFFFFFFFFFFF AND SWAP1 POP SWAP2 SWAP1 POP JUMP JUMPDEST PUSH1 0x0 PUSH1 0x7 PUSH1 0x0 SWAP1 SLOAD SWAP1 PUSH2 0x100 EXP SWAP1 DIV PUSH20 0xFFFFFFFFFFFFFFFFFFFFFFFFFFFFFFFFFFFFFFFF AND SWAP1 POP DUP2 PUSH1 0x7 PUSH1 0x0 PUSH2 0x100 EXP DUP2 SLOAD DUP2 PUSH20 0xFFFFFFFFFFFFFFFFFFFFFFFFFFFFFFFFFFFFFFFF MUL NOT AND SWAP1 DUP4 PUSH20 0xFFFFFFFFFFFFFFFFFFFFFFFFFFFFFFFFFFFFFFFF AND MUL OR SWAP1 SSTORE POP DUP2 PUSH20 0xFFFFFFFFFFFFFFFFFFFFFFFFFFFFFFFFFFFFFFFF AND DUP2 PUSH20 0xFFFFFFFFFFFFFFFFFFFFFFFFFFFFFFFFFFFFFFFF AND PUSH32 0x8BE0079C531659141344CD1FD0A4F28419497F9722A3DAAFE3B4186F6B6457E0 PUSH1 0x40 MLOAD PUSH1 0x40 MLOAD DUP1 SWAP2 SUB SWAP1 LOG3 POP POP JUMP JUMPDEST DUP2 PUSH20 0xFFFFFFFFFFFFFFFFFFFFFFFFFFFFFFFFFFFFFFFF AND DUP4 PUSH20 0xFFFFFFFFFFFFFFFFFFFFFFFFFFFFFFFFFFFFFFFF AND SUB PUSH2 0x2DE6 JUMPI PUSH1 0x40 MLOAD PUSH32 0x8C379A000000000000000000000000000000000000000000000000000000000 DUP2 MSTORE PUSH1 0x4 ADD PUSH2 0x2DDD SWAP1 PUSH2 0x52B6 JUMP JUMPDEST PUSH1 0x40 MLOAD DUP1 SWAP2 SUB SWAP1 REVERT JUMPDEST DUP1 PUSH1 0x5 PUSH1 0x0 DUP6 PUSH20 0xFFFFFFFFFFFFFFFFFFFFFFFFFFFFFFFFFFFFFFFF AND PUSH20 0xFFFFFFFFFFFFFFFFFFFFFFFFFFFFFFFFFFFFFFFF AND DUP2 MSTORE PUSH1 0x20 ADD SWAP1 DUP2 MSTORE PUSH1 0x20 ADD PUSH1 0x0 KECCAK256 PUSH1 0x0 DUP5 PUSH20 0xFFFFFFFFFFFFFFFFFFFFFFFFFFFFFFFFFFFFFFFF AND PUSH20 0xFFFFFFFFFFFFFFFFFFFFFFFFFFFFFFFFFFFFFFFF AND DUP2 MSTORE PUSH1 0x20 ADD SWAP1 DUP2 MSTORE PUSH1 0x20 ADD PUSH1 0x0 KECCAK256 PUSH1 0x0 PUSH2 0x100 EXP DUP2 SLOAD DUP2 PUSH1 0xFF MUL NOT AND SWAP1 DUP4 ISZERO ISZERO MUL OR SWAP1 SSTORE POP DUP2 PUSH20 0xFFFFFFFFFFFFFFFFFFFFFFFFFFFFFFFFFFFFFFFF AND DUP4 PUSH20 0xFFFFFFFFFFFFFFFFFFFFFFFFFFFFFFFFFFFFFFFF AND PUSH32 0x17307EAB39AB6107E8899845AD3D59BD9653F200F220920489CA2B5937696C31 DUP4 PUSH1 0x40 MLOAD PUSH2 0x2ED7 SWAP2 SWAP1 PUSH2 0x39A8 JUMP JUMPDEST PUSH1 0x40 MLOAD DUP1 SWAP2 SUB SWAP1 LOG3 POP POP POP JUMP JUMPDEST PUSH2 0x2EEF DUP5 DUP5 DUP5 PUSH2 0x28FE JUMP JUMPDEST PUSH2 0x2EFB DUP5 DUP5 DUP5 DUP5 PUSH2 0x3236 JUMP JUMPDEST PUSH2 0x2F3A JUMPI PUSH1 0x40 MLOAD PUSH32 0x8C379A000000000000000000000000000000000000000000000000000000000 DUP2 MSTORE PUSH1 0x4 ADD PUSH2 0x2F31 SWAP1 PUSH2 0x5348 JUMP JUMPDEST PUSH1 0x40 MLOAD DUP1 SWAP2 SUB SWAP1 REVERT JUMPDEST POP POP POP POP JUMP JUMPDEST PUSH1 0x0 PUSH1 0x14 DUP3 GT ISZERO PUSH2 0x2F54 JUMPI PUSH1 0x1 SWAP1 POP PUSH2 0x2F7D JUMP JUMPDEST PUSH1 0xA DUP3 GT ISZERO PUSH2 0x2F66 JUMPI PUSH1 0x2 SWAP1 POP PUSH2 0x2F7D JUMP JUMPDEST PUSH1 0x5 DUP3 GT ISZERO PUSH2 0x2F78 JUMPI PUSH1 0x3 SWAP1 POP PUSH2 0x2F7D JUMP JUMPDEST PUSH1 0x0 SWAP1 POP JUMPDEST SWAP2 SWAP1 POP JUMP JUMPDEST PUSH1 0x0 PUSH1 0x7 PUSH1 0x14 DUP2 DUP2 SWAP1 SLOAD SWAP1 PUSH2 0x100 EXP SWAP1 DIV PUSH1 0xFF AND DUP1 SWAP3 SWAP2 SWAP1 PUSH2 0x2FA3 SWAP1 PUSH2 0x4854 JUMP JUMPDEST SWAP2 SWAP1 PUSH2 0x100 EXP DUP2 SLOAD DUP2 PUSH1 0xFF MUL NOT AND SWAP1 DUP4 PUSH1 0xFF AND MUL OR SWAP1 SSTORE POP POP PUSH1 0x0 PUSH1 0x9 PUSH1 0x0 DUP5 PUSH1 0xFF AND PUSH1 0xFF AND DUP2 MSTORE PUSH1 0x20 ADD SWAP1 DUP2 MSTORE PUSH1 0x20 ADD PUSH1 0x0 KECCAK256 SWAP1 POP PUSH2 0x2FF5 CALLER PUSH1 0x7 PUSH1 0x14 SWAP1 SLOAD SWAP1 PUSH2 0x100 EXP SWAP1 DIV PUSH1 0xFF AND PUSH1 0xFF AND PUSH2 0x33BD JUMP JUMPDEST PUSH2 0x309D PUSH1 0x7 PUSH1 0x14 SWAP1 SLOAD SWAP1 PUSH2 0x100 EXP SWAP1 DIV PUSH1 0xFF AND PUSH1 0xFF AND DUP3 PUSH1 0x2 ADD DUP1 SLOAD PUSH2 0x301A SWAP1 PUSH2 0x463E JUMP JUMPDEST DUP1 PUSH1 0x1F ADD PUSH1 0x20 DUP1 SWAP2 DIV MUL PUSH1 0x20 ADD PUSH1 0x40 MLOAD SWAP1 DUP2 ADD PUSH1 0x40 MSTORE DUP1 SWAP3 SWAP2 SWAP1 DUP2 DUP2 MSTORE PUSH1 0x20 ADD DUP3 DUP1 SLOAD PUSH2 0x3046 SWAP1 PUSH2 0x463E JUMP JUMPDEST DUP1 ISZERO PUSH2 0x3093 JUMPI DUP1 PUSH1 0x1F LT PUSH2 0x3068 JUMPI PUSH2 0x100 DUP1 DUP4 SLOAD DIV MUL DUP4 MSTORE SWAP2 PUSH1 0x20 ADD SWAP2 PUSH2 0x3093 JUMP JUMPDEST DUP3 ADD SWAP2 SWAP1 PUSH1 0x0 MSTORE PUSH1 0x20 PUSH1 0x0 KECCAK256 SWAP1 JUMPDEST DUP2 SLOAD DUP2 MSTORE SWAP1 PUSH1 0x1 ADD SWAP1 PUSH1 0x20 ADD DUP1 DUP4 GT PUSH2 0x3076 JUMPI DUP3 SWAP1 SUB PUSH1 0x1F AND DUP3 ADD SWAP2 JUMPDEST POP POP POP POP POP PUSH2 0x35DA JUMP JUMPDEST PUSH32 0xAF4A3A88F2C27AFAEFD32FC63AAA9CD533DD7A53275E0E959CCA41DA9D929CBE PUSH1 0x7 PUSH1 0x14 SWAP1 SLOAD SWAP1 PUSH2 0x100 EXP SWAP1 DIV PUSH1 0xFF AND DUP3 PUSH1 0x2 ADD PUSH1 0x40 MLOAD PUSH2 0x30E0 SWAP3 SWAP2 SWAP1 PUSH2 0x53EC JUMP JUMPDEST PUSH1 0x40 MLOAD DUP1 SWAP2 SUB SWAP1 LOG1 PUSH1 0x7 PUSH1 0x14 SWAP1 SLOAD SWAP1 PUSH2 0x100 EXP SWAP1 DIV PUSH1 0xFF AND SWAP2 POP POP SWAP2 SWAP1 POP JUMP JUMPDEST PUSH1 0x60 PUSH1 0x40 MLOAD DUP1 PUSH1 0x20 ADD PUSH1 0x40 MSTORE DUP1 PUSH1 0x0 DUP2 MSTORE POP SWAP1 POP SWAP1 JUMP JUMPDEST PUSH1 0x60 PUSH2 0x3122 DUP3 PUSH2 0x275D JUMP JUMPDEST PUSH1 0x0 PUSH2 0x312C PUSH2 0x3100 JUMP JUMPDEST SWAP1 POP PUSH1 0x0 DUP2 MLOAD GT PUSH2 0x314C JUMPI PUSH1 0x40 MLOAD DUP1 PUSH1 0x20 ADD PUSH1 0x40 MSTORE DUP1 PUSH1 0x0 DUP2 MSTORE POP PUSH2 0x3177 JUMP JUMPDEST DUP1 PUSH2 0x3156 DUP5 PUSH2 0x367E JUMP JUMPDEST PUSH1 0x40 MLOAD PUSH1 0x20 ADD PUSH2 0x3167 SWAP3 SWAP2 SWAP1 PUSH2 0x4F18 JUMP JUMPDEST PUSH1 0x40 MLOAD PUSH1 0x20 DUP2 DUP4 SUB SUB DUP2 MSTORE SWAP1 PUSH1 0x40 MSTORE JUMPDEST SWAP2 POP POP SWAP2 SWAP1 POP JUMP JUMPDEST PUSH1 0x0 PUSH32 0x1FFC9A700000000000000000000000000000000000000000000000000000000 PUSH28 0xFFFFFFFFFFFFFFFFFFFFFFFFFFFFFFFFFFFFFFFFFFFFFFFFFFFFFFFF NOT AND DUP3 PUSH28 0xFFFFFFFFFFFFFFFFFFFFFFFFFFFFFFFFFFFFFFFFFFFFFFFFFFFFFFFF NOT AND EQ SWAP1 POP SWAP2 SWAP1 POP JUMP JUMPDEST PUSH1 0x0 DUP1 PUSH20 0xFFFFFFFFFFFFFFFFFFFFFFFFFFFFFFFFFFFFFFFF AND PUSH2 0x320B DUP4 PUSH2 0x2C75 JUMP JUMPDEST PUSH20 0xFFFFFFFFFFFFFFFFFFFFFFFFFFFFFFFFFFFFFFFF AND EQ ISZERO SWAP1 POP SWAP2 SWAP1 POP JUMP JUMPDEST POP POP POP POP JUMP JUMPDEST POP POP POP POP JUMP JUMPDEST PUSH1 0x0 PUSH2 0x3257 DUP5 PUSH20 0xFFFFFFFFFFFFFFFFFFFFFFFFFFFFFFFFFFFFFFFF AND PUSH2 0x374C JUMP JUMPDEST ISZERO PUSH2 0x33B0 JUMPI DUP4 PUSH20 0xFFFFFFFFFFFFFFFFFFFFFFFFFFFFFFFFFFFFFFFF AND PUSH4 0x150B7A02 PUSH2 0x3280 PUSH2 0x27A8 JUMP JUMPDEST DUP8 DUP7 DUP7 PUSH1 0x40 MLOAD DUP6 PUSH4 0xFFFFFFFF AND PUSH1 0xE0 SHL DUP2 MSTORE PUSH1 0x4 ADD PUSH2 0x32A2 SWAP5 SWAP4 SWAP3 SWAP2 SWAP1 PUSH2 0x5471 JUMP JUMPDEST PUSH1 0x20 PUSH1 0x40 MLOAD DUP1 DUP4 SUB DUP2 PUSH1 0x0 DUP8 GAS CALL SWAP3 POP POP POP DUP1 ISZERO PUSH2 0x32DE JUMPI POP PUSH1 0x40 MLOAD RETURNDATASIZE PUSH1 0x1F NOT PUSH1 0x1F DUP3 ADD AND DUP3 ADD DUP1 PUSH1 0x40 MSTORE POP DUP2 ADD SWAP1 PUSH2 0x32DB SWAP2 SWAP1 PUSH2 0x54D2 JUMP JUMPDEST PUSH1 0x1 JUMPDEST PUSH2 0x3360 JUMPI RETURNDATASIZE DUP1 PUSH1 0x0 DUP2 EQ PUSH2 0x330E JUMPI PUSH1 0x40 MLOAD SWAP2 POP PUSH1 0x1F NOT PUSH1 0x3F RETURNDATASIZE ADD AND DUP3 ADD PUSH1 0x40 MSTORE RETURNDATASIZE DUP3 MSTORE RETURNDATASIZE PUSH1 0x0 PUSH1 0x20 DUP5 ADD RETURNDATACOPY PUSH2 0x3313 JUMP JUMPDEST PUSH1 0x60 SWAP2 POP JUMPDEST POP PUSH1 0x0 DUP2 MLOAD SUB PUSH2 0x3358 JUMPI PUSH1 0x40 MLOAD PUSH32 0x8C379A000000000000000000000000000000000000000000000000000000000 DUP2 MSTORE PUSH1 0x4 ADD PUSH2 0x334F SWAP1 PUSH2 0x5348 JUMP JUMPDEST PUSH1 0x40 MLOAD DUP1 SWAP2 SUB SWAP1 REVERT JUMPDEST DUP1 MLOAD DUP2 PUSH1 0x20 ADD REVERT JUMPDEST PUSH4 0x150B7A02 PUSH1 0xE0 SHL PUSH28 0xFFFFFFFFFFFFFFFFFFFFFFFFFFFFFFFFFFFFFFFFFFFFFFFFFFFFFFFF NOT AND DUP2 PUSH28 0xFFFFFFFFFFFFFFFFFFFFFFFFFFFFFFFFFFFFFFFFFFFFFFFFFFFFFFFF NOT AND EQ SWAP2 POP POP PUSH2 0x33B5 JUMP JUMPDEST PUSH1 0x1 SWAP1 POP JUMPDEST SWAP5 SWAP4 POP POP POP POP JUMP JUMPDEST PUSH1 0x0 PUSH20 0xFFFFFFFFFFFFFFFFFFFFFFFFFFFFFFFFFFFFFFFF AND DUP3 PUSH20 0xFFFFFFFFFFFFFFFFFFFFFFFFFFFFFFFFFFFFFFFF AND SUB PUSH2 0x342C JUMPI PUSH1 0x40 MLOAD PUSH32 0x8C379A000000000000000000000000000000000000000000000000000000000 DUP2 MSTORE PUSH1 0x4 ADD PUSH2 0x3423 SWAP1 PUSH2 0x554B JUMP JUMPDEST PUSH1 0x40 MLOAD DUP1 SWAP2 SUB SWAP1 REVERT JUMPDEST PUSH2 0x3435 DUP2 PUSH2 0x31E9 JUMP JUMPDEST ISZERO PUSH2 0x3475 JUMPI PUSH1 0x40 MLOAD PUSH32 0x8C379A000000000000000000000000000000000000000000000000000000000 DUP2 MSTORE PUSH1 0x4 ADD PUSH2 0x346C SWAP1 PUSH2 0x55B7 JUMP JUMPDEST PUSH1 0x40 MLOAD DUP1 SWAP2 SUB SWAP1 REVERT JUMPDEST PUSH2 0x3483 PUSH1 0x0 DUP4 DUP4 PUSH1 0x1 PUSH2 0x322A JUMP JUMPDEST PUSH2 0x348C DUP2 PUSH2 0x31E9 JUMP JUMPDEST ISZERO PUSH2 0x34CC JUMPI PUSH1 0x40 MLOAD PUSH32 0x8C379A000000000000000000000000000000000000000000000000000000000 DUP2 MSTORE PUSH1 0x4 ADD PUSH2 0x34C3 SWAP1 PUSH2 0x55B7 JUMP JUMPDEST PUSH1 0x40 MLOAD DUP1 SWAP2 SUB SWAP1 REVERT JUMPDEST PUSH1 0x1 PUSH1 0x3 PUSH1 0x0 DUP5 PUSH20 0xFFFFFFFFFFFFFFFFFFFFFFFFFFFFFFFFFFFFFFFF AND PUSH20 0xFFFFFFFFFFFFFFFFFFFFFFFFFFFFFFFFFFFFFFFF AND DUP2 MSTORE PUSH1 0x20 ADD SWAP1 DUP2 MSTORE PUSH1 0x20 ADD PUSH1 0x0 KECCAK256 PUSH1 0x0 DUP3 DUP3 SLOAD ADD SWAP3 POP POP DUP2 SWAP1 SSTORE POP DUP2 PUSH1 0x2 PUSH1 0x0 DUP4 DUP2 MSTORE PUSH1 0x20 ADD SWAP1 DUP2 MSTORE PUSH1 0x20 ADD PUSH1 0x0 KECCAK256 PUSH1 0x0 PUSH2 0x100 EXP DUP2 SLOAD DUP2 PUSH20 0xFFFFFFFFFFFFFFFFFFFFFFFFFFFFFFFFFFFFFFFF MUL NOT AND SWAP1 DUP4 PUSH20 0xFFFFFFFFFFFFFFFFFFFFFFFFFFFFFFFFFFFFFFFF AND MUL OR SWAP1 SSTORE POP DUP1 DUP3 PUSH20 0xFFFFFFFFFFFFFFFFFFFFFFFFFFFFFFFFFFFFFFFF AND PUSH1 0x0 PUSH20 0xFFFFFFFFFFFFFFFFFFFFFFFFFFFFFFFFFFFFFFFF AND PUSH32 0xDDF252AD1BE2C89B69C2B068FC378DAA952BA7F163C4A11628F55A4DF523B3EF PUSH1 0x40 MLOAD PUSH1 0x40 MLOAD DUP1 SWAP2 SUB SWAP1 LOG4 PUSH2 0x35D6 PUSH1 0x0 DUP4 DUP4 PUSH1 0x1 PUSH2 0x3230 JUMP JUMPDEST POP POP JUMP JUMPDEST PUSH2 0x35E3 DUP3 PUSH2 0x31E9 JUMP JUMPDEST PUSH2 0x3622 JUMPI PUSH1 0x40 MLOAD PUSH32 0x8C379A000000000000000000000000000000000000000000000000000000000 DUP2 MSTORE PUSH1 0x4 ADD PUSH2 0x3619 SWAP1 PUSH2 0x5649 JUMP JUMPDEST PUSH1 0x40 MLOAD DUP1 SWAP2 SUB SWAP1 REVERT JUMPDEST DUP1 PUSH1 0x6 PUSH1 0x0 DUP5 DUP2 MSTORE PUSH1 0x20 ADD SWAP1 DUP2 MSTORE PUSH1 0x20 ADD PUSH1 0x0 KECCAK256 SWAP1 DUP2 PUSH2 0x3642 SWAP2 SWAP1 PUSH2 0x4A29 JUMP JUMPDEST POP PUSH32 0xF8E1A15ABA9398E019F0B49DF1A4FDE98EE17AE345CB5F6B5E2C27F5033E8CE7 DUP3 PUSH1 0x40 MLOAD PUSH2 0x3672 SWAP2 SWAP1 PUSH2 0x407A JUMP JUMPDEST PUSH1 0x40 MLOAD DUP1 SWAP2 SUB SWAP1 LOG1 POP POP JUMP JUMPDEST PUSH1 0x60 PUSH1 0x0 PUSH1 0x1 PUSH2 0x368D DUP5 PUSH2 0x376F JUMP JUMPDEST ADD SWAP1 POP PUSH1 0x0 DUP2 PUSH8 0xFFFFFFFFFFFFFFFF DUP2 GT ISZERO PUSH2 0x36AC JUMPI PUSH2 0x36AB PUSH2 0x3A7F JUMP JUMPDEST JUMPDEST PUSH1 0x40 MLOAD SWAP1 DUP1 DUP3 MSTORE DUP1 PUSH1 0x1F ADD PUSH1 0x1F NOT AND PUSH1 0x20 ADD DUP3 ADD PUSH1 0x40 MSTORE DUP1 ISZERO PUSH2 0x36DE JUMPI DUP2 PUSH1 0x20 ADD PUSH1 0x1 DUP3 MUL DUP1 CALLDATASIZE DUP4 CALLDATACOPY DUP1 DUP3 ADD SWAP2 POP POP SWAP1 POP JUMPDEST POP SWAP1 POP PUSH1 0x0 DUP3 PUSH1 0x20 ADD DUP3 ADD SWAP1 POP JUMPDEST PUSH1 0x1 ISZERO PUSH2 0x3741 JUMPI DUP1 DUP1 PUSH1 0x1 SWAP1 SUB SWAP2 POP POP PUSH32 0x3031323334353637383961626364656600000000000000000000000000000000 PUSH1 0xA DUP7 MOD BYTE DUP2 MSTORE8 PUSH1 0xA DUP6 DUP2 PUSH2 0x3735 JUMPI PUSH2 0x3734 PUSH2 0x5669 JUMP JUMPDEST JUMPDEST DIV SWAP5 POP PUSH1 0x0 DUP6 SUB PUSH2 0x36EC JUMPI JUMPDEST DUP2 SWAP4 POP POP POP POP SWAP2 SWAP1 POP JUMP JUMPDEST PUSH1 0x0 DUP1 DUP3 PUSH20 0xFFFFFFFFFFFFFFFFFFFFFFFFFFFFFFFFFFFFFFFF AND EXTCODESIZE GT SWAP1 POP SWAP2 SWAP1 POP JUMP JUMPDEST PUSH1 0x0 DUP1 PUSH1 0x0 SWAP1 POP PUSH27 0x184F03E93FF9F4DAA797ED6E38ED64BF6A1F010000000000000000 DUP4 LT PUSH2 0x37CD JUMPI PUSH27 0x184F03E93FF9F4DAA797ED6E38ED64BF6A1F010000000000000000 DUP4 DUP2 PUSH2 0x37C3 JUMPI PUSH2 0x37C2 PUSH2 0x5669 JUMP JUMPDEST JUMPDEST DIV SWAP3 POP PUSH1 0x40 DUP2 ADD SWAP1 POP JUMPDEST PUSH14 0x4EE2D6D415B85ACEF8100000000 DUP4 LT PUSH2 0x380A JUMPI PUSH14 0x4EE2D6D415B85ACEF8100000000 DUP4 DUP2 PUSH2 0x3800 JUMPI PUSH2 0x37FF PUSH2 0x5669 JUMP JUMPDEST JUMPDEST DIV SWAP3 POP PUSH1 0x20 DUP2 ADD SWAP1 POP JUMPDEST PUSH7 0x2386F26FC10000 DUP4 LT PUSH2 0x3839 JUMPI PUSH7 0x2386F26FC10000 DUP4 DUP2 PUSH2 0x382F JUMPI PUSH2 0x382E PUSH2 0x5669 JUMP JUMPDEST JUMPDEST DIV SWAP3 POP PUSH1 0x10 DUP2 ADD SWAP1 POP JUMPDEST PUSH4 0x5F5E100 DUP4 LT PUSH2 0x3862 JUMPI PUSH4 0x5F5E100 DUP4 DUP2 PUSH2 0x3858 JUMPI PUSH2 0x3857 PUSH2 0x5669 JUMP JUMPDEST JUMPDEST DIV SWAP3 POP PUSH1 0x8 DUP2 ADD SWAP1 POP JUMPDEST PUSH2 0x2710 DUP4 LT PUSH2 0x3887 JUMPI PUSH2 0x2710 DUP4 DUP2 PUSH2 0x387D JUMPI PUSH2 0x387C PUSH2 0x5669 JUMP JUMPDEST JUMPDEST DIV SWAP3 POP PUSH1 0x4 DUP2 ADD SWAP1 POP JUMPDEST PUSH1 0x64 DUP4 LT PUSH2 0x38AA JUMPI PUSH1 0x64 DUP4 DUP2 PUSH2 0x38A0 JUMPI PUSH2 0x389F PUSH2 0x5669 JUMP JUMPDEST JUMPDEST DIV SWAP3 POP PUSH1 0x2 DUP2 ADD SWAP1 POP JUMPDEST PUSH1 0xA DUP4 LT PUSH2 0x38B9 JUMPI PUSH1 0x1 DUP2 ADD SWAP1 POP JUMPDEST DUP1 SWAP2 POP POP SWAP2 SWAP1 POP JUMP JUMPDEST PUSH1 0x40 MLOAD DUP1 PUSH1 0xA0 ADD PUSH1 0x40 MSTORE DUP1 PUSH1 0x0 PUSH1 0xFF AND DUP2 MSTORE PUSH1 0x20 ADD PUSH1 0x60 DUP2 MSTORE PUSH1 0x20 ADD PUSH1 0x0 DUP2 MSTORE PUSH1 0x20 ADD PUSH1 0x0 DUP2 MSTORE PUSH1 0x20 ADD PUSH1 0x0 DUP2 MSTORE POP SWAP1 JUMP JUMPDEST PUSH1 0x0 PUSH1 0x40 MLOAD SWAP1 POP SWAP1 JUMP JUMPDEST PUSH1 0x0 DUP1 REVERT JUMPDEST PUSH1 0x0 DUP1 REVERT JUMPDEST PUSH1 0x0 PUSH32 0xFFFFFFFF00000000000000000000000000000000000000000000000000000000 DUP3 AND SWAP1 POP SWAP2 SWAP1 POP JUMP JUMPDEST PUSH2 0x393D DUP2 PUSH2 0x3908 JUMP JUMPDEST DUP2 EQ PUSH2 0x3948 JUMPI PUSH1 0x0 DUP1 REVERT JUMPDEST POP JUMP JUMPDEST PUSH1 0x0 DUP2 CALLDATALOAD SWAP1 POP PUSH2 0x395A DUP2 PUSH2 0x3934 JUMP JUMPDEST SWAP3 SWAP2 POP POP JUMP JUMPDEST PUSH1 0x0 PUSH1 0x20 DUP3 DUP5 SUB SLT ISZERO PUSH2 0x3976 JUMPI PUSH2 0x3975 PUSH2 0x38FE JUMP JUMPDEST JUMPDEST PUSH1 0x0 PUSH2 0x3984 DUP5 DUP3 DUP6 ADD PUSH2 0x394B JUMP JUMPDEST SWAP2 POP POP SWAP3 SWAP2 POP POP JUMP JUMPDEST PUSH1 0x0 DUP2 ISZERO ISZERO SWAP1 POP SWAP2 SWAP1 POP JUMP JUMPDEST PUSH2 0x39A2 DUP2 PUSH2 0x398D JUMP JUMPDEST DUP3 MSTORE POP POP JUMP JUMPDEST PUSH1 0x0 PUSH1 0x20 DUP3 ADD SWAP1 POP PUSH2 0x39BD PUSH1 0x0 DUP4 ADD DUP5 PUSH2 0x3999 JUMP JUMPDEST SWAP3 SWAP2 POP POP JUMP JUMPDEST PUSH1 0x0 DUP2 MLOAD SWAP1 POP SWAP2 SWAP1 POP JUMP JUMPDEST PUSH1 0x0 DUP3 DUP3 MSTORE PUSH1 0x20 DUP3 ADD SWAP1 POP SWAP3 SWAP2 POP POP JUMP JUMPDEST PUSH1 0x0 JUMPDEST DUP4 DUP2 LT ISZERO PUSH2 0x39FD JUMPI DUP1 DUP3 ADD MLOAD DUP2 DUP5 ADD MSTORE PUSH1 0x20 DUP2 ADD SWAP1 POP PUSH2 0x39E2 JUMP JUMPDEST PUSH1 0x0 DUP5 DUP5 ADD MSTORE POP POP POP POP JUMP JUMPDEST PUSH1 0x0 PUSH1 0x1F NOT PUSH1 0x1F DUP4 ADD AND SWAP1 POP SWAP2 SWAP1 POP JUMP JUMPDEST PUSH1 0x0 PUSH2 0x3A25 DUP3 PUSH2 0x39C3 JUMP JUMPDEST PUSH2 0x3A2F DUP2 DUP6 PUSH2 0x39CE JUMP JUMPDEST SWAP4 POP PUSH2 0x3A3F DUP2 DUP6 PUSH1 0x20 DUP7 ADD PUSH2 0x39DF JUMP JUMPDEST PUSH2 0x3A48 DUP2 PUSH2 0x3A09 JUMP JUMPDEST DUP5 ADD SWAP2 POP POP SWAP3 SWAP2 POP POP JUMP JUMPDEST PUSH1 0x0 PUSH1 0x20 DUP3 ADD SWAP1 POP DUP2 DUP2 SUB PUSH1 0x0 DUP4 ADD MSTORE PUSH2 0x3A6D DUP2 DUP5 PUSH2 0x3A1A JUMP JUMPDEST SWAP1 POP SWAP3 SWAP2 POP POP JUMP JUMPDEST PUSH1 0x0 DUP1 REVERT JUMPDEST PUSH1 0x0 DUP1 REVERT JUMPDEST PUSH32 0x4E487B7100000000000000000000000000000000000000000000000000000000 PUSH1 0x0 MSTORE PUSH1 0x41 PUSH1 0x4 MSTORE PUSH1 0x24 PUSH1 0x0 REVERT JUMPDEST PUSH2 0x3AB7 DUP3 PUSH2 0x3A09 JUMP JUMPDEST DUP2 ADD DUP2 DUP2 LT PUSH8 0xFFFFFFFFFFFFFFFF DUP3 GT OR ISZERO PUSH2 0x3AD6 JUMPI PUSH2 0x3AD5 PUSH2 0x3A7F JUMP JUMPDEST JUMPDEST DUP1 PUSH1 0x40 MSTORE POP POP POP JUMP JUMPDEST PUSH1 0x0 PUSH2 0x3AE9 PUSH2 0x38F4 JUMP JUMPDEST SWAP1 POP PUSH2 0x3AF5 DUP3 DUP3 PUSH2 0x3AAE JUMP JUMPDEST SWAP2 SWAP1 POP JUMP JUMPDEST PUSH1 0x0 PUSH8 0xFFFFFFFFFFFFFFFF DUP3 GT ISZERO PUSH2 0x3B15 JUMPI PUSH2 0x3B14 PUSH2 0x3A7F JUMP JUMPDEST JUMPDEST PUSH2 0x3B1E DUP3 PUSH2 0x3A09 JUMP JUMPDEST SWAP1 POP PUSH1 0x20 DUP2 ADD SWAP1 POP SWAP2 SWAP1 POP JUMP JUMPDEST DUP3 DUP2 DUP4 CALLDATACOPY PUSH1 0x0 DUP4 DUP4 ADD MSTORE POP POP POP JUMP JUMPDEST PUSH1 0x0 PUSH2 0x3B4D PUSH2 0x3B48 DUP5 PUSH2 0x3AFA JUMP JUMPDEST PUSH2 0x3ADF JUMP JUMPDEST SWAP1 POP DUP3 DUP2 MSTORE PUSH1 0x20 DUP2 ADD DUP5 DUP5 DUP5 ADD GT ISZERO PUSH2 0x3B69 JUMPI PUSH2 0x3B68 PUSH2 0x3A7A JUMP JUMPDEST JUMPDEST PUSH2 0x3B74 DUP5 DUP3 DUP6 PUSH2 0x3B2B JUMP JUMPDEST POP SWAP4 SWAP3 POP POP POP JUMP JUMPDEST PUSH1 0x0 DUP3 PUSH1 0x1F DUP4 ADD SLT PUSH2 0x3B91 JUMPI PUSH2 0x3B90 PUSH2 0x3A75 JUMP JUMPDEST JUMPDEST DUP2 CALLDATALOAD PUSH2 0x3BA1 DUP5 DUP3 PUSH1 0x20 DUP7 ADD PUSH2 0x3B3A JUMP JUMPDEST SWAP2 POP POP SWAP3 SWAP2 POP POP JUMP JUMPDEST PUSH1 0x0 PUSH1 0x20 DUP3 DUP5 SUB SLT ISZERO PUSH2 0x3BC0 JUMPI PUSH2 0x3BBF PUSH2 0x38FE JUMP JUMPDEST JUMPDEST PUSH1 0x0 DUP3 ADD CALLDATALOAD PUSH8 0xFFFFFFFFFFFFFFFF DUP2 GT ISZERO PUSH2 0x3BDE JUMPI PUSH2 0x3BDD PUSH2 0x3903 JUMP JUMPDEST JUMPDEST PUSH2 0x3BEA DUP5 DUP3 DUP6 ADD PUSH2 0x3B7C JUMP JUMPDEST SWAP2 POP POP SWAP3 SWAP2 POP POP JUMP JUMPDEST PUSH1 0x0 DUP2 SWAP1 POP SWAP2 SWAP1 POP JUMP JUMPDEST PUSH2 0x3C06 DUP2 PUSH2 0x3BF3 JUMP JUMPDEST DUP3 MSTORE POP POP JUMP JUMPDEST PUSH1 0x0 PUSH1 0x60 DUP3 ADD SWAP1 POP DUP2 DUP2 SUB PUSH1 0x0 DUP4 ADD MSTORE PUSH2 0x3C26 DUP2 DUP7 PUSH2 0x3A1A JUMP JUMPDEST SWAP1 POP PUSH2 0x3C35 PUSH1 0x20 DUP4 ADD DUP6 PUSH2 0x3BFD JUMP JUMPDEST PUSH2 0x3C42 PUSH1 0x40 DUP4 ADD DUP5 PUSH2 0x3999 JUMP JUMPDEST SWAP5 SWAP4 POP POP POP POP JUMP JUMPDEST PUSH2 0x3C53 DUP2 PUSH2 0x3BF3 JUMP JUMPDEST DUP2 EQ PUSH2 0x3C5E JUMPI PUSH1 0x0 DUP1 REVERT JUMPDEST POP JUMP JUMPDEST PUSH1 0x0 DUP2 CALLDATALOAD SWAP1 POP PUSH2 0x3C70 DUP2 PUSH2 0x3C4A JUMP JUMPDEST SWAP3 SWAP2 POP POP JUMP JUMPDEST PUSH1 0x0 PUSH1 0x20 DUP3 DUP5 SUB SLT ISZERO PUSH2 0x3C8C JUMPI PUSH2 0x3C8B PUSH2 0x38FE JUMP JUMPDEST JUMPDEST PUSH1 0x0 PUSH2 0x3C9A DUP5 DUP3 DUP6 ADD PUSH2 0x3C61 JUMP JUMPDEST SWAP2 POP POP SWAP3 SWAP2 POP POP JUMP JUMPDEST PUSH1 0x0 PUSH20 0xFFFFFFFFFFFFFFFFFFFFFFFFFFFFFFFFFFFFFFFF DUP3 AND SWAP1 POP SWAP2 SWAP1 POP JUMP JUMPDEST PUSH1 0x0 PUSH2 0x3CCE DUP3 PUSH2 0x3CA3 JUMP JUMPDEST SWAP1 POP SWAP2 SWAP1 POP JUMP JUMPDEST PUSH2 0x3CDE DUP2 PUSH2 0x3CC3 JUMP JUMPDEST DUP3 MSTORE POP POP JUMP JUMPDEST PUSH1 0x0 PUSH1 0x20 DUP3 ADD SWAP1 POP PUSH2 0x3CF9 PUSH1 0x0 DUP4 ADD DUP5 PUSH2 0x3CD5 JUMP JUMPDEST SWAP3 SWAP2 POP POP JUMP JUMPDEST PUSH2 0x3D08 DUP2 PUSH2 0x3CC3 JUMP JUMPDEST DUP2 EQ PUSH2 0x3D13 JUMPI PUSH1 0x0 DUP1 REVERT JUMPDEST POP JUMP JUMPDEST PUSH1 0x0 DUP2 CALLDATALOAD SWAP1 POP PUSH2 0x3D25 DUP2 PUSH2 0x3CFF JUMP JUMPDEST SWAP3 SWAP2 POP POP JUMP JUMPDEST PUSH1 0x0 DUP1 PUSH1 0x40 DUP4 DUP6 SUB SLT ISZERO PUSH2 0x3D42 JUMPI PUSH2 0x3D41 PUSH2 0x38FE JUMP JUMPDEST JUMPDEST PUSH1 0x0 PUSH2 0x3D50 DUP6 DUP3 DUP7 ADD PUSH2 0x3D16 JUMP JUMPDEST SWAP3 POP POP PUSH1 0x20 PUSH2 0x3D61 DUP6 DUP3 DUP7 ADD PUSH2 0x3C61 JUMP JUMPDEST SWAP2 POP POP SWAP3 POP SWAP3 SWAP1 POP JUMP JUMPDEST PUSH1 0x0 PUSH1 0xFF DUP3 AND SWAP1 POP SWAP2 SWAP1 POP JUMP JUMPDEST PUSH2 0x3D81 DUP2 PUSH2 0x3D6B JUMP JUMPDEST DUP2 EQ PUSH2 0x3D8C JUMPI PUSH1 0x0 DUP1 REVERT JUMPDEST POP JUMP JUMPDEST PUSH1 0x0 DUP2 CALLDATALOAD SWAP1 POP PUSH2 0x3D9E DUP2 PUSH2 0x3D78 JUMP JUMPDEST SWAP3 SWAP2 POP POP JUMP JUMPDEST PUSH1 0x0 PUSH1 0x20 DUP3 DUP5 SUB SLT ISZERO PUSH2 0x3DBA JUMPI PUSH2 0x3DB9 PUSH2 0x38FE JUMP JUMPDEST JUMPDEST PUSH1 0x0 PUSH2 0x3DC8 DUP5 DUP3 DUP6 ADD PUSH2 0x3D8F JUMP JUMPDEST SWAP2 POP POP SWAP3 SWAP2 POP POP JUMP JUMPDEST PUSH2 0x3DDA DUP2 PUSH2 0x3D6B JUMP JUMPDEST DUP3 MSTORE POP POP JUMP JUMPDEST PUSH32 0x4E487B7100000000000000000000000000000000000000000000000000000000 PUSH1 0x0 MSTORE PUSH1 0x21 PUSH1 0x4 MSTORE PUSH1 0x24 PUSH1 0x0 REVERT JUMPDEST PUSH1 0x2 DUP2 LT PUSH2 0x3E20 JUMPI PUSH2 0x3E1F PUSH2 0x3DE0 JUMP JUMPDEST JUMPDEST POP JUMP JUMPDEST PUSH1 0x0 DUP2 SWAP1 POP PUSH2 0x3E31 DUP3 PUSH2 0x3E0F JUMP JUMPDEST SWAP2 SWAP1 POP JUMP JUMPDEST PUSH1 0x0 PUSH2 0x3E41 DUP3 PUSH2 0x3E23 JUMP JUMPDEST SWAP1 POP SWAP2 SWAP1 POP JUMP JUMPDEST PUSH2 0x3E51 DUP2 PUSH2 0x3E36 JUMP JUMPDEST DUP3 MSTORE POP POP JUMP JUMPDEST PUSH1 0x0 PUSH1 0xC0 DUP3 ADD SWAP1 POP PUSH2 0x3E6C PUSH1 0x0 DUP4 ADD DUP10 PUSH2 0x3DD1 JUMP JUMPDEST DUP2 DUP2 SUB PUSH1 0x20 DUP4 ADD MSTORE PUSH2 0x3E7E DUP2 DUP9 PUSH2 0x3A1A JUMP JUMPDEST SWAP1 POP DUP2 DUP2 SUB PUSH1 0x40 DUP4 ADD MSTORE PUSH2 0x3E92 DUP2 DUP8 PUSH2 0x3A1A JUMP JUMPDEST SWAP1 POP PUSH2 0x3EA1 PUSH1 0x60 DUP4 ADD DUP7 PUSH2 0x3DD1 JUMP JUMPDEST DUP2 DUP2 SUB PUSH1 0x80 DUP4 ADD MSTORE PUSH2 0x3EB3 DUP2 DUP6 PUSH2 0x3A1A JUMP JUMPDEST SWAP1 POP PUSH2 0x3EC2 PUSH1 0xA0 DUP4 ADD DUP5 PUSH2 0x3E48 JUMP JUMPDEST SWAP8 SWAP7 POP POP POP POP POP POP POP JUMP JUMPDEST PUSH1 0x0 DUP1 PUSH1 0x0 PUSH1 0x60 DUP5 DUP7 SUB SLT ISZERO PUSH2 0x3EE6 JUMPI PUSH2 0x3EE5 PUSH2 0x38FE JUMP JUMPDEST JUMPDEST PUSH1 0x0 PUSH2 0x3EF4 DUP7 DUP3 DUP8 ADD PUSH2 0x3D16 JUMP JUMPDEST SWAP4 POP POP PUSH1 0x20 PUSH2 0x3F05 DUP7 DUP3 DUP8 ADD PUSH2 0x3D16 JUMP JUMPDEST SWAP3 POP POP PUSH1 0x40 PUSH2 0x3F16 DUP7 DUP3 DUP8 ADD PUSH2 0x3C61 JUMP JUMPDEST SWAP2 POP POP SWAP3 POP SWAP3 POP SWAP3 JUMP JUMPDEST PUSH1 0x0 PUSH1 0xA0 DUP3 ADD SWAP1 POP PUSH2 0x3F35 PUSH1 0x0 DUP4 ADD DUP9 PUSH2 0x3DD1 JUMP JUMPDEST DUP2 DUP2 SUB PUSH1 0x20 DUP4 ADD MSTORE PUSH2 0x3F47 DUP2 DUP8 PUSH2 0x3A1A JUMP JUMPDEST SWAP1 POP PUSH2 0x3F56 PUSH1 0x40 DUP4 ADD DUP7 PUSH2 0x3BFD JUMP JUMPDEST PUSH2 0x3F63 PUSH1 0x60 DUP4 ADD DUP6 PUSH2 0x3BFD JUMP JUMPDEST PUSH2 0x3F70 PUSH1 0x80 DUP4 ADD DUP5 PUSH2 0x3BFD JUMP JUMPDEST SWAP7 SWAP6 POP POP POP POP POP POP JUMP JUMPDEST PUSH2 0x3F83 DUP2 PUSH2 0x3D6B JUMP JUMPDEST DUP3 MSTORE POP POP JUMP JUMPDEST PUSH1 0x0 DUP3 DUP3 MSTORE PUSH1 0x20 DUP3 ADD SWAP1 POP SWAP3 SWAP2 POP POP JUMP JUMPDEST PUSH1 0x0 PUSH2 0x3FA5 DUP3 PUSH2 0x39C3 JUMP JUMPDEST PUSH2 0x3FAF DUP2 DUP6 PUSH2 0x3F89 JUMP JUMPDEST SWAP4 POP PUSH2 0x3FBF DUP2 DUP6 PUSH1 0x20 DUP7 ADD PUSH2 0x39DF JUMP JUMPDEST PUSH2 0x3FC8 DUP2 PUSH2 0x3A09 JUMP JUMPDEST DUP5 ADD SWAP2 POP POP SWAP3 SWAP2 POP POP JUMP JUMPDEST PUSH2 0x3FDC DUP2 PUSH2 0x3BF3 JUMP JUMPDEST DUP3 MSTORE POP POP JUMP JUMPDEST PUSH1 0x0 PUSH1 0xA0 DUP4 ADD PUSH1 0x0 DUP4 ADD MLOAD PUSH2 0x3FFA PUSH1 0x0 DUP7 ADD DUP3 PUSH2 0x3F7A JUMP JUMPDEST POP PUSH1 0x20 DUP4 ADD MLOAD DUP5 DUP3 SUB PUSH1 0x20 DUP7 ADD MSTORE PUSH2 0x4012 DUP3 DUP3 PUSH2 0x3F9A JUMP JUMPDEST SWAP2 POP POP PUSH1 0x40 DUP4 ADD MLOAD PUSH2 0x4027 PUSH1 0x40 DUP7 ADD DUP3 PUSH2 0x3FD3 JUMP JUMPDEST POP PUSH1 0x60 DUP4 ADD MLOAD PUSH2 0x403A PUSH1 0x60 DUP7 ADD DUP3 PUSH2 0x3FD3 JUMP JUMPDEST POP PUSH1 0x80 DUP4 ADD MLOAD PUSH2 0x404D PUSH1 0x80 DUP7 ADD DUP3 PUSH2 0x3FD3 JUMP JUMPDEST POP DUP1 SWAP2 POP POP SWAP3 SWAP2 POP POP JUMP JUMPDEST PUSH1 0x0 PUSH1 0x20 DUP3 ADD SWAP1 POP DUP2 DUP2 SUB PUSH1 0x0 DUP4 ADD MSTORE PUSH2 0x4072 DUP2 DUP5 PUSH2 0x3FE2 JUMP JUMPDEST SWAP1 POP SWAP3 SWAP2 POP POP JUMP JUMPDEST PUSH1 0x0 PUSH1 0x20 DUP3 ADD SWAP1 POP PUSH2 0x408F PUSH1 0x0 DUP4 ADD DUP5 PUSH2 0x3BFD JUMP JUMPDEST SWAP3 SWAP2 POP POP JUMP JUMPDEST PUSH1 0x0 PUSH1 0x20 DUP3 ADD SWAP1 POP PUSH2 0x40AA PUSH1 0x0 DUP4 ADD DUP5 PUSH2 0x3DD1 JUMP JUMPDEST SWAP3 SWAP2 POP POP JUMP JUMPDEST PUSH1 0x0 DUP1 PUSH1 0x40 DUP4 DUP6 SUB SLT ISZERO PUSH2 0x40C7 JUMPI PUSH2 0x40C6 PUSH2 0x38FE JUMP JUMPDEST JUMPDEST PUSH1 0x0 DUP4 ADD CALLDATALOAD PUSH8 0xFFFFFFFFFFFFFFFF DUP2 GT ISZERO PUSH2 0x40E5 JUMPI PUSH2 0x40E4 PUSH2 0x3903 JUMP JUMPDEST JUMPDEST PUSH2 0x40F1 DUP6 DUP3 DUP7 ADD PUSH2 0x3B7C JUMP JUMPDEST SWAP3 POP POP PUSH1 0x20 PUSH2 0x4102 DUP6 DUP3 DUP7 ADD PUSH2 0x3C61 JUMP JUMPDEST SWAP2 POP POP SWAP3 POP SWAP3 SWAP1 POP JUMP JUMPDEST PUSH1 0x0 PUSH1 0xC0 DUP3 ADD SWAP1 POP DUP2 DUP2 SUB PUSH1 0x0 DUP4 ADD MSTORE PUSH2 0x4126 DUP2 DUP10 PUSH2 0x3A1A JUMP JUMPDEST SWAP1 POP PUSH2 0x4135 PUSH1 0x20 DUP4 ADD DUP9 PUSH2 0x3CD5 JUMP JUMPDEST PUSH2 0x4142 PUSH1 0x40 DUP4 ADD DUP8 PUSH2 0x3DD1 JUMP JUMPDEST PUSH2 0x414F PUSH1 0x60 DUP4 ADD DUP7 PUSH2 0x3999 JUMP JUMPDEST PUSH2 0x415C PUSH1 0x80 DUP4 ADD DUP6 PUSH2 0x3DD1 JUMP JUMPDEST PUSH2 0x4169 PUSH1 0xA0 DUP4 ADD DUP5 PUSH2 0x3DD1 JUMP JUMPDEST SWAP8 SWAP7 POP POP POP POP POP POP POP JUMP JUMPDEST PUSH1 0x0 DUP1 PUSH1 0x40 DUP4 DUP6 SUB SLT ISZERO PUSH2 0x418B JUMPI PUSH2 0x418A PUSH2 0x38FE JUMP JUMPDEST JUMPDEST PUSH1 0x0 DUP4 ADD CALLDATALOAD PUSH8 0xFFFFFFFFFFFFFFFF DUP2 GT ISZERO PUSH2 0x41A9 JUMPI PUSH2 0x41A8 PUSH2 0x3903 JUMP JUMPDEST JUMPDEST PUSH2 0x41B5 DUP6 DUP3 DUP7 ADD PUSH2 0x3B7C JUMP JUMPDEST SWAP3 POP POP PUSH1 0x20 PUSH2 0x41C6 DUP6 DUP3 DUP7 ADD PUSH2 0x3D8F JUMP JUMPDEST SWAP2 POP POP SWAP3 POP SWAP3 SWAP1 POP JUMP JUMPDEST PUSH1 0x0 DUP1 PUSH1 0x40 DUP4 DUP6 SUB SLT ISZERO PUSH2 0x41E7 JUMPI PUSH2 0x41E6 PUSH2 0x38FE JUMP JUMPDEST JUMPDEST PUSH1 0x0 DUP4 ADD CALLDATALOAD PUSH8 0xFFFFFFFFFFFFFFFF DUP2 GT ISZERO PUSH2 0x4205 JUMPI PUSH2 0x4204 PUSH2 0x3903 JUMP JUMPDEST JUMPDEST PUSH2 0x4211 DUP6 DUP3 DUP7 ADD PUSH2 0x3B7C JUMP JUMPDEST SWAP3 POP POP PUSH1 0x20 DUP4 ADD CALLDATALOAD PUSH8 0xFFFFFFFFFFFFFFFF DUP2 GT ISZERO PUSH2 0x4232 JUMPI PUSH2 0x4231 PUSH2 0x3903 JUMP JUMPDEST JUMPDEST PUSH2 0x423E DUP6 DUP3 DUP7 ADD PUSH2 0x3B7C JUMP JUMPDEST SWAP2 POP POP SWAP3 POP SWAP3 SWAP1 POP JUMP JUMPDEST PUSH1 0x0 PUSH1 0x20 DUP3 DUP5 SUB SLT ISZERO PUSH2 0x425E JUMPI PUSH2 0x425D PUSH2 0x38FE JUMP JUMPDEST JUMPDEST PUSH1 0x0 PUSH2 0x426C DUP5 DUP3 DUP6 ADD PUSH2 0x3D16 JUMP JUMPDEST SWAP2 POP POP SWAP3 SWAP2 POP POP JUMP JUMPDEST PUSH1 0x0 DUP1 PUSH1 0x0 PUSH1 0x60 DUP5 DUP7 SUB SLT ISZERO PUSH2 0x428E JUMPI PUSH2 0x428D PUSH2 0x38FE JUMP JUMPDEST JUMPDEST PUSH1 0x0 DUP5 ADD CALLDATALOAD PUSH8 0xFFFFFFFFFFFFFFFF DUP2 GT ISZERO PUSH2 0x42AC JUMPI PUSH2 0x42AB PUSH2 0x3903 JUMP JUMPDEST JUMPDEST PUSH2 0x42B8 DUP7 DUP3 DUP8 ADD PUSH2 0x3B7C JUMP JUMPDEST SWAP4 POP POP PUSH1 0x20 PUSH2 0x42C9 DUP7 DUP3 DUP8 ADD PUSH2 0x3D8F JUMP JUMPDEST SWAP3 POP POP PUSH1 0x40 DUP5 ADD CALLDATALOAD PUSH8 0xFFFFFFFFFFFFFFFF DUP2 GT ISZERO PUSH2 0x42EA JUMPI PUSH2 0x42E9 PUSH2 0x3903 JUMP JUMPDEST JUMPDEST PUSH2 0x42F6 DUP7 DUP3 DUP8 ADD PUSH2 0x3B7C JUMP JUMPDEST SWAP2 POP POP SWAP3 POP SWAP3 POP SWAP3 JUMP JUMPDEST PUSH2 0x4309 DUP2 PUSH2 0x398D JUMP JUMPDEST DUP2 EQ PUSH2 0x4314 JUMPI PUSH1 0x0 DUP1 REVERT JUMPDEST POP JUMP JUMPDEST PUSH1 0x0 DUP2 CALLDATALOAD SWAP1 POP PUSH2 0x4326 DUP2 PUSH2 0x4300 JUMP JUMPDEST SWAP3 SWAP2 POP POP JUMP JUMPDEST PUSH1 0x0 DUP1 PUSH1 0x40 DUP4 DUP6 SUB SLT ISZERO PUSH2 0x4343 JUMPI PUSH2 0x4342 PUSH2 0x38FE JUMP JUMPDEST JUMPDEST PUSH1 0x0 PUSH2 0x4351 DUP6 DUP3 DUP7 ADD PUSH2 0x3D16 JUMP JUMPDEST SWAP3 POP POP PUSH1 0x20 PUSH2 0x4362 DUP6 DUP3 DUP7 ADD PUSH2 0x4317 JUMP JUMPDEST SWAP2 POP POP SWAP3 POP SWAP3 SWAP1 POP JUMP JUMPDEST PUSH1 0x0 DUP1 PUSH1 0x0 PUSH1 0x60 DUP5 DUP7 SUB SLT ISZERO PUSH2 0x4385 JUMPI PUSH2 0x4384 PUSH2 0x38FE JUMP JUMPDEST JUMPDEST PUSH1 0x0 DUP5 ADD CALLDATALOAD PUSH8 0xFFFFFFFFFFFFFFFF DUP2 GT ISZERO PUSH2 0x43A3 JUMPI PUSH2 0x43A2 PUSH2 0x3903 JUMP JUMPDEST JUMPDEST PUSH2 0x43AF DUP7 DUP3 DUP8 ADD PUSH2 0x3B7C JUMP JUMPDEST SWAP4 POP POP PUSH1 0x20 DUP5 ADD CALLDATALOAD PUSH8 0xFFFFFFFFFFFFFFFF DUP2 GT ISZERO PUSH2 0x43D0 JUMPI PUSH2 0x43CF PUSH2 0x3903 JUMP JUMPDEST JUMPDEST PUSH2 0x43DC DUP7 DUP3 DUP8 ADD PUSH2 0x3B7C JUMP JUMPDEST SWAP3 POP POP PUSH1 0x40 PUSH2 0x43ED DUP7 DUP3 DUP8 ADD PUSH2 0x3D8F JUMP JUMPDEST SWAP2 POP POP SWAP3 POP SWAP3 POP SWAP3 JUMP JUMPDEST PUSH1 0x0 PUSH1 0x60 DUP3 ADD SWAP1 POP PUSH2 0x440C PUSH1 0x0 DUP4 ADD DUP7 PUSH2 0x3DD1 JUMP JUMPDEST DUP2 DUP2 SUB PUSH1 0x20 DUP4 ADD MSTORE PUSH2 0x441E DUP2 DUP6 PUSH2 0x3A1A JUMP JUMPDEST SWAP1 POP DUP2 DUP2 SUB PUSH1 0x40 DUP4 ADD MSTORE PUSH2 0x4432 DUP2 DUP5 PUSH2 0x3A1A JUMP JUMPDEST SWAP1 POP SWAP5 SWAP4 POP POP POP POP JUMP JUMPDEST PUSH1 0x0 PUSH8 0xFFFFFFFFFFFFFFFF DUP3 GT ISZERO PUSH2 0x4457 JUMPI PUSH2 0x4456 PUSH2 0x3A7F JUMP JUMPDEST JUMPDEST PUSH2 0x4460 DUP3 PUSH2 0x3A09 JUMP JUMPDEST SWAP1 POP PUSH1 0x20 DUP2 ADD SWAP1 POP SWAP2 SWAP1 POP JUMP JUMPDEST PUSH1 0x0 PUSH2 0x4480 PUSH2 0x447B DUP5 PUSH2 0x443C JUMP JUMPDEST PUSH2 0x3ADF JUMP JUMPDEST SWAP1 POP DUP3 DUP2 MSTORE PUSH1 0x20 DUP2 ADD DUP5 DUP5 DUP5 ADD GT ISZERO PUSH2 0x449C JUMPI PUSH2 0x449B PUSH2 0x3A7A JUMP JUMPDEST JUMPDEST PUSH2 0x44A7 DUP5 DUP3 DUP6 PUSH2 0x3B2B JUMP JUMPDEST POP SWAP4 SWAP3 POP POP POP JUMP JUMPDEST PUSH1 0x0 DUP3 PUSH1 0x1F DUP4 ADD SLT PUSH2 0x44C4 JUMPI PUSH2 0x44C3 PUSH2 0x3A75 JUMP JUMPDEST JUMPDEST DUP2 CALLDATALOAD PUSH2 0x44D4 DUP5 DUP3 PUSH1 0x20 DUP7 ADD PUSH2 0x446D JUMP JUMPDEST SWAP2 POP POP SWAP3 SWAP2 POP POP JUMP JUMPDEST PUSH1 0x0 DUP1 PUSH1 0x0 DUP1 PUSH1 0x80 DUP6 DUP8 SUB SLT ISZERO PUSH2 0x44F7 JUMPI PUSH2 0x44F6 PUSH2 0x38FE JUMP JUMPDEST JUMPDEST PUSH1 0x0 PUSH2 0x4505 DUP8 DUP3 DUP9 ADD PUSH2 0x3D16 JUMP JUMPDEST SWAP5 POP POP PUSH1 0x20 PUSH2 0x4516 DUP8 DUP3 DUP9 ADD PUSH2 0x3D16 JUMP JUMPDEST SWAP4 POP POP PUSH1 0x40 PUSH2 0x4527 DUP8 DUP3 DUP9 ADD PUSH2 0x3C61 JUMP JUMPDEST SWAP3 POP POP PUSH1 0x60 DUP6 ADD CALLDATALOAD PUSH8 0xFFFFFFFFFFFFFFFF DUP2 GT ISZERO PUSH2 0x4548 JUMPI PUSH2 0x4547 PUSH2 0x3903 JUMP JUMPDEST JUMPDEST PUSH2 0x4554 DUP8 DUP3 DUP9 ADD PUSH2 0x44AF JUMP JUMPDEST SWAP2 POP POP SWAP3 SWAP6 SWAP2 SWAP5 POP SWAP3 POP JUMP JUMPDEST PUSH1 0x0 DUP1 PUSH1 0x0 PUSH1 0x60 DUP5 DUP7 SUB SLT ISZERO PUSH2 0x4579 JUMPI PUSH2 0x4578 PUSH2 0x38FE JUMP JUMPDEST JUMPDEST PUSH1 0x0 DUP5 ADD CALLDATALOAD PUSH8 0xFFFFFFFFFFFFFFFF DUP2 GT ISZERO PUSH2 0x4597 JUMPI PUSH2 0x4596 PUSH2 0x3903 JUMP JUMPDEST JUMPDEST PUSH2 0x45A3 DUP7 DUP3 DUP8 ADD PUSH2 0x3B7C JUMP JUMPDEST SWAP4 POP POP PUSH1 0x20 PUSH2 0x45B4 DUP7 DUP3 DUP8 ADD PUSH2 0x3D8F JUMP JUMPDEST SWAP3 POP POP PUSH1 0x40 PUSH2 0x45C5 DUP7 DUP3 DUP8 ADD PUSH2 0x3C61 JUMP JUMPDEST SWAP2 POP POP SWAP3 POP SWAP3 POP SWAP3 JUMP JUMPDEST PUSH1 0x0 DUP1 PUSH1 0x40 DUP4 DUP6 SUB SLT ISZERO PUSH2 0x45E6 JUMPI PUSH2 0x45E5 PUSH2 0x38FE JUMP JUMPDEST JUMPDEST PUSH1 0x0 PUSH2 0x45F4 DUP6 DUP3 DUP7 ADD PUSH2 0x3D16 JUMP JUMPDEST SWAP3 POP POP PUSH1 0x20 PUSH2 0x4605 DUP6 DUP3 DUP7 ADD PUSH2 0x3D16 JUMP JUMPDEST SWAP2 POP POP SWAP3 POP SWAP3 SWAP1 POP JUMP JUMPDEST PUSH32 0x4E487B7100000000000000000000000000000000000000000000000000000000 PUSH1 0x0 MSTORE PUSH1 0x22 PUSH1 0x4 MSTORE PUSH1 0x24 PUSH1 0x0 REVERT JUMPDEST PUSH1 0x0 PUSH1 0x2 DUP3 DIV SWAP1 POP PUSH1 0x1 DUP3 AND DUP1 PUSH2 0x4656 JUMPI PUSH1 0x7F DUP3 AND SWAP2 POP JUMPDEST PUSH1 0x20 DUP3 LT DUP2 SUB PUSH2 0x4669 JUMPI PUSH2 0x4668 PUSH2 0x460F JUMP JUMPDEST JUMPDEST POP SWAP2 SWAP1 POP JUMP JUMPDEST PUSH32 0x4552433732313A20617070726F76616C20746F2063757272656E74206F776E65 PUSH1 0x0 DUP3 ADD MSTORE PUSH32 0x7200000000000000000000000000000000000000000000000000000000000000 PUSH1 0x20 DUP3 ADD MSTORE POP JUMP JUMPDEST PUSH1 0x0 PUSH2 0x46CB PUSH1 0x21 DUP4 PUSH2 0x39CE JUMP JUMPDEST SWAP2 POP PUSH2 0x46D6 DUP3 PUSH2 0x466F JUMP JUMPDEST PUSH1 0x40 DUP3 ADD SWAP1 POP SWAP2 SWAP1 POP JUMP JUMPDEST PUSH1 0x0 PUSH1 0x20 DUP3 ADD SWAP1 POP DUP2 DUP2 SUB PUSH1 0x0 DUP4 ADD MSTORE PUSH2 0x46FA DUP2 PUSH2 0x46BE JUMP JUMPDEST SWAP1 POP SWAP2 SWAP1 POP JUMP JUMPDEST PUSH32 0x4552433732313A20617070726F76652063616C6C6572206973206E6F7420746F PUSH1 0x0 DUP3 ADD MSTORE PUSH32 0x6B656E206F776E6572206F7220617070726F76656420666F7220616C6C000000 PUSH1 0x20 DUP3 ADD MSTORE POP JUMP JUMPDEST PUSH1 0x0 PUSH2 0x475D PUSH1 0x3D DUP4 PUSH2 0x39CE JUMP JUMPDEST SWAP2 POP PUSH2 0x4768 DUP3 PUSH2 0x4701 JUMP JUMPDEST PUSH1 0x40 DUP3 ADD SWAP1 POP SWAP2 SWAP1 POP JUMP JUMPDEST PUSH1 0x0 PUSH1 0x20 DUP3 ADD SWAP1 POP DUP2 DUP2 SUB PUSH1 0x0 DUP4 ADD MSTORE PUSH2 0x478C DUP2 PUSH2 0x4750 JUMP JUMPDEST SWAP1 POP SWAP2 SWAP1 POP JUMP JUMPDEST PUSH32 0x4552433732313A2063616C6C6572206973206E6F7420746F6B656E206F776E65 PUSH1 0x0 DUP3 ADD MSTORE PUSH32 0x72206F7220617070726F76656400000000000000000000000000000000000000 PUSH1 0x20 DUP3 ADD MSTORE POP JUMP JUMPDEST PUSH1 0x0 PUSH2 0x47EF PUSH1 0x2D DUP4 PUSH2 0x39CE JUMP JUMPDEST SWAP2 POP PUSH2 0x47FA DUP3 PUSH2 0x4793 JUMP JUMPDEST PUSH1 0x40 DUP3 ADD SWAP1 POP SWAP2 SWAP1 POP JUMP JUMPDEST PUSH1 0x0 PUSH1 0x20 DUP3 ADD SWAP1 POP DUP2 DUP2 SUB PUSH1 0x0 DUP4 ADD MSTORE PUSH2 0x481E DUP2 PUSH2 0x47E2 JUMP JUMPDEST SWAP1 POP SWAP2 SWAP1 POP JUMP JUMPDEST PUSH32 0x4E487B7100000000000000000000000000000000000000000000000000000000 PUSH1 0x0 MSTORE PUSH1 0x11 PUSH1 0x4 MSTORE PUSH1 0x24 PUSH1 0x0 REVERT JUMPDEST PUSH1 0x0 PUSH2 0x485F DUP3 PUSH2 0x3D6B JUMP JUMPDEST SWAP2 POP PUSH1 0xFF DUP3 SUB PUSH2 0x4872 JUMPI PUSH2 0x4871 PUSH2 0x4825 JUMP JUMPDEST JUMPDEST PUSH1 0x1 DUP3 ADD SWAP1 POP SWAP2 SWAP1 POP JUMP JUMPDEST PUSH1 0x0 DUP2 SWAP1 POP DUP2 PUSH1 0x0 MSTORE PUSH1 0x20 PUSH1 0x0 KECCAK256 SWAP1 POP SWAP2 SWAP1 POP JUMP JUMPDEST PUSH1 0x0 PUSH1 0x20 PUSH1 0x1F DUP4 ADD DIV SWAP1 POP SWAP2 SWAP1 POP JUMP JUMPDEST PUSH1 0x0 DUP3 DUP3 SHL SWAP1 POP SWAP3 SWAP2 POP POP JUMP JUMPDEST PUSH1 0x0 PUSH1 0x8 DUP4 MUL PUSH2 0x48DF PUSH32 0xFFFFFFFFFFFFFFFFFFFFFFFFFFFFFFFFFFFFFFFFFFFFFFFFFFFFFFFFFFFFFFFF DUP3 PUSH2 0x48A2 JUMP JUMPDEST PUSH2 0x48E9 DUP7 DUP4 PUSH2 0x48A2 JUMP JUMPDEST SWAP6 POP DUP1 NOT DUP5 AND SWAP4 POP DUP1 DUP7 AND DUP5 OR SWAP3 POP POP POP SWAP4 SWAP3 POP POP POP JUMP JUMPDEST PUSH1 0x0 DUP2 SWAP1 POP SWAP2 SWAP1 POP JUMP JUMPDEST PUSH1 0x0 PUSH2 0x4926 PUSH2 0x4921 PUSH2 0x491C DUP5 PUSH2 0x3BF3 JUMP JUMPDEST PUSH2 0x4901 JUMP JUMPDEST PUSH2 0x3BF3 JUMP JUMPDEST SWAP1 POP SWAP2 SWAP1 POP JUMP JUMPDEST PUSH1 0x0 DUP2 SWAP1 POP SWAP2 SWAP1 POP JUMP JUMPDEST PUSH2 0x4940 DUP4 PUSH2 0x490B JUMP JUMPDEST PUSH2 0x4954 PUSH2 0x494C DUP3 PUSH2 0x492D JUMP JUMPDEST DUP5 DUP5 SLOAD PUSH2 0x48AF JUMP JUMPDEST DUP3 SSTORE POP POP POP POP JUMP JUMPDEST PUSH1 0x0 SWAP1 JUMP JUMPDEST PUSH2 0x4969 PUSH2 0x495C JUMP JUMPDEST PUSH2 0x4974 DUP2 DUP5 DUP5 PUSH2 0x4937 JUMP JUMPDEST POP POP POP JUMP JUMPDEST JUMPDEST DUP2 DUP2 LT ISZERO PUSH2 0x4998 JUMPI PUSH2 0x498D PUSH1 0x0 DUP3 PUSH2 0x4961 JUMP JUMPDEST PUSH1 0x1 DUP2 ADD SWAP1 POP PUSH2 0x497A JUMP JUMPDEST POP POP JUMP JUMPDEST PUSH1 0x1F DUP3 GT ISZERO PUSH2 0x49DD JUMPI PUSH2 0x49AE DUP2 PUSH2 0x487D JUMP JUMPDEST PUSH2 0x49B7 DUP5 PUSH2 0x4892 JUMP JUMPDEST DUP2 ADD PUSH1 0x20 DUP6 LT ISZERO PUSH2 0x49C6 JUMPI DUP2 SWAP1 POP JUMPDEST PUSH2 0x49DA PUSH2 0x49D2 DUP6 PUSH2 0x4892 JUMP JUMPDEST DUP4 ADD DUP3 PUSH2 0x4979 JUMP JUMPDEST POP POP JUMPDEST POP POP POP JUMP JUMPDEST PUSH1 0x0 DUP3 DUP3 SHR SWAP1 POP SWAP3 SWAP2 POP POP JUMP JUMPDEST PUSH1 0x0 PUSH2 0x4A00 PUSH1 0x0 NOT DUP5 PUSH1 0x8 MUL PUSH2 0x49E2 JUMP JUMPDEST NOT DUP1 DUP4 AND SWAP2 POP POP SWAP3 SWAP2 POP POP JUMP JUMPDEST PUSH1 0x0 PUSH2 0x4A19 DUP4 DUP4 PUSH2 0x49EF JUMP JUMPDEST SWAP2 POP DUP3 PUSH1 0x2 MUL DUP3 OR SWAP1 POP SWAP3 SWAP2 POP POP JUMP JUMPDEST PUSH2 0x4A32 DUP3 PUSH2 0x39C3 JUMP JUMPDEST PUSH8 0xFFFFFFFFFFFFFFFF DUP2 GT ISZERO PUSH2 0x4A4B JUMPI PUSH2 0x4A4A PUSH2 0x3A7F JUMP JUMPDEST JUMPDEST PUSH2 0x4A55 DUP3 SLOAD PUSH2 0x463E JUMP JUMPDEST PUSH2 0x4A60 DUP3 DUP3 DUP6 PUSH2 0x499C JUMP JUMPDEST PUSH1 0x0 PUSH1 0x20 SWAP1 POP PUSH1 0x1F DUP4 GT PUSH1 0x1 DUP2 EQ PUSH2 0x4A93 JUMPI PUSH1 0x0 DUP5 ISZERO PUSH2 0x4A81 JUMPI DUP3 DUP8 ADD MLOAD SWAP1 POP JUMPDEST PUSH2 0x4A8B DUP6 DUP3 PUSH2 0x4A0D JUMP JUMPDEST DUP7 SSTORE POP PUSH2 0x4AF3 JUMP JUMPDEST PUSH1 0x1F NOT DUP5 AND PUSH2 0x4AA1 DUP7 PUSH2 0x487D JUMP JUMPDEST PUSH1 0x0 JUMPDEST DUP3 DUP2 LT ISZERO PUSH2 0x4AC9 JUMPI DUP5 DUP10 ADD MLOAD DUP3 SSTORE PUSH1 0x1 DUP3 ADD SWAP2 POP PUSH1 0x20 DUP6 ADD SWAP5 POP PUSH1 0x20 DUP2 ADD SWAP1 POP PUSH2 0x4AA4 JUMP JUMPDEST DUP7 DUP4 LT ISZERO PUSH2 0x4AE6 JUMPI DUP5 DUP10 ADD MLOAD PUSH2 0x4AE2 PUSH1 0x1F DUP10 AND DUP3 PUSH2 0x49EF JUMP JUMPDEST DUP4 SSTORE POP JUMPDEST PUSH1 0x1 PUSH1 0x2 DUP9 MUL ADD DUP9 SSTORE POP POP POP JUMPDEST POP POP POP POP POP POP JUMP JUMPDEST PUSH1 0x0 DUP2 SWAP1 POP SWAP2 SWAP1 POP JUMP JUMPDEST PUSH1 0x0 PUSH2 0x4B20 PUSH2 0x4B1B PUSH2 0x4B16 DUP5 PUSH2 0x4AFB JUMP JUMPDEST PUSH2 0x4901 JUMP JUMPDEST PUSH2 0x3D6B JUMP JUMPDEST SWAP1 POP SWAP2 SWAP1 POP JUMP JUMPDEST PUSH2 0x4B30 DUP2 PUSH2 0x4B05 JUMP JUMPDEST DUP3 MSTORE POP POP JUMP JUMPDEST PUSH1 0x0 PUSH1 0x60 DUP3 ADD SWAP1 POP PUSH2 0x4B4B PUSH1 0x0 DUP4 ADD DUP7 PUSH2 0x3DD1 JUMP JUMPDEST DUP2 DUP2 SUB PUSH1 0x20 DUP4 ADD MSTORE PUSH2 0x4B5D DUP2 DUP6 PUSH2 0x3A1A JUMP JUMPDEST SWAP1 POP PUSH2 0x4B6C PUSH1 0x40 DUP4 ADD DUP5 PUSH2 0x4B27 JUMP JUMPDEST SWAP5 SWAP4 POP POP POP POP JUMP JUMPDEST PUSH1 0x0 DUP2 SWAP1 POP SWAP3 SWAP2 POP POP JUMP JUMPDEST PUSH1 0x0 PUSH2 0x4B8A DUP3 PUSH2 0x39C3 JUMP JUMPDEST PUSH2 0x4B94 DUP2 DUP6 PUSH2 0x4B74 JUMP JUMPDEST SWAP4 POP PUSH2 0x4BA4 DUP2 DUP6 PUSH1 0x20 DUP7 ADD PUSH2 0x39DF JUMP JUMPDEST DUP1 DUP5 ADD SWAP2 POP POP SWAP3 SWAP2 POP POP JUMP JUMPDEST PUSH1 0x0 PUSH2 0x4BBC DUP3 DUP5 PUSH2 0x4B7F JUMP JUMPDEST SWAP2 POP DUP2 SWAP1 POP SWAP3 SWAP2 POP POP JUMP JUMPDEST PUSH32 0x5573657220616C72656164792045786973747300000000000000000000000000 PUSH1 0x0 DUP3 ADD MSTORE POP JUMP JUMPDEST PUSH1 0x0 PUSH2 0x4BFD PUSH1 0x13 DUP4 PUSH2 0x39CE JUMP JUMPDEST SWAP2 POP PUSH2 0x4C08 DUP3 PUSH2 0x4BC7 JUMP JUMPDEST PUSH1 0x20 DUP3 ADD SWAP1 POP SWAP2 SWAP1 POP JUMP JUMPDEST PUSH1 0x0 PUSH1 0x20 DUP3 ADD SWAP1 POP DUP2 DUP2 SUB PUSH1 0x0 DUP4 ADD MSTORE PUSH2 0x4C2C DUP2 PUSH2 0x4BF0 JUMP JUMPDEST SWAP1 POP SWAP2 SWAP1 POP JUMP JUMPDEST PUSH32 0x4552433732313A20696E76616C696420746F6B656E2049440000000000000000 PUSH1 0x0 DUP3 ADD MSTORE POP JUMP JUMPDEST PUSH1 0x0 PUSH2 0x4C69 PUSH1 0x18 DUP4 PUSH2 0x39CE JUMP JUMPDEST SWAP2 POP PUSH2 0x4C74 DUP3 PUSH2 0x4C33 JUMP JUMPDEST PUSH1 0x20 DUP3 ADD SWAP1 POP SWAP2 SWAP1 POP JUMP JUMPDEST PUSH1 0x0 PUSH1 0x20 DUP3 ADD SWAP1 POP DUP2 DUP2 SUB PUSH1 0x0 DUP4 ADD MSTORE PUSH2 0x4C98 DUP2 PUSH2 0x4C5C JUMP JUMPDEST SWAP1 POP SWAP2 SWAP1 POP JUMP JUMPDEST PUSH32 0x4552433732313A2061646472657373207A65726F206973206E6F742061207661 PUSH1 0x0 DUP3 ADD MSTORE PUSH32 0x6C6964206F776E65720000000000000000000000000000000000000000000000 PUSH1 0x20 DUP3 ADD MSTORE POP JUMP JUMPDEST PUSH1 0x0 PUSH2 0x4CFB PUSH1 0x29 DUP4 PUSH2 0x39CE JUMP JUMPDEST SWAP2 POP PUSH2 0x4D06 DUP3 PUSH2 0x4C9F JUMP JUMPDEST PUSH1 0x40 DUP3 ADD SWAP1 POP SWAP2 SWAP1 POP JUMP JUMPDEST PUSH1 0x0 PUSH1 0x20 DUP3 ADD SWAP1 POP DUP2 DUP2 SUB PUSH1 0x0 DUP4 ADD MSTORE PUSH2 0x4D2A DUP2 PUSH2 0x4CEE JUMP JUMPDEST SWAP1 POP SWAP2 SWAP1 POP JUMP JUMPDEST PUSH1 0x0 PUSH2 0x4D3C DUP3 PUSH2 0x3D6B JUMP JUMPDEST SWAP2 POP PUSH2 0x4D47 DUP4 PUSH2 0x3D6B JUMP JUMPDEST SWAP3 POP DUP3 DUP3 ADD SWAP1 POP PUSH1 0xFF DUP2 GT ISZERO PUSH2 0x4D60 JUMPI PUSH2 0x4D5F PUSH2 0x4825 JUMP JUMPDEST JUMPDEST SWAP3 SWAP2 POP POP JUMP JUMPDEST PUSH1 0x0 PUSH1 0x60 DUP3 ADD SWAP1 POP DUP2 DUP2 SUB PUSH1 0x0 DUP4 ADD MSTORE PUSH2 0x4D80 DUP2 DUP7 PUSH2 0x3A1A JUMP JUMPDEST SWAP1 POP PUSH2 0x4D8F PUSH1 0x20 DUP4 ADD DUP6 PUSH2 0x3DD1 JUMP JUMPDEST PUSH2 0x4D9C PUSH1 0x40 DUP4 ADD DUP5 PUSH2 0x3CD5 JUMP JUMPDEST SWAP5 SWAP4 POP POP POP POP JUMP JUMPDEST PUSH1 0x0 DUP2 SLOAD SWAP1 POP PUSH2 0x4DB3 DUP2 PUSH2 0x463E JUMP JUMPDEST SWAP1 POP SWAP2 SWAP1 POP JUMP JUMPDEST DUP2 DUP2 SUB PUSH2 0x4DC8 JUMPI POP POP PUSH2 0x4EA0 JUMP JUMPDEST PUSH2 0x4DD1 DUP3 PUSH2 0x4DA4 JUMP JUMPDEST PUSH8 0xFFFFFFFFFFFFFFFF DUP2 GT ISZERO PUSH2 0x4DEA JUMPI PUSH2 0x4DE9 PUSH2 0x3A7F JUMP JUMPDEST JUMPDEST PUSH2 0x4DF4 DUP3 SLOAD PUSH2 0x463E JUMP JUMPDEST PUSH2 0x4DFF DUP3 DUP3 DUP6 PUSH2 0x499C JUMP JUMPDEST PUSH1 0x0 PUSH1 0x1F DUP4 GT PUSH1 0x1 DUP2 EQ PUSH2 0x4E2E JUMPI PUSH1 0x0 DUP5 ISZERO PUSH2 0x4E1C JUMPI DUP3 DUP8 ADD SLOAD SWAP1 POP JUMPDEST PUSH2 0x4E26 DUP6 DUP3 PUSH2 0x4A0D JUMP JUMPDEST DUP7 SSTORE POP PUSH2 0x4E99 JUMP JUMPDEST PUSH1 0x1F NOT DUP5 AND PUSH2 0x4E3C DUP8 PUSH2 0x487D JUMP JUMPDEST SWAP7 POP PUSH2 0x4E47 DUP7 PUSH2 0x487D JUMP JUMPDEST PUSH1 0x0 JUMPDEST DUP3 DUP2 LT ISZERO PUSH2 0x4E6F JUMPI DUP5 DUP10 ADD SLOAD DUP3 SSTORE PUSH1 0x1 DUP3 ADD SWAP2 POP PUSH1 0x1 DUP6 ADD SWAP5 POP PUSH1 0x20 DUP2 ADD SWAP1 POP PUSH2 0x4E4A JUMP JUMPDEST DUP7 DUP4 LT ISZERO PUSH2 0x4E8C JUMPI DUP5 DUP10 ADD SLOAD PUSH2 0x4E88 PUSH1 0x1F DUP10 AND DUP3 PUSH2 0x49EF JUMP JUMPDEST DUP4 SSTORE POP JUMPDEST PUSH1 0x1 PUSH1 0x2 DUP9 MUL ADD DUP9 SSTORE POP POP POP JUMPDEST POP POP POP POP POP POP JUMPDEST JUMP JUMPDEST PUSH1 0x0 PUSH2 0x4EAD DUP3 PUSH2 0x3BF3 JUMP JUMPDEST SWAP2 POP PUSH2 0x4EB8 DUP4 PUSH2 0x3BF3 JUMP JUMPDEST SWAP3 POP DUP3 DUP3 ADD SWAP1 POP DUP1 DUP3 GT ISZERO PUSH2 0x4ED0 JUMPI PUSH2 0x4ECF PUSH2 0x4825 JUMP JUMPDEST JUMPDEST SWAP3 SWAP2 POP POP JUMP JUMPDEST PUSH1 0x0 PUSH2 0x4EE1 DUP3 PUSH2 0x3BF3 JUMP JUMPDEST SWAP2 POP PUSH2 0x4EEC DUP4 PUSH2 0x3BF3 JUMP JUMPDEST SWAP3 POP DUP3 DUP3 MUL PUSH2 0x4EFA DUP2 PUSH2 0x3BF3 JUMP JUMPDEST SWAP2 POP DUP3 DUP3 DIV DUP5 EQ DUP4 ISZERO OR PUSH2 0x4F11 JUMPI PUSH2 0x4F10 PUSH2 0x4825 JUMP JUMPDEST JUMPDEST POP SWAP3 SWAP2 POP POP JUMP JUMPDEST PUSH1 0x0 PUSH2 0x4F24 DUP3 DUP6 PUSH2 0x4B7F JUMP JUMPDEST SWAP2 POP PUSH2 0x4F30 DUP3 DUP5 PUSH2 0x4B7F JUMP JUMPDEST SWAP2 POP DUP2 SWAP1 POP SWAP4 SWAP3 POP POP POP JUMP JUMPDEST PUSH32 0x436F6D6D756E69747920616C7265616479204578697374730000000000000000 PUSH1 0x0 DUP3 ADD MSTORE POP JUMP JUMPDEST PUSH1 0x0 PUSH2 0x4F72 PUSH1 0x18 DUP4 PUSH2 0x39CE JUMP JUMPDEST SWAP2 POP PUSH2 0x4F7D DUP3 PUSH2 0x4F3C JUMP JUMPDEST PUSH1 0x20 DUP3 ADD SWAP1 POP SWAP2 SWAP1 POP JUMP JUMPDEST PUSH1 0x0 PUSH1 0x20 DUP3 ADD SWAP1 POP DUP2 DUP2 SUB PUSH1 0x0 DUP4 ADD MSTORE PUSH2 0x4FA1 DUP2 PUSH2 0x4F65 JUMP JUMPDEST SWAP1 POP SWAP2 SWAP1 POP JUMP JUMPDEST PUSH32 0x4F776E61626C653A206E6577206F776E657220697320746865207A65726F2061 PUSH1 0x0 DUP3 ADD MSTORE PUSH32 0x6464726573730000000000000000000000000000000000000000000000000000 PUSH1 0x20 DUP3 ADD MSTORE POP JUMP JUMPDEST PUSH1 0x0 PUSH2 0x5004 PUSH1 0x26 DUP4 PUSH2 0x39CE JUMP JUMPDEST SWAP2 POP PUSH2 0x500F DUP3 PUSH2 0x4FA8 JUMP JUMPDEST PUSH1 0x40 DUP3 ADD SWAP1 POP SWAP2 SWAP1 POP JUMP JUMPDEST PUSH1 0x0 PUSH1 0x20 DUP3 ADD SWAP1 POP DUP2 DUP2 SUB PUSH1 0x0 DUP4 ADD MSTORE PUSH2 0x5033 DUP2 PUSH2 0x4FF7 JUMP JUMPDEST SWAP1 POP SWAP2 SWAP1 POP JUMP JUMPDEST PUSH32 0x50726F766964652073756666696369656E742066656573000000000000000000 PUSH1 0x0 DUP3 ADD MSTORE POP JUMP JUMPDEST PUSH1 0x0 PUSH2 0x5070 PUSH1 0x17 DUP4 PUSH2 0x39CE JUMP JUMPDEST SWAP2 POP PUSH2 0x507B DUP3 PUSH2 0x503A JUMP JUMPDEST PUSH1 0x20 DUP3 ADD SWAP1 POP SWAP2 SWAP1 POP JUMP JUMPDEST PUSH1 0x0 PUSH1 0x20 DUP3 ADD SWAP1 POP DUP2 DUP2 SUB PUSH1 0x0 DUP4 ADD MSTORE PUSH2 0x509F DUP2 PUSH2 0x5063 JUMP JUMPDEST SWAP1 POP SWAP2 SWAP1 POP JUMP JUMPDEST PUSH1 0x0 PUSH2 0x50B1 DUP3 PUSH2 0x3BF3 JUMP JUMPDEST SWAP2 POP PUSH2 0x50BC DUP4 PUSH2 0x3BF3 JUMP JUMPDEST SWAP3 POP DUP3 DUP3 SUB SWAP1 POP DUP2 DUP2 GT ISZERO PUSH2 0x50D4 JUMPI PUSH2 0x50D3 PUSH2 0x4825 JUMP JUMPDEST JUMPDEST SWAP3 SWAP2 POP POP JUMP JUMPDEST PUSH32 0x4552433732313A207472616E736665722066726F6D20696E636F727265637420 PUSH1 0x0 DUP3 ADD MSTORE PUSH32 0x6F776E6572000000000000000000000000000000000000000000000000000000 PUSH1 0x20 DUP3 ADD MSTORE POP JUMP JUMPDEST PUSH1 0x0 PUSH2 0x5136 PUSH1 0x25 DUP4 PUSH2 0x39CE JUMP JUMPDEST SWAP2 POP PUSH2 0x5141 DUP3 PUSH2 0x50DA JUMP JUMPDEST PUSH1 0x40 DUP3 ADD SWAP1 POP SWAP2 SWAP1 POP JUMP JUMPDEST PUSH1 0x0 PUSH1 0x20 DUP3 ADD SWAP1 POP DUP2 DUP2 SUB PUSH1 0x0 DUP4 ADD MSTORE PUSH2 0x5165 DUP2 PUSH2 0x5129 JUMP JUMPDEST SWAP1 POP SWAP2 SWAP1 POP JUMP JUMPDEST PUSH32 0x4552433732313A207472616E7366657220746F20746865207A65726F20616464 PUSH1 0x0 DUP3 ADD MSTORE PUSH32 0x7265737300000000000000000000000000000000000000000000000000000000 PUSH1 0x20 DUP3 ADD MSTORE POP JUMP JUMPDEST PUSH1 0x0 PUSH2 0x51C8 PUSH1 0x24 DUP4 PUSH2 0x39CE JUMP JUMPDEST SWAP2 POP PUSH2 0x51D3 DUP3 PUSH2 0x516C JUMP JUMPDEST PUSH1 0x40 DUP3 ADD SWAP1 POP SWAP2 SWAP1 POP JUMP JUMPDEST PUSH1 0x0 PUSH1 0x20 DUP3 ADD SWAP1 POP DUP2 DUP2 SUB PUSH1 0x0 DUP4 ADD MSTORE PUSH2 0x51F7 DUP2 PUSH2 0x51BB JUMP JUMPDEST SWAP1 POP SWAP2 SWAP1 POP JUMP JUMPDEST PUSH32 0x4F776E61626C653A2063616C6C6572206973206E6F7420746865206F776E6572 PUSH1 0x0 DUP3 ADD MSTORE POP JUMP JUMPDEST PUSH1 0x0 PUSH2 0x5234 PUSH1 0x20 DUP4 PUSH2 0x39CE JUMP JUMPDEST SWAP2 POP PUSH2 0x523F DUP3 PUSH2 0x51FE JUMP JUMPDEST PUSH1 0x20 DUP3 ADD SWAP1 POP SWAP2 SWAP1 POP JUMP JUMPDEST PUSH1 0x0 PUSH1 0x20 DUP3 ADD SWAP1 POP DUP2 DUP2 SUB PUSH1 0x0 DUP4 ADD MSTORE PUSH2 0x5263 DUP2 PUSH2 0x5227 JUMP JUMPDEST SWAP1 POP SWAP2 SWAP1 POP JUMP JUMPDEST PUSH32 0x4552433732313A20617070726F766520746F2063616C6C657200000000000000 PUSH1 0x0 DUP3 ADD MSTORE POP JUMP JUMPDEST PUSH1 0x0 PUSH2 0x52A0 PUSH1 0x19 DUP4 PUSH2 0x39CE JUMP JUMPDEST SWAP2 POP PUSH2 0x52AB DUP3 PUSH2 0x526A JUMP JUMPDEST PUSH1 0x20 DUP3 ADD SWAP1 POP SWAP2 SWAP1 POP JUMP JUMPDEST PUSH1 0x0 PUSH1 0x20 DUP3 ADD SWAP1 POP DUP2 DUP2 SUB PUSH1 0x0 DUP4 ADD MSTORE PUSH2 0x52CF DUP2 PUSH2 0x5293 JUMP JUMPDEST SWAP1 POP SWAP2 SWAP1 POP JUMP JUMPDEST PUSH32 0x4552433732313A207472616E7366657220746F206E6F6E204552433732315265 PUSH1 0x0 DUP3 ADD MSTORE PUSH32 0x63656976657220696D706C656D656E7465720000000000000000000000000000 PUSH1 0x20 DUP3 ADD MSTORE POP JUMP JUMPDEST PUSH1 0x0 PUSH2 0x5332 PUSH1 0x32 DUP4 PUSH2 0x39CE JUMP JUMPDEST SWAP2 POP PUSH2 0x533D DUP3 PUSH2 0x52D6 JUMP JUMPDEST PUSH1 0x40 DUP3 ADD SWAP1 POP SWAP2 SWAP1 POP JUMP JUMPDEST PUSH1 0x0 PUSH1 0x20 DUP3 ADD SWAP1 POP DUP2 DUP2 SUB PUSH1 0x0 DUP4 ADD MSTORE PUSH2 0x5361 DUP2 PUSH2 0x5325 JUMP JUMPDEST SWAP1 POP SWAP2 SWAP1 POP JUMP JUMPDEST PUSH1 0x0 DUP2 SLOAD PUSH2 0x5375 DUP2 PUSH2 0x463E JUMP JUMPDEST PUSH2 0x537F DUP2 DUP7 PUSH2 0x39CE JUMP JUMPDEST SWAP5 POP PUSH1 0x1 DUP3 AND PUSH1 0x0 DUP2 EQ PUSH2 0x539A JUMPI PUSH1 0x1 DUP2 EQ PUSH2 0x53B0 JUMPI PUSH2 0x53E3 JUMP JUMPDEST PUSH1 0xFF NOT DUP4 AND DUP7 MSTORE DUP2 ISZERO ISZERO PUSH1 0x20 MUL DUP7 ADD SWAP4 POP PUSH2 0x53E3 JUMP JUMPDEST PUSH2 0x53B9 DUP6 PUSH2 0x487D JUMP JUMPDEST PUSH1 0x0 JUMPDEST DUP4 DUP2 LT ISZERO PUSH2 0x53DB JUMPI DUP2 SLOAD DUP2 DUP10 ADD MSTORE PUSH1 0x1 DUP3 ADD SWAP2 POP PUSH1 0x20 DUP2 ADD SWAP1 POP PUSH2 0x53BC JUMP JUMPDEST DUP1 DUP9 ADD SWAP6 POP POP POP JUMPDEST POP POP POP SWAP3 SWAP2 POP POP JUMP JUMPDEST PUSH1 0x0 PUSH1 0x40 DUP3 ADD SWAP1 POP PUSH2 0x5401 PUSH1 0x0 DUP4 ADD DUP6 PUSH2 0x3DD1 JUMP JUMPDEST DUP2 DUP2 SUB PUSH1 0x20 DUP4 ADD MSTORE PUSH2 0x5413 DUP2 DUP5 PUSH2 0x5368 JUMP JUMPDEST SWAP1 POP SWAP4 SWAP3 POP POP POP JUMP JUMPDEST PUSH1 0x0 DUP2 MLOAD SWAP1 POP SWAP2 SWAP1 POP JUMP JUMPDEST PUSH1 0x0 DUP3 DUP3 MSTORE PUSH1 0x20 DUP3 ADD SWAP1 POP SWAP3 SWAP2 POP POP JUMP JUMPDEST PUSH1 0x0 PUSH2 0x5443 DUP3 PUSH2 0x541C JUMP JUMPDEST PUSH2 0x544D DUP2 DUP6 PUSH2 0x5427 JUMP JUMPDEST SWAP4 POP PUSH2 0x545D DUP2 DUP6 PUSH1 0x20 DUP7 ADD PUSH2 0x39DF JUMP JUMPDEST PUSH2 0x5466 DUP2 PUSH2 0x3A09 JUMP JUMPDEST DUP5 ADD SWAP2 POP POP SWAP3 SWAP2 POP POP JUMP JUMPDEST PUSH1 0x0 PUSH1 0x80 DUP3 ADD SWAP1 POP PUSH2 0x5486 PUSH1 0x0 DUP4 ADD DUP8 PUSH2 0x3CD5 JUMP JUMPDEST PUSH2 0x5493 PUSH1 0x20 DUP4 ADD DUP7 PUSH2 0x3CD5 JUMP JUMPDEST PUSH2 0x54A0 PUSH1 0x40 DUP4 ADD DUP6 PUSH2 0x3BFD JUMP JUMPDEST DUP2 DUP2 SUB PUSH1 0x60 DUP4 ADD MSTORE PUSH2 0x54B2 DUP2 DUP5 PUSH2 0x5438 JUMP JUMPDEST SWAP1 POP SWAP6 SWAP5 POP POP POP POP POP JUMP JUMPDEST PUSH1 0x0 DUP2 MLOAD SWAP1 POP PUSH2 0x54CC DUP2 PUSH2 0x3934 JUMP JUMPDEST SWAP3 SWAP2 POP POP JUMP JUMPDEST PUSH1 0x0 PUSH1 0x20 DUP3 DUP5 SUB SLT ISZERO PUSH2 0x54E8 JUMPI PUSH2 0x54E7 PUSH2 0x38FE JUMP JUMPDEST JUMPDEST PUSH1 0x0 PUSH2 0x54F6 DUP5 DUP3 DUP6 ADD PUSH2 0x54BD JUMP JUMPDEST SWAP2 POP POP SWAP3 SWAP2 POP POP JUMP JUMPDEST PUSH32 0x4552433732313A206D696E7420746F20746865207A65726F2061646472657373 PUSH1 0x0 DUP3 ADD MSTORE POP JUMP JUMPDEST PUSH1 0x0 PUSH2 0x5535 PUSH1 0x20 DUP4 PUSH2 0x39CE JUMP JUMPDEST SWAP2 POP PUSH2 0x5540 DUP3 PUSH2 0x54FF JUMP JUMPDEST PUSH1 0x20 DUP3 ADD SWAP1 POP SWAP2 SWAP1 POP JUMP JUMPDEST PUSH1 0x0 PUSH1 0x20 DUP3 ADD SWAP1 POP DUP2 DUP2 SUB PUSH1 0x0 DUP4 ADD MSTORE PUSH2 0x5564 DUP2 PUSH2 0x5528 JUMP JUMPDEST SWAP1 POP SWAP2 SWAP1 POP JUMP JUMPDEST PUSH32 0x4552433732313A20746F6B656E20616C7265616479206D696E74656400000000 PUSH1 0x0 DUP3 ADD MSTORE POP JUMP JUMPDEST PUSH1 0x0 PUSH2 0x55A1 PUSH1 0x1C DUP4 PUSH2 0x39CE JUMP JUMPDEST SWAP2 POP PUSH2 0x55AC DUP3 PUSH2 0x556B JUMP JUMPDEST PUSH1 0x20 DUP3 ADD SWAP1 POP SWAP2 SWAP1 POP JUMP JUMPDEST PUSH1 0x0 PUSH1 0x20 DUP3 ADD SWAP1 POP DUP2 DUP2 SUB PUSH1 0x0 DUP4 ADD MSTORE PUSH2 0x55D0 DUP2 PUSH2 0x5594 JUMP JUMPDEST SWAP1 POP SWAP2 SWAP1 POP JUMP JUMPDEST PUSH32 0x45524337323155524953746F726167653A2055524920736574206F66206E6F6E PUSH1 0x0 DUP3 ADD MSTORE PUSH32 0x6578697374656E7420746F6B656E000000000000000000000000000000000000 PUSH1 0x20 DUP3 ADD MSTORE POP JUMP JUMPDEST PUSH1 0x0 PUSH2 0x5633 PUSH1 0x2E DUP4 PUSH2 0x39CE JUMP JUMPDEST SWAP2 POP PUSH2 0x563E DUP3 PUSH2 0x55D7 JUMP JUMPDEST PUSH1 0x40 DUP3 ADD SWAP1 POP SWAP2 SWAP1 POP JUMP JUMPDEST PUSH1 0x0 PUSH1 0x20 DUP3 ADD SWAP1 POP DUP2 DUP2 SUB PUSH1 0x0 DUP4 ADD MSTORE PUSH2 0x5662 DUP2 PUSH2 0x5626 JUMP JUMPDEST SWAP1 POP SWAP2 SWAP1 POP JUMP JUMPDEST PUSH32 0x4E487B7100000000000000000000000000000000000000000000000000000000 PUSH1 0x0 MSTORE PUSH1 0x12 PUSH1 0x4 MSTORE PUSH1 0x24 PUSH1 0x0 REVERT INVALID LOG2 PUSH5 0x6970667358 0x22 SLT KECCAK256 PUSH27 0x3A5384A69EF8E488890EAF79958D8D7D3E27EF88911A4B88AF9F21 0xEE 0xCB 0x29 MSTORE8 PUSH5 0x736F6C6343 STOP ADDMOD GT STOP CALLER "},"methodIdentifiers":{"Communities(string)":"4cc83e5a","NftAwards(uint8)":"b30cfcf0","Users(string)":"076faab4","WasteCategories(uint8)":"28b5fdf1","addWasteType(string,uint256)":"47e59985","approve(address,uint256)":"095ea7b3","balanceOf(address)":"70a08231","buyProduct(string,string,uint8)":"ac0cf976","buyWasteItems(string,uint8,uint256)":"f87be6bb","createCommunity(string)":"e6792922","createNFT(string,string)":"68613d17","createProduct(string,uint8,string)":"9724128c","createUser(string)":"507ffba5","createWasteCategory(string,uint8)":"64eeff92","getApproved(uint256)":"081812fc","getWasteCommunity(string,uint8)":"788166e8","getWasteStore(uint8)":"31151a7c","isApprovedForAll(address,address)":"e985e9c5","marketItems(uint8)":"0ff77f3b","name()":"06fdde03","noUsers()":"363de538","owner()":"8da5cb5b","ownerOf(uint256)":"6352211e","renounceOwnership()":"715018a6","safeTransferFrom(address,address,uint256)":"42842e0e","safeTransferFrom(address,address,uint256,bytes)":"b88d4fde","sellWaste(string,uint8,uint256)":"c14d942b","setApprovalForAll(address,bool)":"a22cb465","supportsInterface(bytes4)":"01ffc9a7","symbol()":"95d89b41","tokenURI(uint256)":"c87b56dd","totalCommunities()":"fcb4d206","totalCreatedNfts()":"e108ec06","totalMintedNfts()":"3bae2285","totalProducts()":"9b9d326d","totalWaste()":"81e901fb","totalWasteCategories()":"96cc9263","transferFrom(address,address,uint256)":"23b872dd","transferOwnership(address)":"f2fde38b"}}}}}